:020000040800F2
:10000000B813002005010008093500082F2D00084D
:1000100005350008110B0008B93800080000000081
:10002000000000000000000000000000393500085A
:10003000510C0008000000000D3500083B35000899
:100040001F0100081F0100081F0100081F01000810
:100050001F0100081F0100081F0100081F01000800
:100060001F0100081F0100081F010008150C0008EF
:100070001F0100081F0100081F0100081F010008E0
:100080001F0100081F0100081F0100081F010008D0
:100090001F0100081F0100081F0100081F010008C0
:1000A0001F0100081F0100081F0100081F010008B0
:1000B0001F0100081F0100081F0100081F010008A0
:1000C0001F0100081F0100081F0100081F01000890
:1000D0001F0100081F0100081F0100081F01000880
:1000E0001F0100081F0100081F010008DFF810D0E1
:1000F00000F046FC00480047F9540008AFF30080C8
:10010000B81300200648804706480047FEE7FEE790
:10011000FEE7FEE7FEE7FEE7FEE7FEE7FEE7FEE7B7
:10012000C7350008ED0000082DE9F05F0546002006
:1001300092469B4688460646814640241BE0284658
:1001400041464746224600F051F853465A46C01AE7
:10015000914110D311461846224600F043FB2D1A58
:1001600067EB01084F4622460120002100F03AFBD0
:1001700017EB00094E41201EA4F10104DFDC4846C4
:1001800031462A464346BDE8F09F2DE9F041002460
:10019000061B254671F1000605DA01240027D0EB85
:1001A000070067EB0101161E73F1000605DA002750
:1001B000D2EB0702012567EB0303FFF7B5FF864685
:1001C0000E4617469C46AC4204D00025D0EB050EE7
:1001D00065EB010624B10020D2EB000760EB030CB5
:1001E000704631463A466346BDE8F081202A04DB7A
:1001F000203A21FA02F00021704721FA02F3D040A0
:10020000C2F120029140084319467047D2B201E082
:1002100000F8012B491EFBD270470022F6E710B50B
:1002200013460A4604461946FFF7F0FF204610BD64
:1002300030B504460020034600E05B1C934203D225
:10024000E05CCD5C401BF8D030BDF0B480EA010228
:10025000D40F4200B2EB410F02D2024608461146CB
:100260004A0042D0C30DDDB2C1F3C752AD1A202DF2
:1002700035DAC1F3160141F4000204B15242C5F16E
:10028000200602FA06F12A411044B3EBD05F23D0D6
:10029000C4B1012DA0EBC35009DCF0BC4FF000420B
:1002A00002EAC352DBB200F5000000F0C5BA40001C
:1002B00000F1807000EBC350A0F1807040EAD17073
:1002C000490009E0490841EAC071A0EBC35000F5BC
:1002D0000000400800EBC350F0BC00F0A4BA61423B
:1002E000012202EB4101001BF6E7F0BC704781F0F0
:1002F0000041AAE780F00040A7E780EA010210B5BC
:1003000002F00043400022D04A001FD0010E01EB52
:100310001261C0F35600C2F3560240F4000042F4EA
:100320000002A0FB022000047F39140400D0401C0E
:1003300050EA124001D44000491EC2B20C0604EB40
:10034000D010401C4008802A02D003E0002010BDDD
:1003500020F00100002900DA0020184310BD30B45D
:1003600080EA010202F0004530F0004221F0004036
:1003700013D090B1C30DD40DC2F31601C0F3160013
:10038000E41A41F4000140F400027D34914201D3AB
:10039000641C00E04900002C02DA30BC00207047E9
:1003A0004FF400000023914201D3891A034340080F
:1003B0004FEA4101F7D151B1914202D14FF00041D2
:1003C00005E002D24FF0010101E06FF0010103EB03
:1003D000C450284430BC00F026BA2DE9FE4F8046B8
:1003E00081EA0300C00F0C46009021F0004123F089
:1003F0000045B8EB0200A94105D24046214690468F
:100400001C460B46024623F00040104347D0270D00
:10041000C7F30A00C3F30A510290401A0190402822
:100420006BDAC3F3130040F4801B0098924620B1AE
:100430000023D2EB030A63EB0B0B01985946C0F182
:100440004002504600F0CEF906460D465046594649
:10045000019A00F0D6F910EB08006141002487EA08
:10046000115284EAE7731A4340D0009A62B3019AAA
:10047000012A4FEA075215DC001B61EB02014FF025
:10048000004202EA0752CDE90042001C41F580110A
:1004900032462B4600F00DFA03B0BDE8F08F40461F
:1004A0002146F9E7001B61EB0201001C41F58013B6
:1004B00000185B412018A2F5001747EB030140EA42
:1004C000D570B6196D4111E06D084FEA360645EA60
:1004D000C0754FEA0752001B61EB0201001C41F599
:1004E000801149084FEA30000019514132462B462D
:1004F00003B0BDE8F04F00F0CDB9009801224000F4
:100500000023D0EB020263EBE073009821464FEA30
:10051000E074B8EB000061EB0401E9E783F000430D
:100520005BE781F0004158E72DE9FE4F81EA0304C3
:1005300004F0004421F0004100944FF0000B23F040
:10054000004350EA01045ED052EA03045BD0C3F3D7
:100550000A54C1F30A552C44A4F2F3340194A0FBCD
:100560000254C1F3130141F48011C3F3130343F4A4
:10057000801301FB024400FB034E840A970A44EAFD
:10058000815447EA8357A4FB076802958D0A05FB4F
:1005900007854FEA932C04FB0C542705029D4FEA74
:1005A000065847EA1637B5EB08056EEB070C870EC1
:1005B000920E47EA811742EA8312A7FB0201B6EBCB
:1005C0000B0164EB00042B0D43EA0C335E1844EB83
:1005D0001C50DA465146E7FB0201C5F313044FEA0B
:1005E0000B3343EA14534FEA0432019C43EA0603F7
:1005F000A4F10C040294009CCDE900B400F059F978
:1006000003B0BDE8F08F00200146F9E72DE9F04D79
:1006100081EA030404F0004B21F0004514464FF03A
:10062000000A23F0004150EA050220D054EA0102FA
:100630001DD0C5F30A570246C5F31303C1F31300D7
:10064000C1F30A5640F4801543F48013A7EB060863
:10065000101BD64608F2FD3873EB050002D308F1F3
:10066000010801E092185B41B8F1000F03DA0020A5
:100670000146BDE8F08D00204FF480110646844607
:100680000EE0171B73EB050705D3121B63EB050385
:1006900006434CEA010C49084FEA300092185B41CE
:1006A00050EA0107EDD152EA030012D082EA0400B9
:1006B00083EA0501084305D0101BAB4106D2012295
:1006C000002306E000224FF0004302E06FF0010239
:1006D00053101AEB06004CEB085110EB0A0041EBEB
:1006E0000B01BDE8F04D00F0D5B8C10F80EAE07015
:1006F0000844CA079623002100F09EB896230022E2
:10070000114600F099B800F0004220F00040C10D01
:10071000C0F3160040F400007F2901DA0020704782
:10072000962903DCC1F19601C84001E09639884062
:10073000002AF4D04042704720F00040C10DC0F3C1
:10074000160040F400007F2901DA00207047962946
:1007500003DCC1F19601C840704796398840704764
:1007600030B5041E71F1000404DB4FF00044404238
:1007700064EB0101141E73F1000405DB1C464FF00D
:100780000043524263EB0403994208BF904230BDDC
:10079000002801DBC0F10040002901DBC1F100416C
:1007A00081427047002801DBC0F10040002901DBD5
:1007B000C1F100418842704730B50B460146002028
:1007C0002022012409E021FA02F59D4205D303FA13
:1007D00002F5491B04FA02F52844151EA2F1010294
:1007E000F1DC30BD202A04DB203A00FA02F10020BF
:1007F00070479140C2F1200320FA03F3194390405F
:100800007047202A06DBCB17203A41FA02F043EA70
:10081000E07306E041FA02F3D040C2F120029140B9
:100820000843194670470029A8BF7047401C49007B
:1008300008BF20F00100704710B4B0FA80FC00FA45
:100840000CF050EA010404BF10BC704749B1CCF170
:10085000200421FA04F411FA0CF118BF01212143FC
:100860000843A3EB0C01CB1D4FEA00614FEA1020B7
:1008700042BF002010BC704700EBC3501044002959
:10088000A4BF10BC7047401C490008BF20F0010005
:1008900010BC704710B5141E73F1000408DA401C38
:1008A00041F1000192185B411A4301D120F001008F
:1008B00010BD2DE9F04D92469B4611B1B1FA81F27F
:1008C00002E0B0FA80F220329046FFF78BFF044638
:1008D0000F4640EA0A0041EA0B0153465A460843D4
:1008E00013D0114653EA010019D0C8F14002504616
:1008F000FFF77CFC05460E46504659464246FFF738
:1009000071FF084305D0012004E020463946BDE8C8
:10091000F08D0020054346EAE0762C4337430A98E1
:100920006305E40AA0EB08000022FD0A44EA4754EC
:100930000A3002D500200146E9E701051019694196
:10094000DDE9084500196941BDE8F04DA2E7C1F3B2
:100950000A52C1F3130140F2FF3341F480119A426D
:1009600002DA00200146704740F233439A42A2F275
:10097000334202DC5242FFF739BCFFF733BF0000BD
:10098000064C074D06E0E06840F0010394E80700DC
:1009900098471034AC42F6D3FFF7ACFB447E000816
:1009A000647E000870B5044600252068806800F069
:1009B000010018B32068806820F001002168886079
:1009C00000F0D8FE054613E000F0D4FE401B0228DC
:1009D0000ED92068806800F0010048B1A06A40F09C
:1009E0001000A062E06A40F00100E062012070BDEA
:1009F0002068806800F001000028E5D10020F6E7BB
:100A000070B505466C6AA06A00F05000E0B9A06AB3
:100A100040F40070A0622068806800F46020B0F5A7
:100A2000602F0DD1207B58B9A06A20F48070A0629D
:100A3000A06A00F4805018B9A06A40F00100A062DA
:100A4000204600F0D7F903E0206A016B284688476A
:100A500070BD70B505466C6AA06A40F04000A062A7
:100A6000E06A40F00400E062204600F0C5F970BD85
:100A700070B50446656A284600F0BDF970BD0000F7
:100A800038B504460025002000902068806800F0FA
:100A9000010078BB2068806840F001002168886010
:100AA000194800681949B0FBF1F0009002E0009885
:100AB000401E009000980028F9D100F05BFE05462A
:100AC00019E000F057FE401B022814D92068806806
:100AD00000F0010078B9A06A40F01000A062E06A5E
:100AE00040F00100E06200BF002084F8240000BF55
:100AF000012038BD05E02068806800F00100002872
:100B0000DFD00020F5E700000C00002040420F007D
:100B100000BFFEE71FB500200090019002900390F7
:100B20004FF48070009000200190012002906946EF
:100B3000014800F081FC1FBD000801401FB50020E6
:100B400000900190029003904FF48070009001207B
:100B5000019000200290032003906946014800F0B4
:100B60006BFC1FBD0008014038B500BF27488069F5
:100B700040F00400254988610846806900F00400BF
:100B8000009000BF00BFFFF7D9FF012211022048EB
:100B900000F0EAFD00224FF480711D4800F0E4FDF2
:100BA000142000F035FC01221102194800F0DCFD90
:100BB0001E2000F04FF8FFF7ADFF002404E0601C9A
:100BC000C4B2012000F046F84FF48071104800F0E4
:100BD000C3FD08B1642CF2DB642C01DB012038BDBD
:100BE000002404E0601CC4B2012000F033F84FF48C
:100BF0008071074800F0B0FD08B9642CF2DB642C6A
:100C000001DB0120EBE70020E9E7000000100240D3
:100C10000008014010B5024800F0AAFA10BD00001B
:100C2000E000002030B590F840500124AC40C56B86
:100C30006C60046863604468102C04D10468A2608E
:100C40000468E16003E00468A1600468E26030BD0C
:100C50007047000070B504464FF6FF70001B401F40
:100C600085B2094800684562074801F0ADFE03E01F
:100C700005480068406A85B24FF6FA708542F7DB96
:100C8000014801F0D7FE70BDCC01002072B600BF54
:100C9000FEE7000038B5024600230020009000BFA8
:100CA00092F82400012801D1022038BD012082F8E9
:100CB000240000BF4868072812D21068406B0C79E6
:100CC000641E04EB84051F24AC40A0430D796D1E07
:100CD00005EB85050C68AC4020431468606327E091
:100CE00048680D2812D21068006B0C79E41F04EBE1
:100CF00084051F24AC40A0430D79ED1F05EB85054D
:100D00000C68AC4020431468206311E01068C06A8E
:100D10000C790D3C04EB84051F24AC40A0430D79F5
:100D20000D3D05EB85050C68AC4020431468E0627E
:100D300008680A2812D31068C0680C780A3C04EBD3
:100D400044050724AC40A0430D780A3D05EB45055A
:100D50008C68AC4020431468E0600FE010680069C4
:100D60000C7804EB44050724AC40A0430D7805EB58
:100D700045058C68AC402043146820610868102841
:100D800002D00868112827D1174C1068A0421ED144
:100D90001068806800F40000F0B91068806840F4C2
:100DA00000001468A0600868102815D10F4800687A
:100DB0000F4CB0FBF4F000EB80004000009002E02C
:100DC0000098401E009000980028F9D104E0906A35
:100DD00040F020009062012300BF002082F8240030
:100DE00000BF184661E70000002401400C0000200D
:100DF00040420F0070477047704700002DE9F041F6
:100E00000446002700250026A84614B90120BDE8A5
:100E1000F081A06810B1207D00B100BFA06A30B998
:100E20000020E06284F82400204600F089F8204683
:100E3000FFF7B8FD0746A06A00F01000002873D144
:100E4000002F71D1A06A20F4885040F00200A06207
:100E5000E16960680843217B40EA41000643A068DD
:100E6000B0F5807F02D0A068012802D14FF48070D5
:100E700000E000200543207D012811D1207B38B9F6
:100E8000A069401E4FF4006141EA4030054307E08D
:100E9000A06A40F02000A062E06A40F00100E06239
:100EA0002068406820F46940284321684860206831
:100EB000806821490840304321688860A068B0F507
:100EC000807F02D0A068012802D14FF4807000E03A
:100ED0000020B0F5807F03D1208A401E4FEA0058E1
:100EE0002068C06A20F4700040EA08002168C862E7
:100EF0002068806811490840B04208D10020E062B3
:100F0000A06A20F0020040F00100A06211E0A06A97
:100F100020F0020040F01000A062E06A40F0010002
:100F2000E062012705E0FFE7A06A40F01000A06240
:100F3000012738466BE70000FDF7E1FFFE0E1FFFBB
:100F400010B586B0044600200290039004900590EE
:100F50002249206888423ED100BF2148806940F480
:100F600000701F4988610846806900F40070019094
:100F700000BF00BF00BF0846806940F004008861E0
:100F80000846806900F00400019000BF00BF012006
:100F900002900320039002A9124800F04DFA124873
:100FA00012490860002048600021104881608021BB
:100FB000C1608900016189004161202181610902CC
:100FC000C16100F0A3F908B1FFF760FE00BF074858
:100FD0002062446200BF06B010BD00000024014042
:100FE000001002400008014008000240E00000201C
:100FF0002DE9F04104460D46164600275749206862
:10100000884203D056492068884205D15348001DC4
:10101000006800F4702000E0002000287ED100BFAE
:1010200094F82400012802D10220BDE8F0810120BB
:1010300084F8240000BF2046FFF722FD0746002F5A
:101040006DD1A06A40F60161884340F48070A062CF
:1010500043492068884209D14048001D006800F4D7
:10106000702008B9012002E0002000E0012078B1E2
:10107000A06A20F48010A0622068406800F48060BC
:1010800000B3A06A20F4005040F48050A06219E040
:10109000A06A40F48010A06230492068884203D0E2
:1010A0002F492068884205D12C48001D006800F4B3
:1010B000806000E0002028B1A06A20F4005040F4D5
:1010C0008050A062A06A00F4805020B1E06A20F055
:1010D0000600E06201E00020E06200BF002084F82A
:1010E000240000BF1F48216A88621F48216AC86225
:1010F0001E48216A08636FF00200216808602068BA
:10110000806840F4807021688860226802F14C0198
:1011100033462A46206A00F02DF901E01AE014E077
:101120002068806800F46020B0F5602F06D1206848
:10113000806840F4A000216888600CE02068806826
:1011400040F480102168886005E000BF002084F82A
:10115000240000E00127384667E700000024014032
:1011600000280140010A0008710A0008530A00081B
:1011700070B50446E06B05682068066894F8401076
:10118000042088402840002846D006F004000028AB
:1011900042D02068006800F0200028B9206800686C
:1011A00020F004002168086057492068884201D176
:1011B000042027E0544914312068884201D140209E
:1011C00020E0514928312068884201D1001519E0FA
:1011D0004D493C312068884202D14FF4804011E0F3
:1011E000494950312068884202D14FF4802009E0FB
:1011F000454964312068884202D14FF4800001E003
:101200004FF08060404908394860E06A00287AD091
:101210002046E16A884776E094F840100220884032
:101220002840A0B306F0020088B32068006800F0F0
:10123000200040B92068006820F00A00216808609A
:10124000012084F8210030492068884201D1022021
:1012500028E02D4914312068884201D1202021E066
:10126000294928312068884201D140151AE02649D1
:101270003C312068884202D14FF4005012E02249EC
:1012800050312068884203D14FF400300AE017E063
:101290001D4964312068884202D14FF4001001E0FA
:1012A0004FF0007018490839486000BF002084F8EA
:1012B000200000BFA06A30B32046A16A884722E020
:1012C00094F84010082088402840E0B106F008005B
:1012D000C8B12068006820F00E002168086094F80A
:1012E000401001208840E16B48600120A06384F831
:1012F000210000BF002084F8200000BF206B10B147
:101300002046216B884770BD08000240014600223C
:1013100009B901207047164B0868C01A1423B0FBA6
:10132000F3F08000086412480838C863022081F88E
:1013300021000868026843F6F0708243D1E9010396
:101340001843CB6818430B6918434B6918438B69E2
:101350001843CB6918430243086802600020886381
:10136000012081F82100002081F8200000BFD1E792
:10137000080002402DE9F04104460D4616461F467E
:101380004FF0000800BF94F82000012802D102208D
:10139000BDE8F081012084F8200000BF94F821000E
:1013A00001282CD1022084F821000020A0632068AD
:1013B000006820F00100216808603B46324629465B
:1013C0002046FFF72FFCE06A30B12068006840F04B
:1013D0000E00216808600BE02068006820F004001F
:1013E000216808602068006840F00A0021680860F1
:1013F0002068006840F001002168086006E000BF36
:10140000002084F8200000BF4FF002084046BFE7EC
:1014100070B5044600F0AEF906462546681C10B1CA
:1014200004480078054400BF00F0A4F9801BA842DE
:10143000FAD370BD080000202DE9F84703460022CA
:1014400094466EE14FF0010808FA02F4D1F80080EA
:1014500008EA0400A0427DD1DFF8DCA2D1F80480C4
:10146000A8EB0A09D0453AD014DCB8F1030F50D0EC
:1014700009DCB8F1000F31D0B8F1010F1CD0B8F180
:10148000020F49D120E0B8F1110F18D0B8F1120FB6
:1014900042D11EE0B9F5881F25D006DCB9F5803FA2
:1014A00020D0B9F5801F37D11AE0B9F5001F18D048
:1014B000B9F5041F30D117E0D1F80CC02DE0D1F8F8
:1014C0000C8008F1040C28E0D1F80C8008F1080C1D
:1014D00023E0D1F80C8008F10C0C1EE000BF00BF27
:1014E00000BF00BF00BF00BFD1F80880B8F1000FF7
:1014F00002D14FF0040C0BE0D1F80880B8F1010FD5
:1015000003D14FF0080C1C6102E04FF0080C5C6145
:1015100003E04FF0000C00E000BF00BFFF2801D83F
:10152000984601E003F104084646FF2802D84FEA36
:10153000820803E0A2F108084FEA88084746D6F877
:1015400000804FF00F0909FA07F928EA09080CFA98
:1015500007F900E088E048EA0908C6F80080D1F8F9
:10156000048008F08058B8F1805F7DD100BFDFF8BB
:10157000CC81D8F8188048F00108DFF8C091C9F88C
:101580001880C846D8F8188008F00108CDF8008007
:1015900000BF00BF4FEAB9384FEA920958F8295006
:1015A0004FEA82784FEA18794FF00F0808FA09F8E5
:1015B00025EA0805DFF88881434502D14FF000088D
:1015C00016E0DFF88081434502D14FF001080FE0BB
:1015D000DFF87481434502D14FF0020808E0DFF8DC
:1015E0006C81434502D14FF0030801E04FF004083D
:1015F0004FEA82794FEA197908FA09F848EA0505AD
:10160000DFF84C814FEA920948F82950D1F804805C
:1016100008F48018B8F5801F0AD1DFF83881D8F8AF
:10162000008048EA0008DFF82C91C9F8008009E042
:10163000DFF82081D8F8008028EA0008DFF814914C
:10164000C9F80080D1F8048008F40018B8F5001F2C
:1016500010D1DFF8008108F10408D8F8008048EACA
:101660000008DFF8F09000E05AE009F10409C9F839
:1016700000800DE0DFF8DC8008F10408D8F8008075
:1016800028EA0008DFF8CC9009F10409C9F80080C5
:10169000D1F8048008F40038B8F5003F0ED1DFF827
:1016A000B480A8F10408D8F8008048EA0008DFF800
:1016B000A490A9F10409C9F800800DE0DFF8948036
:1016C000A8F10408D8F8008028EA0008DFF8849020
:1016D000A9F10409C9F80080D1F8048008F4803821
:1016E000B8F5803F0ED1DFF86C80A8F10808D8F873
:1016F000008048EA0008DFF85C90A9F10809C9F801
:1017000000800DE0DFF84C80A8F10808D8F80080D0
:1017100028EA0008DFF83C90A9F10809C9F8008020
:10172000521CD1F8008028FA02F8B8F1000F7FF4BB
:1017300089AEBDE8F88700000000111000100240DB
:1017400000080140000C014000100140001401405D
:101750000800014008040140024693680B400BB1A9
:10176000012000E0002070470AB1016101E00B0494
:1017700003617047014800687047000000000020C6
:1017800070B504460CB9012070BD94F83D0028B92D
:10179000002084F83C00204600F046FB242084F81A
:1017A0003D002068006820F0010021680860206882
:1017B000006840F40040216808602068006820F458
:1017C00000402168086000F0CDFD05465C49606876
:1017D000884206D85B48854201D2012007E00020FC
:1017E00005E05948854201D2012000E0002001288F
:1017F00000D1C9E75548B5FBF0F62068406820F0F5
:101800003F003043216848604D496068884201D8F4
:10181000701C07E04FF4967070434FF47A71B0FB80
:10182000F1F0401C2168096A21F03F01084321685A
:10183000086243496068884214D8681E616849009C
:10184000B0FBF1F0401CC0F30B00042801D20420CF
:101850003DE0681E61684900B0FBF1F0401CC0F338
:101860000B0034E0A06838B9681E616801EB4101E3
:10187000B0FBF1F0401C0AE0681E616801EBC10298
:1018800002EB0111B0FBF1F0401C40F48040C0F3CA
:101890000B0008B901201AE0A06848B9681E616809
:1018A00001EB4101B0FBF1F0401CC0F30B000CE078
:1018B000681E616801EBC10202EB0111B0FBF1F09F
:1018C000401CC0F30B0040F4804040F4004021680D
:1018D000C9694CF6FF72914308432168C861D4E995
:1018E000070108432168096821F0C0010843216805
:1018F0000860D4E9031008432168896848F2FF3280
:101900009143084321688860D4E9050108432168B0
:10191000C96821F0FF0108432168C8602068006899
:1019200040F001002168086000202064202084F835
:101930003D000020206384F83E0000BF24E7000043
:10194000A086010080841E0000093D0040420F0077
:101950002DE9FE4F04460F4690469946DDE90CAB53
:101960000E9E00200290FFF705FF054694F83D000B
:10197000202872D119230122CE492046009501F07A
:101980004AFB10B10220BDE8FE8F00BF94F83C0076
:10199000012801D10220F6E7012084F83C0000BFB5
:1019A0002068006800F0010028B92068006840F055
:1019B0000100216808602068006820F40060216848
:1019C0000860222084F83D00402084F83E0000207A
:1019D0002064C4F824A0A4F82AB0608D2085B648FD
:1019E000E0624B46424639462046CDE9006501F0AB
:1019F000BFF908B10120C6E7208D88B900BF0020DB
:101A0000019020684069019020688069019000BFC2
:101A100000BF2068006840F40070216808604BE057
:101A2000208D01281AD12068006820F48060216888
:101A3000086072B600BF00200190206840690190E4
:101A400020688069019000BF00BF2068006840F4F2
:101A500000702168086062B62EE029E1208D02281E
:101A600019D12068006840F400602168086072B6EF
:101A700000BF0020019020684069019020688069C3
:101A8000019000BF00BF2068006820F480602168DA
:101A9000086062B610E02068006840F48060216849
:101AA000086000BF00200190206840690190206814
:101AB0008069019000BF00BFEBE0208D03287DD836
:101AC000208D012815D12A463146204601F07FFBA2
:101AD00008B1012057E720680069616A0870606AF0
:101AE000401C6062208D401E2085608D401E6085F8
:101AF000CFE0208D02282CD1334600226F492046AA
:101B0000009501F088FA08B101203CE772B6206820
:101B1000006840F400702168086020680069616A0C
:101B20000870606A401C6062208D401E2085608DB8
:101B3000401E608562B620680069616A0870606A4C
:101B4000401C6062208D401E2085608D401E608597
:101B50009FE03346002259492046009501F05BFA88
:101B600008B101200FE72068006820F48060216838
:101B7000086072B620680069616A0870606A401C7B
:101B80006062208D401E2085608D401E60854C481F
:101B900000681921B0FBF1F04FF47A71B0FBF1F05D
:101BA000C0EBC00000EB8000029000BF0298401E16
:101BB00002900298A8B90020206300E039E02020BC
:101BC00084F83D00002084F83E00206C40F02000A6
:101BD000206462B600BF002084F83C0000BF0120F2
:101BE000D1E620684069C0F380000028DED020687C
:101BF000006840F400702168086020680069616A2C
:101C00000870606A401C6062208D401E2085608DD7
:101C1000401E608562B620680069616A0870606A6B
:101C2000401C6062208D401E2085608D401E6085B6
:101C30002FE02A463146204601F0C9FA08B10120BA
:101C4000A1E620680069616A0870606A401C6062F1
:101C5000208D401E2085608D401E60852068406973
:101C6000C0F38000A8B1208D032805D1206800684A
:101C700020F480602168086020680069616A08704B
:101C8000606A401C6062208D401E2085608D401E71
:101C90006085208D00287FF410AF202084F83D005F
:101CA000002084F83E0000BF84F83C0000BF6AE6D4
:101CB000022068E6020010000000FFFF040001009F
:101CC0000C0000202DE9FC5F04460F469046994623
:101CD000DDE90CAB0E9EFFF74DFD054694F83D0087
:101CE00020287DD1192301224D492046009501F07D
:101CF00092F910B10220BDE8FC9F00BF94F83C00AF
:101D0000012801D10220F6E7012084F83C0000BF41
:101D10002068006800F0010028B92068006840F0E1
:101D20000100216808602068006820F400602168D4
:101D30000860212084F83D00402084F83E00002007
:101D40002064C4F824A0A4F82AB0608D208535480A
:101D5000E0624B46424639462046CDE9006501F037
:101D6000B7F808B10120C6E731E02A4631462046DF
:101D700001F072FA50B1206C042805D12068006887
:101D800040F40070216808600120B4E7606A0078C0
:101D900021680861606A401C6062208D401E2085B9
:101DA000608D401E608520684069C0F3800070B17E
:101DB000208D60B1606A007821680861606A401C0B
:101DC0006062208D401E2085608D401E6085208DC4
:101DD0000028CAD12A463146204601F0E9F800E041
:101DE0001CE050B1206C042805D12068006840F444
:101DF00000702168086001207DE72068006840F4D9
:101E0000007021680860202084F83D00002084F8DC
:101E10003E0000BF84F83C0000BF6CE702206AE788
:101E2000020010000000FFFF10B586B0044600203D
:101E300002900390049005902B492068884225D198
:101E400000BF2A48806940F0080028498861084698
:101E5000806900F00800019000BF00BFC020029020
:101E6000122003900320059002A92148FFF7E4FA0D
:101E700000BF1E48C06940F400101C49C8610846F4
:101E8000C06900F40010019000BF2AE019492068E1
:101E9000884226D100BF1548806940F008001349E8
:101EA00088610846806900F00800019000BF00BF0B
:101EB0004FF440600290122003900320059002A985
:101EC0000B48FFF7B9FA00BF0848C06940F480002A
:101ED0000649C8610846C06900F48000019000BF4F
:101EE00000BF06B010BD00000054004000100240CA
:101EF000000C01400058004003480068034909787D
:101F000008440149086070470000002008000020D4
:101F100010B50848006840F010000649086003202A
:101F200000F0A8F8002000F007F800F02BF80020DF
:101F300010BD00000020024070B504460E48007835
:101F40004FF47A71B1FBF0F00C490968B1FBF0F580
:101F5000284600F091FC08B1012070BD102C07D27A
:101F600000222146501E00F047F80548046001E0B9
:101F70000120F2E70020F0E7080000200C0000201C
:101F80000400002008B500BF1148806940F001003E
:101F90000F4988610846806900F00100009000BF89
:101FA00000BF00BF0846C06940F08050C8610846C5
:101FB000C06900F08050009000BF00BF00BF05491D
:101FC000486820F0E06040F00070486000BF08BD45
:101FD000001002400000014001460846002809DBCD
:101FE00000F01F0301229A4043099B0003F1E02304
:101FF000C3F8002100BF70472DE9F05F80460D4611
:102000001646002701F06AFC074639462A46334641
:1020100001F00700C0F1070ABAF1040F02D94FF02E
:10202000040A01E0C0F1070AD14600F1040ABAF13E
:10203000070F02D24FF0000A01E0A0F1030AD446D4
:102040004FF0010A0AFA09FAAAF1010A0AEA020A99
:102050000AFA0CFA4FF0010B0BFA0CFBABF1010B77
:102060000BEA030B4AEA0B042146404601F03EFC12
:10207000BDE8F09F00BF00F00702064B19684FF65D
:10208000FF031940044B0B4343EA0221014B196043
:1020900000BF70470CED00E00000FA05F8B50446FB
:1020A00000260025207800F0010000286BD00027D2
:1020B0004348C06900F0805070B900BF4048C06913
:1020C00040F080503E49C8610846C06900F0805029
:1020D000009000BF00BF01273A48006800F48070FC
:1020E000B0B93848006840F4807036490860FFF79E
:1020F00041FB064606E0FFF73DFB801B642801D943
:102100000320F8BD2F48006800F480700028F2D04A
:102110002B48006A00F440752DB3A08800F440708D
:10212000A84220D02648006A20F4407501202649A4
:102130000860002008602248056205F0010090B1A7
:10214000FFF718FB064608E0FFF714FB801B41F27F
:102150008831884201D90320D3E71948006A00F08A
:1021600002000028F0D01648006A20F44070616830
:10217000084313490862012F04D10846C06920F0C2
:102180008050C86100BF207800F00200022807D10B
:102190000B48406820F44040A16808430849486063
:1021A000207800F01000102807D10548406820F47E
:1021B0008000E1680843024948600020A1E7000070
:1021C00000100240007000404004424270B50446D6
:1021D0000D460CB9012070BD5A48006800F0070098
:1021E000A8420ED25748006820F0070028435549FE
:1021F00008600846006800F00700A84201D00120EE
:10220000E9E7207800F0020002281DD1207800F0D4
:102210000400042805D14C48406840F4E0604A4975
:102220004860207800F00800082805D1464840683A
:1022300040F46050444948604348406820F0F00052
:10224000A168084340494860207800F0010078B355
:102250006068012806D13C48006800F4003090B95D
:102260000120B8E76068022806D13748006800F00E
:10227000007040B90120AEE73348006800F002006A
:1022800008B90120A7E73048406820F003006168E2
:1022900008432D494860FFF76DFA064609E0FFF74D
:1022A00069FA801B41F28831884202D9032092E703
:1022B00007E02548406800F00C006168B0EB810F32
:1022C000EDD12048006800F00700A8420ED91D4853
:1022D000006820F0070028431A4908600846006893
:1022E00000F00700A84201D0012074E7207800F038
:1022F0000400042807D11448406820F4E060E16835
:10230000084311494860207800F00800082808D1E7
:102310000D48406820F46050216940EAC1000A4934
:10232000486000F03FF808494968C1F30311074AC3
:10233000515CC8400649086006480068FFF7FCFD8C
:10234000002048E700200240001002400E71000803
:102350000C000020040000200148006870470000C5
:102360000C00002000B5FFF7F7FF04494968C1F3EE
:102370000221034A515CC84000BD00000010024029
:102380001E71000800B5FFF7E7FF04494968C1F373
:10239000C221034A515CC84000BD00000010024049
:1023A0001E71000870B500210022002400230020C7
:1023B000134D696801F00C05F5B1042D02D0082D0C
:1023C00019D101E00F4819E00F4DC1F38346AB5D11
:1023D00001F4803555B10A4D6D68C5F340450B4E8B
:1023E000725D084D5D43B5FBF2F402E0084D03FB5E
:1023F00005F4204602E000BF024800BF00BF70BDE8
:102400000010024000127A00FC7000080C710008F5
:1024100000093D00F8B504460CB90120F8BD20784C
:1024200000F00100002878D0F848406800F00C0067
:1024300004280CD0F548406800F00C00082811D1A1
:10244000F248406800F48030B0F5803F0AD1EF4890
:10245000006800F4003000285FD0606800285CD17C
:102460000120DBE700BF6068B0F5803F06D1E74898
:10247000006840F48030E549086028E0606858B999
:10248000E248006820F48030E049086008460068AF
:1024900020F4802008601AE06068B0F5A02F0BD10E
:1024A000DA48006840F48020D8490860084600688F
:1024B00040F4803008600AE0D448006820F480309E
:1024C000D24908600846006820F48020086000BFF8
:1024D000606888B1FFF74EF9054606E0FFF74AF954
:1024E000401B642801D9032098E7C848006800F41D
:1024F00000300028F2D010E0FFF73CF9054606E076
:10250000FFF738F9401B642801D9032086E7BF484C
:10251000006800F400300028F2D1207800F00200BA
:10252000022857D1B948406800F00C0050B1B748B4
:10253000406800F00C00082818D1B448406800F446
:10254000803098B9B148006800F0020020B12069DD
:10255000012801D0012061E7AC48006820F0F800B4
:10256000616940EAC100A949086033E02069E8B127
:102570000120A7490860FFF7FDF8054606E0FFF7D0
:10258000F9F8401B022801D9032047E79F4800685B
:1025900000F002000028F2D09C48006820F0F8000B
:1025A000616940EAC1009949086013E00020984938
:1025B0000860FFF7DFF8054606E0FFF7DBF8401B91
:1025C000022801D9032029E79048006800F00200A2
:1025D0000028F2D1207800F0080008282DD1A06949
:1025E000B8B101208B490860FFF7C4F8054606E042
:1025F000FFF7C0F8401B022801D903200EE78348EB
:10260000406A00F002000028F2D0012000F080FFB4
:1026100013E000207F490860FFF7ACF8054606E0AC
:10262000FFF7A8F8401B022801D90320F6E67748F7
:10263000406A00F002000028F2D1207800F0040087
:10264000042873D100277148C06900F0805070B928
:1026500000BF6E48C06940F080506C49C8610846B0
:10266000C06900F08050009000BF00BF01276A4899
:10267000006800F48070B0B96748006840F480706A
:1026800065490860FFF776F8054606E0FFF772F83F
:10269000401B642801D90320C0E65F48006800F4AD
:1026A00080700028F2D000BFE068012806D15748AA
:1026B000006A40F001005549086227E0E06858B917
:1026C0005248006A20F00100504908620846006A3A
:1026D00020F00400086219E0E06805280BD14B489F
:1026E000006A40F00400494908620846006A40F068
:1026F000010008620AE04548006A20F001004349F1
:1027000008620846006A20F00400086200BFE06822
:10271000A0B1FFF72FF8054609E0FFF72BF8401BA3
:1027200041F28831884202D9032077E622E0374817
:10273000006A00F002000028EFD012E0FFF71AF85C
:10274000054608E0FFF716F8401B41F28831884241
:1027500001D9032062E62D48006A00F0020000283B
:10276000F0D1012F05D12948C06920F080502749B8
:10277000C86100BFE069C8B32448406800F00C009D
:10278000082860D0E069022848D100202049086666
:10279000FEF7F0FF054606E0FEF7ECFF401B0228BF
:1027A00001D903203AE61948006800F000700028BB
:1027B000F2D1206AB0F5803F07D11448406820F478
:1027C0000030A168084311494860D4E90801084372
:1027D0000E49496821F4741108430C4948600120EE
:1027E0000B490866FEF7C6FF054607E03DE0FEF729
:1027F000C1FF401B022801D903200FE603480068EF
:1028000000F000700028F2D02FE00000001002401D
:1028100000004242800442420070004000201449FF
:102820000866FEF7A7FF054606E0FEF7A3FF401B7C
:10283000022801D90320F1E50E48006800F000707D
:102840000028F2D111E0E069012800D1E6E509484D
:10285000466806F48031206A814204D106F4701182
:10286000606A814201D00120D8E50020D6E5000051
:10287000000042420010024070B504462546681E22
:10288000B0F1807F01D301200FE0681E4FF0E021FE
:1028900048610F214FF0FF3001F028F800204FF081
:1028A000E021886107200861002070BD30B5024634
:1028B0000B4600BF92F83C00012801D1022030BD38
:1028C000012082F83C0000BF022082F83D00106821
:1028D00044681068816824F0700418680443106824
:1028E0004460104D1068A8420BD01068B0F1804FC2
:1028F00007D00D4D1068A84203D00C4D1068A842B7
:1029000005D121F0800158680143106881600120E1
:1029100082F83D0000BF002082F83C0000BF00BFED
:10292000CDE70000002C01400004004000080040FA
:1029300010B504460CB9012010BD94F83D0028B92B
:10294000002084F83C00204600F026F8022084F89D
:102950003D00211D206800F037FE012084F846006C
:1029600000BF84F83E0001213F2001554020015561
:102970004120015500BF00BF012084F842004320E0
:102980000155442001554520015500BF012084F820
:102990003D000020D0E7000008B5094A01689142D7
:1029A0000DD100BF0749896941F40061054A916171
:1029B0001146896901F40061009100BF00BF08BDA4
:1029C000002C014000100240014691F83D00012812
:1029D00001D001207047022081F83D00124B0868A9
:1029E00098420BD00868B0F1804F07D00F4B0868B1
:1029F000984203D00E4B086898420CD10868806852
:102A000000F00702062A0CD00868006840F00100B8
:102A10000B68186005E00868006840F001000B686A
:102A200018600020D6E70000002C014000040040A0
:102A300000080040014600BF0868006A41F2111218
:102A4000104050B90868006A9210104028B9086810
:102A5000006820F001000A68106000BF012081F8C2
:102A60003D00002070472DE9F04104460D46002747
:102A700000BF94F83C00012802D10220BDE8F0819B
:102A8000012084F83C0000BF022084F83D0020684B
:102A9000866826F0770626F47F46206886602868D8
:102AA000502833D00CDC202850D004DC00284BD038
:102AB000102851D149E0302849D040284CD139E084
:102AC00060282DD0702807D0B0F5805F03D0B0F516
:102AD000005F41D10DE041E0D5E902136A6820684A
:102AE00000F0B4FD2068866846F0770620688660AE
:102AF00034E0D5E902136A68206800F0A7FD206879
:102B0000806840F480402168886027E0EA6869684E
:102B1000206800F0AFFD5021206800F0A2FD1DE00C
:102B2000EA686968206800F0B8FD6021206800F05C
:102B300098FD13E0EA686968206800F09BFD402179
:102B4000206800F08EFD09E000BF00BF00BF2968CB
:102B5000206800F086FD01E0012700BF00BF0120D2
:102B600084F83D0000BF002084F83C0000BF3846D8
:102B700084E710B504460CB9012010BDA06900B16E
:102B800000E000BF94F8410028B9002084F840001C
:102B9000204600F029F8242084F841002068C0680D
:102BA00020F400502168C860204600F0C1FD206874
:102BB000006920F49040216808612068406920F095
:102BC0002A00216848612068C06840F400502168EC
:102BD000C86000206064202084F8410084F842002E
:102BE0000020606300BFC8E710B586B0044600202F
:102BF00002900390049005901A49206888422ED1D3
:102C000000BF1948806940F4804017498861084630
:102C1000806900F48040019000BF00BF00BF0846FB
:102C2000806940F0040088610846806900F0040073
:102C3000019000BF00BF48150290022003900320BE
:102C4000059002A90948FEF7F7FB4FF48060029057
:102C500000200390049002A90448FEF7EDFB06B0A3
:102C600010BD000000380140001002400008014083
:102C70002DE9F84F04460E46174699464FF0000AD4
:102C800094F84100202850D106B117B90120BDE8C1
:102C9000F88F00206064212084F84100FEF76AFD6F
:102CA0008246A784E784A068B0F5805F04D12069DC
:102CB00010B90025B04602E035464FF000081EE08E
:102CC0005346002280212046CDF8009000F0AEFD52
:102CD00020B1202084F841000320D8E745B9B8F896
:102CE0000000C0F308002168486008F1020803E012
:102CF0002878216848606D1CE08C401EE084E08CE0
:102D00000028DDD15346002240212046CDF8009016
:102D100000F08CFD20B1202084F841000320B6E7AC
:102D2000202084F841000020B1E70220AFE700BF77
:102D3000FEE7014608684069C0F38020B0B16FF437
:102D400080600A68506100200863202081F83D00FF
:102D5000002081F83E00086C40F00400086400BFC9
:102D6000002081F83C0000BF012070470020FCE7F4
:102D70002DE9F84304460F4615469946DDE90886D5
:102D80002068006840F4806021680860206800685E
:102D900040F4807021680860434600224FF0011122
:102DA0002046009600F037F960B12068006800F412
:102DB0008070B0F5807F02D14FF400702064032052
:102DC000BDE8F88307F0FE002168086133464246FB
:102DD0003E49204600F07EF908B10120F0E700BF2F
:102DE0000020009020684069009020688069009071
:102DF00000BF00BF32464146204600F02DFA50B1D8
:102E0000206C042805D12068006840F40070216817
:102E100008600120D4E7B9F1010F03D1E8B22168BD
:102E2000086117E0C5F30720216808613246414672
:102E3000204600F011FA50B1206C042805D120681A
:102E4000006840F40070216808600120B8E7E8B22B
:102E50002168086132464146204600F0FDF950B134
:102E6000206C042805D12068006840F400702168B7
:102E700008600120A4E72068006840F480702168A1
:102E80000860434600224FF001112046009600F0F2
:102E9000C2F858B12068006800F48070B0F5807FF7
:102EA00002D14FF400702064032089E7F8B240F0AB
:102EB000010021680861334642460449204600F07B
:102EC00009F908B101207BE7002079E70200010041
:102ED0002DE9F8430446884615469946DDE908671A
:102EE0002068006840F48070216808603346002242
:102EF0004FF001112046009700F08DF860B1206876
:102F0000006800F48070B0F5807F02D14FF400704B
:102F100020640320BDE8F88308F0FE002168086102
:102F20003B4632462149204600F0D4F808B1012042
:102F3000F0E700BF00200090206840690090206802
:102F40008069009000BF00BF3A463146204600F03D
:102F500083F950B1206C042805D12068006840F442
:102F60000070216808600120D4E7B9F1010F03D196
:102F7000E8B22168086117E0C5F3072021680861FD
:102F80003A463146204600F067F950B1206C0428DB
:102F900005D12068006840F40070216808600120B5
:102FA000B8E7E8B2216808610020B3E70200010039
:102FB00070B504460D46164625E02046FFF7B9FEDB
:102FC00008B1012070BD681CE8B1FEF7D3FB801B7F
:102FD000A84200D8BDB920684069C0F3800090B90C
:102FE00000202063202084F83D00002084F83E006B
:102FF000206C40F02000206400BF002084F83C00DA
:1030000000BF0120DEE720684069C0F3800000288F
:10301000D3D00020D6E72DE9F04104460D461746EF
:103020001E46DDF8188038E0701CA8B3FEF7A2FB3E
:10303000A0EB0800B04200D876BBC5F307400128DA
:103040000AD120684069A9B20840A9B2884201D1DA
:1030500001200BE0002009E020688069A9B2084047
:10306000A9B2884201D1012000E00020B84214D169
:1030700000202063202084F83D00002084F83E00DA
:10308000206C40F02000206400BF002084F83C0049
:1030900000BF0120BDE8F081FFE7C5F3074001282C
:1030A0000AD120684069A9B20840A9B2884201D17A
:1030B00001200BE0002009E020688069A9B20840E7
:1030C000A9B2884201D1012000E00020B842ABD073
:1030D0000020DFE72DE9F04104460D4616461F4665
:1030E00058E020684069C0F38020E8B1206800689B
:1030F00040F40070216808606FF4806021684861C6
:1031000000202063202084F83D00002084F83E0049
:10311000206C40F00400206400BF002084F83C00D4
:1031200000BF0120BDE8F081701C90B3FEF722FBC8
:10313000C01BB04200D866BBC5F3074001280AD1C6
:1031400020684069A9B20840A9B2884201D1012093
:103150000BE0002009E020688069A9B20840A9B20C
:10316000884201D1012000E0002090B900202063B6
:10317000202084F83D00002084F83E00206C40F0C0
:103180002000206400BF002084F83C0000BF012024
:10319000C8E7FFE7C5F3074001280AD12068406966
:1031A000A9B20840A9B2884201D101200BE0002059
:1031B00009E020688069A9B20840A9B2884201D11B
:1031C000012000E0002000288BD00020AAE770B585
:1031D00004460D46164637E020684069C0F30010EB
:1031E000A0B16FF01000216848610020206320200A
:1031F00084F83D00002084F83E00206C206400BF6D
:10320000002084F83C0000BF012070BDFEF7B2FA38
:10321000801BA84200D8BDB920684069C0F3801067
:1032200090B900202063202084F83D00002084F81D
:103230003E00206C40F02000206400BF002084F895
:103240003C0000BF0120E0E720684069C0F3801027
:103250000028C1D00020D8E770B504460D461646B8
:1032600025E02046FFF765FD08B1012070BD681C10
:10327000E8B1FEF77FFA801BA84200D8BDB92068EC
:103280004069C0F3C01090B900202063202084F86A
:103290003D00002084F83E00206C40F020002064B7
:1032A00000BF002084F83C0000BF0120DEE720685A
:1032B0004069C0F3C0100028D3D00020D6E700003A
:1032C0000EB5002000900190029013481349086049
:1032D00000211248816001210173002101754FF422
:1032E0006021C16100200D49486001210B48016146
:1032F000FDF784FD08B1FDF7C9FC00200090012016
:1033000001900020029069460448FDF7C3FC08B113
:10331000FDF7BCFC0EBD000000240140B000002001
:1033200008B500BF0A48406940F0010008494861FB
:103330000846406900F00100009000BF00BF002275
:1033400011460B20FEF758FE0B20FEF745FE08BD88
:103350000010024000B585B000200190029003905B
:10336000049000BF1D48806940F020001B4988611F
:103370000846806900F02000009000BF00BF00BF39
:103380000846806940F0040088610846806900F0C2
:103390000400009000BF00BF00BF0846806940F0F5
:1033A000080088610846806900F00800009000BFAE
:1033B00000BF012289150A48FEF7D6F94FF4807044
:1033C000019001200290002003900320049001A9A5
:1033D0000348FEF731F805B000BD000000100240C0
:1033E0000008014010B50B480B4908600B484860C5
:1033F000002109488160C1604FF4804101610021D2
:1034000041618161C1610162FEF7BAF908B1FDF75E
:103410003DFC10BD0054004024010020801A06002D
:1034200010B50B480B4908600B484860002109485B
:103430008160C1604FF4804101610021416181617F
:10344000C1610162FEF79CF908B1FDF71FFC10BDD8
:103450000058004078010020801A060000B587B0AF
:10346000002003900490059006900190029015486A
:1034700015490860472048600021134881604FF6D5
:10348000FF71C1600021016141618161FFF750FA64
:1034900008B1FDF7FBFB4FF48050039003A90A48E5
:1034A000FFF7E1FA08B1FDF7F1FB0020019002906F
:1034B00001A90548FFF7FAF908B1FDF7E7FB07B0E6
:1034C00000BD0000002C0140CC01002010B50B48CD
:1034D0000B4908604FF4E1304860002108488160E2
:1034E000C16001610C21416100218161C161FFF76F
:1034F00040FB08B1FDF7CAFB10BD000000380140D9
:103500001402002000BFFEE700BFFEE77047000086
:1035100008B508490968C9084FF47A72B1FBF2F19D
:103520004143009100BF00BF00994A1E009200294C
:10353000F9D108BD0C000020704710B5FEF7DCFC87
:1035400010BD00B593B0282109A8FCF766FE142130
:1035500004A8FCF762FE0020009001900290039006
:103560000120099000040A9000200B9001200D908A
:1035700002201090C10311914FF4E011129109A89B
:10358000FEF748FF08B1FDF781FB0F2004900220F1
:103590000590002006904FF480600790002008906E
:1035A000022104A8FEF712FE08B1FDF76FFB02200E
:1035B0000090800302906846FEF770FD08B1FDF7A9
:1035C00065FB13B000BD704710B502681C4B9842F4
:1035D00008D0B0F1804F05D01A4B984202D01A4B58
:1035E000984203D122F070024B681A43144B984260
:1035F00008D0B0F1804F05D0124B984202D0124B48
:10360000984203D122F44072CB681A4322F080031F
:103610004C6943EA040202608B68C3620B688362F0
:10362000074B984201D10B6903630123436103698E
:1036300003F001031BB1036923F00103036110BD13
:10364000002C0140000400400008004030B50C464A
:10365000816821F47F4142EA0325254329438160A3
:1036600030BD0A46816821F0700142F0070319431A
:103670008160704730B50B461446026A056A25F032
:1036800001050562816921F0F00141EA041122F08F
:103690000A021A438161026230BD30B50B461446FE
:1036A000026A056A25F010050562816921F47041FE
:1036B00041EA043122F0A00242EA0312816102626F
:1036C00030BD00BF00BF02680C3252E8002F22F468
:1036D000907102680C3242E80013002BF3D100BF56
:1036E00000BF00BF0268143252E8002F22F001012F
:1036F0000268143242E80013002BF3D100BF016BC3
:1037000001290ED100BF00BF02680C3252E8002F21
:1037100022F0100102680C3242E80013002BF3D1B2
:1037200000BF202180F84210002101637047000093
:1037300070B504462168096921F44051E2681143DB
:10374000226811612269A1681143626941EA020598
:103750002168C96841F20C62914329432268D16013
:103760002168496921F44071A269114322685161BD
:103770002D4A2168914202D1FEF704FE01E0FEF7D6
:10378000F1FD00EBC00101EB001162689200B1FB9A
:10379000F2F100EBC00202EB001263689B00B2FB87
:1037A000F3F26423B2FBF3F202EBC20303EB021267
:1037B000A1EB8201322202EB01116422B1FBF2F192
:1037C00001F0F00100EBC00202EB001263689B0005
:1037D000B2FBF3F26423B2FBF3F201EB021200EB53
:1037E000C00101EB001163689B00B1FBF3F100EB3A
:1037F000C00303EB00136668B600B3FBF6F3642660
:10380000B3FBF6F303EBC30606EB0313A1EB830153
:10381000322303EB01116423B1FBF3F101F00F013B
:1038200011442268916070BD003801402DE9F843D1
:1038300004460D4617469846089E31E0701C70B34A
:10384000FDF798FFA0EB0800B04200D816B903209E
:10385000BDE8F8832068C06800F00400F8B1802D4E
:103860001ED0402D1CD020680068C0F3C000B0B14D
:1038700000BF002000902068006800902068406829
:10388000009000BF00BF2046FFF71BFF08206064C8
:1038900000BF002084F8400000BF0120D8E7FFE708
:1038A000206800682840A84201D1012000E00020E3
:1038B000B842C3D00020CBE700BFFEE70FB4054BF2
:1038C00010B503A9044A029800F0F6F810BC5DF8A0
:1038D00014FB0000554C0008AC00002002480068B2
:1038E000C0F30220704700000CED00E010B5002886
:1038F00004DB0A07130E054A135406E00A07140EE8
:10390000034A00F00F031B1FD45410BD00E400E075
:1039100018ED00E002E008C8121F08C1002AFAD121
:1039200070477047002001E001C1121F002AFBD13F
:10393000704700002DE9FF5F82B00021DDE904300F
:10394000020DDDF840B0034318D044F61050A2F247
:10395000FF3242431514119801281FD0A5EB0B002C
:10396000401C5FEA000A4FF000064E4FDFF8389126
:10397000B046504615D5CAF1000413E01198012451
:103980004AA3012801D16FEA0B010298119AC0E9FC
:103990000031C0E9024206B0BDE8F09FCBF1000063
:1039A000DFE704460021404A491842EB0450CDE9C4
:1039B000001012E0E00707D032463B464046494639
:1039C000FCF7B2FD8046894632463B461046194612
:1039D000FCF7AAFD06460F466410002CEAD1DDE98B
:1039E0000401DDE90023BAF1000F06DAFCF79CFDC3
:1039F00042464B46FCF798FD05E0FCF707FE4246C1
:103A00004B46FCF703FE04460E460022284BFCF70B
:103A1000A7FE03D84FF0FF30014607E00022254BF8
:103A200020463146FCF7D9FCFCF791FF102409E051
:103A3000002C0ADB0A220023FCF776FB039B3032C2
:103A40001A55641E50EA0102F2D1641C039AC4F1B3
:103A500011031444119A012A03D0012208430DD105
:103A60000AE0084304D000204FF0110B119072E7D8
:103A7000A3EB0B056D1E0DE05B4504DD4FF000026E
:103A800005F1010504E003DA4FF00002A5F101059C
:103A9000002AECD002981199C0E90231C0E9004532
:103AA00079E70000000014400000F03F3000000003
:103AB0000000F0430000E03F2DE9FF4F95B09A462B
:103AC000884606460025EEE1252877D100242746C2
:103AD000F94A0121039400E0044316F8013F203B1A
:103AE00001FA03F01042F7D130782A2811D06FF094
:103AF0002F033078A0F13002092A16D8039A44F037
:103B0000020402EB820203EB42021044761C039093
:103B1000EFE758F8042B0392002A03DA504244F4EA
:103B20000054039044F00204761C30782E2816D1FD
:103B300016F8010F44F004042A280DD06FF02F026C
:103B40003078A0F13003092B09D807EB870302EB8B
:103B50004303C718761CF3E758F8047B761C3078CB
:103B60006C280FD006DC4C2817D068280DD06A28A6
:103B700014D104E0742810D07A280FD10DE044F459
:103B800000140AE044F4801401E044F44014727814
:103B9000824202D104F58014761C761C30786628A7
:103BA0000BD013DC582877D009DC002875D04528C5
:103BB000F6D04628F4D047281AD193E118E06328BC
:103BC00035D0642879D0652812D18BE1702873D064
:103BD00008DC6728F1D069286FD06E280DD06F28D7
:103BE00006D1ACE073282CD0752874D0782853D037
:103BF0005246179990476D1C54E1C4F302500228B5
:103C000009D003280DD0D8F8001004280DD00D607D
:103C100008F1040846E1D8F80010EA17C1E900529B
:103C2000F6E7D8F800100D80F2E70D70F0E718F80D
:103C3000041B8DF8001000208DF80100EB460120D8
:103C400003E058F804BB4FF0FF3061074FF000016C
:103C500002D40DE009F101018946B9420FDA81452C
:103C6000F8DB1BF809100029F4D108E009F1010183
:103C700089468142FADB1BF809100029F6D1039826
:103C80005346A0EB090721463846179A00F080FA00
:103C9000284400EB090507E044E008E10DE01BF8CB
:103CA000010B524617999047B9F10109F7D25346D3
:103CB00021463846179AF2E039E00A21C4F302524D
:103CC0004FF0000B0091022A06D058F8040BC117E0
:103CD000032A09D00AE023E008F1070020F00702D8
:103CE000F2E80201904605E000B2C117042A01D1B2
:103CF00040B2C117002906DA0A460021404261EBB2
:103D000002012D2202E0220504D52B228DF8042089
:103D1000012203E0E20701D02022F7E7914657E0B5
:103D20000A2100E010214FF0000B00910BE0102160
:103D30004FF0000B44F004040827009103E0082032
:103D40004FF0000B0090C4F30252022A05D058F83D
:103D5000040B0021032A08D008E008F1070020F036
:103D60000702F2E80201904603E080B2042A00D183
:103D7000C0B24FF0000922072AD53278702A07D046
:103D8000DDF800C08CF0100C5CEA0B0C05D00EE0E6
:103D900040228DF80420012208E050EA010306D0F9
:103DA00030238DF804308DF8052002229146009BC7
:103DB00083F0080353EA0B030AD150EA010201D150
:103DC000620705D530228DF804204FF001097F1ECF
:103DD0003278582A04D039A20C920CAA02920BE035
:103DE0003BA2F9E75B46009AFCF79EF90C9B9B5CB3
:103DF000029A521E0292137050EA0102F2D1029806
:103E000004A9081A00F1200B600702D524F48034BD
:103E100000E001275F4502DDA7EB0B0000E000207A
:103E200000EB0B01009003984944401A0390E00313
:103E300006D453462146179A039800F0A9F9054481
:103E4000002706E001A85246C05D179990476D1CF7
:103E50007F1C4F45F6DBE0030CD553462146179AED
:103E6000039800F095F9054404E030205246179974
:103E700090476D1C0099481E00900029F5DC08E071
:103E80000298029952460078491C0291179990476E
:103E90006D1CBBF10001ABF1010BF1DC5BE100F04B
:103EA00065F90544761C307800287FF40DAE19B012
:103EB0002846BDE8F08F0000092801003031323378
:103EC0003435363738396162636465660000000056
:103ED0003031323334353637383941424344454640
:103EE00000000000600700D4062708F1070020F05A
:103EF0000700F0E80223804603F0004C5FEA0C0064
:103F000001D097A009E0200501D596A005E0E007C3
:103F100001D095A001E0AFF24C001390307823F06F
:103F2000004365280CD006DC452809D046281DD062
:103F300047287FD13BE0662818D067287AD136E041
:103F40000021112F01DB112000E0781CCDE90001D8
:103F500004A90CA8FFF7EEFCDDE90D010C9A4FF067
:103F6000000B07F10109109200914EE04FF0004064
:103F70000097CDE9011004A90CA8FFF7DBFCDDE9EF
:103F80000D020C9B0F994FF0000B9146109300927D
:103F900011B9791C00EB0109B7EB090003D4C0F19A
:103FA000FF3B07F10109A9EB0700019042E0012F57
:103FB00000DA01270021112F01DD112000E0384631
:103FC000CDE9000104A90CA8FFF7B4FCDDE90D015F
:103FD0000C9A00914FF0000BB946109221070FD4B4
:103FE000009A4A4503DA914601E0A9F10109B9F1C5
:103FF000010F05DD109AA9F10101515C3029F4D0BF
:10400000B84202DA10F1040F03DA0121CDE9011000
:1040100010E0002803DC8344A9EB000102E0411C0E
:10402000494500DD8946A0EB0B00401C01904FF094
:1040300000400290200705D40198484502DB4FF06C
:10404000FF30019000208DF84B0002980DF14B07D6
:10405000B0F1004F25D002200C902B200D9002983B
:1040600000280CDA404202902D200D9007E00A2132
:104070000298FCF7A1FB3031029007F8011D0C9962
:10408000481E0C900029F2DC02980028EFD1791E1E
:104090000D980870307800F0200040F0450007F8D7
:1040A000020D11A8C01BC01D02901398007800B12A
:1040B000012000EB0901019801EBE0710298014435
:1040C0000398401A401E0390E00306D4534621464D
:1040D000179A039800F05CF805441398007818B11B
:1040E0005246179990476D1CE00323D5534621464D
:1040F000179A039800F04CF805441BE0BBF1000F41
:1041000007DB0098584504DD1098179910F80B004C
:1041100001E0179930205246904701980BF1010BAE
:10412000401E05F10105019004D12E205246179939
:1041300090476D1CB9F10001A9F10109DEDC05E031
:1041400017F8010B5246179990476D1C0299481EAB
:1041500002900029F4DC53462146179A03989EE604
:104160002D0000002B000000200000002DE9F04190
:10417000044600251E461746880404D405E0394647
:104180002020B0476D1C641EF9D52846BDE8F0819B
:104190002DE9F041044600251E469046C80301D58E
:1041A000302700E02027880404D505E04146384642
:1041B000B0476D1C641EF9D52846BDE8F0810000AB
:1041C0002DE9FE4F06460F460025684600F04EFDDD
:1041D000002442E056F8240057F82410A0EB010A0E
:1041E000BAF1000F01DB514601E0CAF100010846B7
:1041F000FCF77BFA83464FF08F41FCF7B0F880461E
:104200005DF824000021FCF7C3FA16D05DF82410F5
:104210004046FCF7A4F882464FF07E51FCF767F861
:10422000814629F0004A0F48416A5046FCF7BAFA25
:1042300012D20120A04005430EE00A48C169404661
:10424000FCF7A6FA05D30748016A4046FCF7AAFA2C
:1042500002D20120A0400543641C032CBADB28468F
:10426000BDE8FE8F5471000838B5044664B12020C3
:104270008DF8000028208DF8010030208DF8020014
:1042800038208DF8030004E0A32204216846FBF7E0
:10429000BDFF6A46042140F69E2002F0B5FC01F005
:1042A000E7FF38BD3EB5044602208DF80000CA2065
:1042B0008DF80100E3208DF8020009208DF803003D
:1042C0006A460421682002F09FFCA3208DF80000BC
:1042D00004F0400048B1C0208DF80100C8208DF8DE
:1042E0000200C2208DF8030006E0A3208DF8010033
:1042F0008DF802008DF8030004F4C07048B1C420AA
:104300008DF80400CC208DF80500C6208DF806003D
:1043100006E0A3208DF804008DF805008DF8060056
:10432000A3208DF807008DF808008DF809006A4673
:104330000A2140F6A72002F067FC04F0030018B140
:1043400020208DF8000002E0D8208DF800006A4699
:10435000012140F6B62002F057FC04F0200018B10D
:10436000012000F0ADF802E0002000F0A9F804F40C
:10437000C07008B304F4807060B1B2208DF8000002
:104380008B208DF80100B6208DF802009B208DF85F
:1043900003000BE0C0208DF8000080208DF80100A4
:1043A000C2208DF8020090208DF803006A46042197
:1043B00040F6A22002F028FC04F0010020B3F8200F
:1043C0008DF800006A4601214FF40B6002F01CFCDE
:1043D000FA21072000F048FB072000F00FFB012026
:1043E00000F02FFB642000F00FFC4FF4FA7000F097
:1043F0001EFCC821304800F0BFFA282000F0D8FA8F
:104400000A2000F0E8FA08E0D8208DF800006A469B
:1044100001214FF40B6002F0F7FB04F0020018B129
:10442000D9208DF8000002E0D8208DF800006A46FF
:10443000012140F23D7002F0E7FB04F0040018B1E6
:10444000012000F069F802E0002000F065F804F0B7
:10445000100018B10120FFF707FF02E00020FFF76E
:1044600003FF44F008001549488101F001FF0020D6
:104470001249887304F0400018B10846807B801D03
:10448000887304F4C07020B10C48807B801D0B49F8
:10449000887304F0140020B10848807B103007496D
:1044A000887304F0030020B10448807B001D034999
:1044B000887300203EBD000009E3CA02D402002038
:1044C0003EB504466CB10EA1D1E900208968CDE962
:1044D000002002916A4609214FF4976002F094FB94
:1044E0003EBD0AA2D2E900109268CDE90102009116
:1044F0006A4609214FF4976002F086FBF0E700005E
:10450000B8AAB38DB4980D355D000000B8AAAAAA68
:10451000B088C3C5C700000038B5044664B1C020E8
:104520008DF80000C2208DF80100C4208DF8020033
:10453000C6208DF8030004E08B2204216846FBF7B7
:1045400065FE6A46042140F6982002F05DFB01F00A
:104550008FFE38BD10B5C8234FF48062024940F683
:10456000F63001F0D1FD10BD7C71000870B588B047
:10457000064601A801F024FCBDF804000021C9038F
:1045800041EA5045C40300BF4448007A00F00300EC
:1045900056F8200005904148007A00F0040010B160
:1045A0000598404205903D48007AC0F3C10056F896
:1045B000200006903948007A00F0200010B10698DB
:1045C000404206903548007AC0F3811056F820002A
:1045D00007903248008900F4807010B1079840427B
:1045E00007900598C117A0FB042301FB043100FBD1
:1045F0000510810041EA927005900698C117A0FB52
:10460000042301FB043100FB0510810041EA927094
:1046100006900798C117A0FB042301FB043100FB9F
:104620000510810041EA927007900598000E8DF800
:1046300008000598000C8DF809000598000A8DF80F
:104640000A000598C0B28DF80B000698000E8DF890
:104650000C000698000C8DF80D000698000A8DF8E5
:104660000E000698C0B28DF80F000798000E8DF866
:1046700010000798000C8DF811000798000A8DF8BB
:1046800012000798C0B28DF8130002AA0C214FF453
:10469000257002F0B9FA08B070BD0000D402002005
:1046A00030B585B0044616A207CA02AB07C3C82CB2
:1046B00003DD4FF0FF3005B030BDC82090FBF4F0B3
:1046C000401E85B2280A8DF80000E8B28DF801007E
:1046D0006A46022140F2162002F096FA10B14FF01D
:1046E000FF30E8E702AA0C2140F6C12002F08CFA64
:1046F00010B14FF0FF30DEE7044884810020DAE794
:10470000FEF2ABC4AAF1DFDFBBAFDFDFD4020020D3
:104710001FB504464848007A00F0030054F8200012
:1047200001904548007A00F0040010B10198404221
:1047300001904148007AC0F3C10054F82000029073
:104740003D48007A00F0200010B1029840420290EB
:104750003948007AC0F3811054F82000039036489D
:10476000008900F4807010B10398404203903349EF
:10477000019880FB0101800F40EA810001902F49E0
:10478000029880FB0110820042EA917002902B494E
:10479000039880FB0110820042EA91700390019817
:1047A000000E8DF800000198000C8DF801000198B2
:1047B000000A8DF802000198C0B28DF803006A4625
:1047C00004214FF4747002F01FFA18B14FF0FF305B
:1047D00004B010BD0298000E8DF800000298000C85
:1047E0008DF801000298000A8DF802000298C0B20C
:1047F0008DF803006A4604214FF4757002F004FA44
:1048000010B14FF0FF30E3E70398000E8DF8000081
:104810000398000C8DF801000398000A8DF802003F
:104820000398C0B28DF803006A4604214FF47670F5
:1048300002F0EAF9CCE70000D402002009E3CA0242
:1048400010B586B0044647A00068039046A00068F3
:10485000029046A00068019045A00068009004F016
:10486000030003A9085C8DF8140003A8C4F3C10178
:10487000405C8DF8150003A8C4F38111405C8DF8ED
:10488000160004F0030002A9085C8DF8100002A8CD
:10489000C4F3C101405C8DF8110002A8C4F381117A
:1048A000405C8DF8120005AA032140F2264002F078
:1048B000ABF918B14FF0FF3006B010BD04AA0321C8
:1048C00040F22A4002F0A0F910B14FF0FF30F3E7B8
:1048D000019805900098049004F0040058B19DF8E8
:1048E000140040F001008DF814009DF8100040F015
:1048F00001008DF8100004F0200058B19DF815005B
:1049000040F001008DF815009DF8110040F0010005
:104910008DF8110004F4807058B19DF8160040F035
:1049200001008DF816009DF8120040F001008DF88E
:10493000120005AA03214FF4886002F065F910B156
:104940004FF0FF30B8E704AA032140F2314002F0F3
:104950005BF910B14FF0FF30AEE70648048100204C
:10496000AAE700004CCD6C000CC92C00365676002E
:1049700026466600D4020020F8B505460E464FF4E0
:104980007A7095FBF0F000FB06F4200E8DF8000025
:10499000200C8DF80100200A8DF80200E0B28DF89D
:1049A00003006A4604214FF4AE7002F02DF9F8BD01
:1049B00038B50446052094FBF0F084B220128DF83F
:1049C0000000E0B28DF801006A4602214FF4AD709C
:1049D00002F01AF938BD38B50446052094FBF0F012
:1049E00084B220128DF80000E0B28DF801006A4612
:1049F00002214FF4AC7002F007F938BD38B5044617
:104A00000020009004F0010020B19DF8000040F06B
:104A10003000009004F0020020B19DF8000040F04A
:104A20000C00009004F0040020B19DF8000040F05C
:104A3000030000906A4601214FF4A47002F0E4F8EC
:104A400038BD38B50446012C01DA012402E0042CFB
:104A500000DD0424601EC0B200906A46012140F2CD
:104A60004F1002F0D1F838BD2DE9FC4706460F463D
:104A700006F0070010B1B7F5C86F03DD4FF0FF3047
:104A8000BDE8FC873846FBF739FE81465949FBF7FC
:104A900066FC8046684601F06DF99DF8000002282A
:104AA00006D0042816D0082826D0102848D135E092
:104AB0004FF08D414046FBF720FC8146FBF73CFE62
:104AC00084B24D494046FBF718FC8146FBF734FEA3
:104AD00085B238E04FF08C414046FBF70EFC814632
:104AE000FBF72AFE84B245494046FBF706FC8146A7
:104AF000FBF722FE85B226E04FF08B414046FBF7E4
:104B0000FCFB8146FBF718FE84B23D494046FBF7AB
:104B1000F4FB8146FBF710FE85B214E04FF08A41AA
:104B20004046FBF7EAFB8146FBF706FE84B23549B7
:104B30004046FBF7E2FB8146FBF7FEFD85B202E053
:104B40004FF0FF309CE700BF20128DF80400E0B268
:104B50008DF8050028128DF80600E8B28DF80700E0
:104B600006F00100A0B101AA02214FF4EA7002F0A0
:104B70004BF810B14FF0FF3082E70DF10602022131
:104B80004FF4927002F040F810B14FF0FF3077E729
:104B900006F00200A0B101AA02214FF4EC7002F06D
:104BA00033F810B14FF0FF306AE70DF10602022131
:104BB0004FF4947002F028F810B14FF0FF305FE727
:104BC00006F00400A0B101AA02214FF4EE7002F039
:104BD0001BF810B14FF0FF3052E70DF10602022131
:104BE0004FF4967002F010F810B14FF0FF3047E725
:104BF000002045E700004843000040460000C04553
:104C0000000040450000C04438B50446052094FB30
:104C1000F0F085B228128DF80000E8B28DF801009E
:104C20006A4602214FF4EF7001F0EEFF38BD38B54F
:104C30000446052094FBF0F085B228128DF80000A0
:104C4000E8B28DF801006A4602214FF4ED7001F0E0
:104C5000DBFF38BD13B50C460A2301226946024822
:104C6000FEF706F800981CBD1402002030B585B090
:104C700005466FF07F40042104AACDE9002102908F
:104C800029484068017801230D222848FCF760FE7E
:104C900010B1072005B030BD9DF81300C0F301101E
:104CA0009DF8101001F0E00140EAE1008DF80C00E1
:104CB0009DF81300C0F381009DF8111001F0E00190
:104CC00040EAE1008DF80D009DF8130000F00300AC
:104CD0009DF8121001F0E00140EAE1008DF80E00AD
:104CE00000241CE003A8005D18B9002045F824004A
:104CF00013E00F4845F8240006E055F824000D495C
:104D0000FBF7FBFA45F8240003A8005D401EC0B283
:104D100003A908550028F0D100BF601CC4B2032CC1
:104D2000E0DB0020B6E7000048000020240100205E
:104D30007B14AE3E1D5A843F07B590B001208DF81C
:104D4000340000208DF835006FF07F4002210DAA5D
:104D5000CDE900210290FE480068407D0990FC48A2
:104D600040680078012308900146FA48099AFCF748
:104D7000A9FF18B14FF0FF3013B000BDC820FCF7F9
:104D800047FB00208DF834006FF07F4001210DAA11
:104D9000CDE900210290EE480068407C0990EC4883
:104DA000406800780B4608900146EA48099AFCF7EB
:104DB00089FF10B14FF0FF30DEE76FF07F40012137
:104DC0000DAACDE900210290E148006840790990E0
:104DD000DF48406800780B4608900146DD48099A94
:104DE000FCF770FF10B14FF0FF30C5E76FF07F4068
:104DF00001210DAACDE900210290D5480068407D2F
:104E00000990D348406800780B4608900146D14885
:104E1000099AFCF757FF10B14FF0FF30ACE76FF085
:104E20007F4001210DAACDE900210290C848006809
:104E3000807E0990C648406800780B46089001467D
:104E4000C448099AFCF73EFF10B14FF0FF3093E7DA
:104E50006FF07F4001210DAACDE900210290BC48EE
:104E6000006800790990BA48406800780B460890BD
:104E70000146B848099AFCF725FF10B14FF0FF3002
:104E80007AE70C208DF834006FF07F4001210DAAE5
:104E9000CDE900210290AE48006800790990AC4845
:104EA000406800780B4608900146AA48099AFCF72A
:104EB00009FF10B14FF0FF305EE70F20FCF7A8FAB2
:104EC000A348806A407A8DF834006FF07F4001215A
:104ED0000DAACDE9002102909D48006880780990D4
:104EE0009B48406800780B46089001469948099A0B
:104EF000FCF7E8FE10B14FF0FF303DE79448806AC0
:104F0000007A8DF834006FF07F4001210DAACDE9C1
:104F1000002102908E480068407809908C484068D3
:104F200000780B46089001468A48099AFCF7CAFEA9
:104F300010B14FF0FF301FE7129838B18448806AF3
:104F4000807A40F0E0008DF8340004E08048806A08
:104F5000807A8DF834006FF07F4001210DAACDE9F1
:104F6000002102907A48006880790990784840686A
:104F700000780B46089001467648099AFCF7A2FE95
:104F800010B14FF0FF30F7E6129838B17048806AE0
:104F9000C07A40F0E0008DF8340003E06E48C07A3B
:104FA0008DF834006FF07F4001210DAACDE900217A
:104FB000029067480068C0790990654840680078A9
:104FC0000B46089001466348099AFCF77BFE10B136
:104FD0004FF0FF30D0E6129810B1C820FCF718FA55
:104FE00040208DF834006FF07F4001210DAACDE9FB
:104FF00000210290564800680079099054484068A2
:1050000000780B46089001465248099AFCF75AFE70
:1050100010B14FF0FF30AFE678208DF834006FF01C
:105020007F4001210DAACDE9002102904848006887
:10503000407909904648406800780B460890014640
:105040004448099AFCF73EFE10B14FF0FF3093E65A
:10505000414880890990FCF7DBF900208DF8340085
:105060006FF07F4001210DAACDE900210290384860
:105070000068407909903648406800780B460890EF
:1050800001463448099AFCF71DFE10B14FF0FF307D
:1050900072E66FF07F4002210DAACDE90021029057
:1050A0002B480068007B099029484068007801235C
:1050B000089001462748099AFCF74AFC10B14FF0C6
:1050C000FF3059E69DF835009DF8341040EA012084
:1050D0000A900C210A9890FBF1F0C0B20C900021CC
:1050E000109881601098416010980160119881605B
:1050F000119841601198016000200B9083E06FF0DF
:105100007F400C210DAACDE90021029010480068D3
:10511000407B05900E4840680078012304900146CA
:105120000C48059AFCF714FC10B14FF0FF3023E651
:105130009DF835009DF8341040EA012000B2ADF82A
:1051400020009DF837009DF8361040EA012005E068
:1051500048000020240100205471000800B2ADF87E
:1051600022009DF839009DF8381040EA012000B275
:10517000ADF8240011980068BDF920100144119881
:10518000016011984168BDF9220001441198416005
:1051900011988068BDF924100144119881609DF830
:1051A0003B009DF83A1040EA012000B2ADF818002B
:1051B0009DF83D009DF83C1040EA012000B2ADF89A
:1051C0001A009DF83F109DF83E0041EA002000B211
:1051D000ADF81C0010980068BDF918100144109833
:1051E000016010984068BDF91A10014410984160A0
:1051F00010988168BDF91C000144109881600B98DB
:10520000401CC0B20B90DDE90B018842FFF677AF7E
:1052100051480068079010980068C117090441EAD6
:1052200010410004CDE904010023079AFAF7ADFF0D
:10523000CDE9080100230C9AFAF7A7FF109908603E
:1052400045480068079010984068C117090441EA72
:1052500010410004CDE904010023079AFAF795FFF5
:10526000CDE9080100230C9AFAF78FFF10994860E6
:1052700039480068079010988068C117090441EA0E
:1052800010410004CDE904010023079AFAF77DFFDD
:10529000CDE9080100230C9AFAF777FF109988608E
:1052A0002D484068079011980068C117090441EA29
:1052B00010410004CDE904010023079AFAF765FFC5
:1052C000CDE9080100230C9AFAF75FFF11990860F5
:1052D00021484068079011984068C117090441EAC5
:1052E00010410004CDE904010023079AFAF74DFFAD
:1052F000CDE9080100230C9AFAF747FF119948609D
:1053000015484068079011988068C117090441EA60
:1053100010410004CDE904010023079AFAF735FF94
:10532000CDE9080100230C9AFAF72FFF1199886044
:1053300011988068002806DD11988068A0F58030FB
:105340001199886005E01198806800F58030119906
:105350008860002010E50000547100082DE9FF5F0F
:1053600006460F4600256FF07F40032103AACDE9D2
:10537000002102903D484068017801230D223C48FD
:10538000FCF7E6FA18B1072004B0BDE8F09F9DF8DD
:105390000C0000F01F008DF80C009DF80D0000F0CF
:1053A0001F008DF80D009DF80E0000F01F008DF815
:1053B0000E00002456E056F8240057F82410A0EB05
:1053C000010BBBF1000F01DB594601E0CBF10001FD
:1053D0000846FBF78AF94FF08F410290FAF7BFFFBA
:1053E000814603A8005D68B322490868FBF786F987
:1053F000834659462048FAF7B2FF804604E01F4929
:105400004046FAF77AFF804603A8005D401EC0B20E
:1054100003A908550028F2D141464846FAF79FFFF4
:1054200083464FF07E51FAF762FF82462AF0004B26
:10543000104881695846FBF7B5F912D20120A04007
:1054400005430EE00B4801694846FBF7A1F905D377
:10545000084841694846FBF7A5F902D20120A0405F
:105460000543641C032CA6DB28468DE7480000207A
:10547000240100205471000800B04C4554E3853FDE
:1054800070B50546284600F00FF80446E81C00F009
:105490000BF844EAC00084B2A81D00F005F844EA05
:1054A000801084B2204670BD014691F90020002A88
:1054B00001DD00201EE091F90020002A01DA04201D
:1054C00018E091F90120002A01DD012012E091F994
:1054D0000120002A01DA05200CE091F90220002ABF
:1054E00001DD022006E091F90220002A01DA0620FF
:1054F00000E0072070470000FCF70AFDFEF721F8E6
:10550000FDF728FFFDF70CFFFDF7E0FFFDF7D8FEE4
:10551000FDF7A4FFFDF766FFFDF782FF1E22084995
:105520000848FBF765FDFBF71FFB00F0B5FB00F03B
:1055300033F901F02FFD01E001F032FDFCE700003E
:105540005C020020B000002010B50020084908606F
:105550000849086008490870084908700849087037
:10556000084908700849086001F07EFC10BD000081
:1055700074000020780000207C0000207D000020C6
:105580008400002085000020A00000202DE9F34FBA
:105590008FB000211098017063480088C82802DA93
:1055A00011B0BDE8F08F0027B84600210C910D9195
:1055B0008B4619E0584601F085FD03905B4903983E
:1055C00051F82000C71948F100085949039851F8CB
:1055D0002020DDE90C01101841F10003CDE90C0396
:1055E0000BF101001FFA80FBBBF1C80FE2DBC82200
:1055F000002338464146FAF797FD0446C8220023A7
:10560000DDE90C01FAF790FD81464CF250308442FE
:1056100005D34848844202D8B9F1000F00D1BFE752
:1056200000210A910B91089109918B4632E058466E
:1056300001F048FD03903D49039851F82000001BFC
:1056400002903B49039851F82000A0EB090001901B
:105650000298002802DA0298404200E002980246CE
:10566000DDE90A01101841F10003CDE90A030198B0
:10567000002802DA0198404200E001980246DDE984
:105680000801101841F10003CDE908030BF10100F6
:105690001FFA80FBBBF1C80FC9DBC8220023DDE97C
:1056A0000A01FAF741FD0790C8220023DDE908014D
:1056B000FAF73AFD06900798282801D3069800B912
:1056C0006EE70698A0FB041264234FF0000CA1FBC8
:1056D000030B02FB03B201FB0C21CDE90401079887
:1056E000A0FB095600210846491BB04100DB57E7E3
:1056F0002A463346DDE90401FAF747FD8246BAF14E
:10570000020F0FDDBAF1B80F0CDA0B4911F80A00DD
:10571000552806DB642804DC0F99086001221099E3
:105720000A7000BF00BF3BE7800000202409002072
:10573000E402002090D00300727D000896200F49FB
:105740000978C9B10E490968B1B10E4909680C4A16
:105750001268891AB1F5967F0ED900210A4A1160A4
:10576000064A1170094A1170094A1170094900224C
:105770000A604A608A60CA60704700007C000020AE
:10578000A4000020A000002074000020A800002039
:10579000A9000020A40F002008B50020009040219F
:1057A000092000F061FA08B1012008BD3220FBF7A2
:1057B0002FFE6946FF2000F059F808B10120F4E7F8
:1057C0009DF80000152801D00120EEE700210420FB
:1057D00000F04AFA0021052000F046FA00210620D8
:1057E00000F042FA1F21082000F03EFA03210920B0
:1057F00000F03AFA27210A2000F036FA24210C2082
:1058000000F032FA24210D2000F02EFA00210220AF
:1058100000F02AFA0021032000F026FA00200549B2
:1058200008800549088005490880FFF78DFE0020A3
:10583000BBE700007E0000208000002082000020E6
:105840003EB504460D464FF0FF3001230722AE213E
:10585000CDE9004502900448FCF77AF808B1012030
:105860003EBD0020FCE70000780100203EB5044664
:105870000D464FF0FF3001210B462246CDE9005185
:105880000290AE210348FCF763F808B101203EBD49
:105890000020FCE7780100202DE9F041044614B90E
:1058A0000020BDE8F08100252E4600270AE038469A
:1058B00001F008FC084951F82000451946F100069E
:1058C000781C87B2A742F2DB2246002328463146E5
:1058D000FAF72AFCE5E70000240900202DE9F0474B
:1058E000B6B000203590349035A90420FFF7BEFFF4
:1058F00010B136B0BDE8F08734A90620FFF7B6FF37
:1059000000B1F6E79DF8D4009DF8D010401A00F0E1
:105910001F0505B9EDE7202D00DD202505EB45002D
:105920004FEA4008414604A8FFF78AFF00B1E0E7CC
:10593000002460E004EB4400002101EB400004A9D6
:10594000085C000404EB4401012202EB410104AABB
:10595000515C40EA012004EB4401022202EB4101C8
:1059600004AA515C40EA010904EB4400032101EB65
:10597000400004A9085C000404EB4401042202EB8B
:10598000410104AA515C40EA012004EB44010522D4
:1059900002EB410104AA515C40EA0107C9F3110975
:1059A000C7F3110750485149098840F821905048E1
:1059B0004E49098840F821704C480088401C4FF43B
:1059C000C87190FBF1F201FB120048490880494878
:1059D0000088B0F5C87F04DA46480088401C454975
:1059E000088045480088401C43490880384600F03C
:1059F000B5F8601CC4B2AC429CDB3F48008832283A
:105A000000DA76E700203C4908803A480088C82838
:105A100002DA3848008800E0C82082465046FFF786
:105A20003BFF06464CF25030864205D2FFF78CFD14
:105A300032A0FDF743FF5CE7FFF780FE00200390F4
:105A4000029002A903A8FFF7A1FD9DF80800A8B1E4
:105A50003048007830B103222F480399006801F0E4
:105A600023FB00E003982C490860012029490870B5
:105A700000202A4908702A49087011E02748007858
:105A8000082804DA25480078401C24490870234877
:105A90000078082804DB00201F4908601D490870B1
:105AA0002048007888B91B48007870B91C480078F5
:105AB000082804DA1A480078401C19490870184868
:105AC0000078082801DBFFF73FFD124800780090BE
:105AD00014480378104802681348016813A0FDF7C2
