:020000040800F2
:10000000F81800200501000841420008F9380008EE
:100010003D420008D10C0008414B000800000000E0
:100020000000000000000000000000007142000815
:10003000750F0008000000004542000873420008E8
:100040001F0100081F0100081F0100081F01000810
:100050001F0100081F0100081F0100081F01000800
:100060001F0100081F0100081F010008290F0008D8
:100070001F0100081F0100081F0100081F010008E0
:10008000390F00081F0100081F0100081F010008A8
:100090001F0100081F0100081F0100081F010008C0
:1000A0001F0100081F0100081F0100081F010008B0
:1000B0001F0100081F0100081F0100081F010008A0
:1000C0001F0100081F0100081F0100081F01000890
:1000D0001F0100081F010008314B00081F01000824
:1000E0001F0100081F0100081F010008DFF810D0E1
:1000F00000F026FD004800479D780008AFF300801F
:10010000F81800200648804706480047FEE7FEE74B
:10011000FEE7FEE7FEE7FEE7FEE7FEE7FEE7FEE7B7
:10012000FF420008ED0000082DE9F05F05460020C1
:1001300092469B4688460646814640241BE0284658
:1001400041464746224600F051F853465A46C01AE7
:10015000914110D311461846224600F0A3FB2D1AF8
:1001600067EB01084F4622460120002100F09AFB70
:1001700017EB00094E41201EA4F10104DFDC4846C4
:1001800031462A464346BDE8F09F2DE9F041002460
:10019000061B254671F1000605DA01240027D0EB85
:1001A000070067EB0101161E73F1000605DA002750
:1001B000D2EB0702012567EB0303FFF7B5FF864685
:1001C0000E4617469C46AC4204D00025D0EB050EE7
:1001D00065EB010624B10020D2EB000760EB030CB5
:1001E000704631463A466346BDE8F081202A04DB7A
:1001F000203A21FA02F00021704721FA02F3D040A0
:10020000C2F120029140084319467047D2B201E082
:1002100000F8012B491EFBD270470022F6E710B50B
:1002200013460A4604461946FFF7F0FF204610BD64
:10023000421C10F8011B0029FBD1801A704730B511
:1002400004460020034600E05B1C934203D2E05CBE
:10025000CD5C401BF8D030BDF0B480EA0102D40F71
:100260004200B2EB410F02D20246084611464A0054
:1002700042D0C30DDDB2C1F3C752AD1A202D35DA1D
:10028000C1F3160141F4000204B15242C5F1200647
:1002900002FA06F12A411044B3EBD05F23D0C4B177
:1002A000012DA0EBC35009DCF0BC4FF0004202EA84
:1002B000C352DBB200F5000000F01EBB400000F1AD
:1002C000807000EBC350A0F1807040EAD17049000B
:1002D00009E0490841EAC071A0EBC35000F50000F5
:1002E000400800EBC350F0BC00F0FDBA61420122AF
:1002F00002EB4101001BF6E7F0BC704781F00041C2
:10030000AAE780F00040A7E780EA010210B502F0FA
:100310000043400022D04A001FD0010E01EB1261C1
:10032000C0F35600C2F3560240F4000042F400024B
:10033000A0FB022000047F39140400D0401C50EAC6
:10034000124001D44000491EC2B20C0604EBD0108A
:10035000401C4008802A02D003E0002010BD20F09D
:100360000100002900DA0020184310BD30B480EAF3
:10037000010202F0004530F0004221F0004013D0AD
:1003800090B1C30DD40DC2F31601C0F31600E41AE8
:1003900041F4000140F400027D34914201D3641C19
:1003A00000E04900002C02DA30BC002070474FF416
:1003B00000000023914201D3891A034340084FEA09
:1003C0004101F7D151B1914202D14FF0004105E016
:1003D00002D24FF0010101E06FF0010103EBC450C4
:1003E000284430BC00F07FBA2DE9FE4F804681EAF8
:1003F0000300C00F0C46009021F0004123F000459F
:10040000B8EB0200A94105D24046214690461C4661
:100410000B46024623F00040104347D0270DC7F398
:100420000A00C3F30A510290401A019040286BDA87
:10043000C3F3130040F4801B0098924620B10023C0
:10044000D2EB030A63EB0B0B01985946C0F1400253
:10045000504600F027FA06460D4650465946019A86
:1004600000F02FFA10EB08006141002487EA1152D6
:1004700084EAE7731A4340D0009A62B3019A012AD2
:100480004FEA075215DC001B61EB02014FF00042FE
:1004900002EA0752CDE90042001C41F580113246C4
:1004A0002B4600F066FA03B0BDE8F08F40462146C7
:1004B000F9E7001B61EB0201001C41F580130018F5
:1004C0005B412018A2F5001747EB030140EAD57005
:1004D000B6196D4111E06D084FEA360645EAC07560
:1004E0004FEA0752001B61EB0201001C41F580112D
:1004F00049084FEA30000019514132462B4603B0FB
:10050000BDE8F04F00F026BA009801224000002319
:10051000D0EB020263EBE073009821464FEAE074EF
:10052000B8EB000061EB0401E9E783F000435BE70F
:1005300081F0004158E72DE9FE4F81EA030404F001
:10054000004421F0004100944FF0000B23F00043E1
:1005500050EA01045ED052EA03045BD0C3F30A54AC
:10056000C1F30A552C44A4F2F3340194A0FB0254C5
:10057000C1F3130141F48011C3F3130343F4801357
:1005800001FB024400FB034E840A970A44EA8154AB
:1005900047EA8357A4FB076802958D0A05FB078588
:1005A0004FEA932C04FB0C542705029D4FEA065892
:1005B00047EA1637B5EB08056EEB070C870E920E6F
:1005C00047EA811742EA8312A7FB0201B6EB0B014F
:1005D00064EB00042B0D43EA0C335E1844EB1C5013
:1005E000DA465146E7FB0201C5F313044FEA0B3329
:1005F00043EA14534FEA0432019C43EA0603A4F190
:100600000C040294009CCDE900B400F0B2F903B0F0
:10061000BDE8F08F00200146F9E72DE9F04D81EAB1
:10062000030404F0004B21F0004514464FF0000A8B
:1006300023F0004150EA050220D054EA01021DD007
:10064000C5F30A570246C5F31303C1F31300C1F300
:100650000A5640F4801543F48013A7EB0608101BDC
:10066000D64608F2FD3873EB050002D308F1010805
:1006700001E092185B41B8F1000F03DA0020014657
:10068000BDE8F08D00204FF48011064684460EE050
:10069000171B73EB050705D3121B63EB050306431A
:1006A0004CEA010C49084FEA300092185B4150EACD
:1006B0000107EDD152EA030012D082EA040083EA76
:1006C0000501084305D0101BAB4106D201220023CF
:1006D00006E000224FF0004302E06FF001025310E9
:1006E0001AEB06004CEB085110EB0A0041EB0B0132
:1006F000BDE8F04D00F02EB9C10F80EAE07008446B
:10070000CA079623002100F0F7B89623002211466D
:1007100000F0F2B80EB5C10F80EAE0700844CA07D5
:10072000002140F233438DE80E000A460B4600F0EC
:1007300020F903B000BD00F0004220F00040C10DE0
:10074000C0F3160040F400007F2901DA0020704752
:10075000962903DCC1F19601C84001E09639884032
:10076000002AF4D04042704720F00040C10DC0F391
:10077000160040F400007F2901DA00207047962916
:1007800003DCC1F19601C840704796398840704734
:10079000C1F30A5210B5C1F3130140F2FF3341F423
:1007A00080119A4201DA002010BD40F233439A4290
:1007B000A2F2334203DC5242FFF718FD10BD904015
:1007C00010BD00F0004230F000400AD0C10D01F52C
:1007D0006071C0F3160042EA0151C208400711439C
:1007E000704700200146704730B5041E71F10004C7
:1007F00004DB4FF00044404264EB0101141E73F12E
:10080000000405DB1C464FF00043524263EB040337
:10081000994208BF904230BD01F0004330B421F04E
:10082000004150EA010206D00A0DA2F56072C1F340
:100830001301002A02DC30BC00207047440F44EA58
:10084000C104C100E01830BC00EBC25000F04BB84E
:10085000002801DBC0F10040002901DBC1F10041AB
:1008600081427047002801DBC0F10040002901DB14
:10087000C1F100418842704730B50B460146002067
:100880002022012409E021FA02F59D4205D303FA52
:1008900002F5491B04FA02F52844151EA2F10102D3
:1008A000F1DC30BD202A04DB203A00FA02F10020FE
:1008B00070479140C2F1200320FA03F3194390409E
:1008C0007047202A06DBCB17203A41FA02F043EAB0
:1008D000E07306E041FA02F3D040C2F120029140F9
:1008E0000843194670470029A8BF7047401C4900BB
:1008F00008BF20F00100704710B4B0FA80FC00FA85
:100900000CF050EA010404BF10BC704749B1CCF1AF
:10091000200421FA04F411FA0CF118BF012121433B
:100920000843A3EB0C01CB1D4FEA00614FEA1020F6
:1009300042BF002010BC704700EBC3501044002998
:10094000A4BF10BC7047401C490008BF20F0010044
:1009500010BC704710B5141E73F1000408DA401C77
:1009600041F1000192185B411A4301D120F00100CE
:1009700010BD2DE9F04D92469B4611B1B1FA81F2BE
:1009800002E0B0FA80F220329046FFF78BFF044677
:100990000F4640EA0A0041EA0B0153465A46084313
:1009A00013D0114653EA010019D0C8F14002504655
:1009B000FFF71CFC05460E46504659464246FFF7D7
:1009C00071FF084305D0012004E020463946BDE808
:1009D000F08D0020054346EAE0762C4337430A9821
:1009E0006305E40AA0EB08000022FD0A44EA47542C
:1009F0000A3002D500200146E9E7010510196941D6
:100A0000DDE9084500196941BDE8F04DA2E770B580
:100A100021F0004303430CD0C1F30A550024D5EB69
:100A2000040564EB0403D617AD1AB34102DB0020C2
:100A3000014670BD201841EB025170BD2DE9F04D0B
:100A400000231A461B1A8A4103DB00200146BDE839
:100A5000F08DC1F30A52C1F3130141F480154FF038
:100A6000000BD10702D100186D41521E0027044629
:100A700040F2FF11384601EB620A3E4680460246CC
:100A800000204FF48011FFF7B1FBC2197141BB1870
:100A900046EB0100B4EB030C75EB000C04D3E41A35
:100AA00065EB000517460E46241908F101006D415B
:100AB00080463428E3DDF91946EB0600091BA841FE
:100AC00003D24FF0FF32134601E0002213461BEB26
:100AD000070046EB0A51BDE8F04DFFF73BBFC1F3FD
:100AE0000A52C1F3130140F2FF3341F480119A42DC
:100AF00002DA00200146704740F233439A42A2F2E4
:100B0000334202DC5242FFF771BBFFF7CBBE00005D
:100B100030B5041E71F1000404DB4FF00044404284
:100B200064EB0101141E73F1000405DB1C464FF059
:100B30000043524263EB04038B4208BF824230BD44
:100B4000064C074D06E0E06840F0010394E807001A
:100B500098471034AC42F6D3FFF7CCFABCB7000884
:100B6000DCB7000870B5044600252068806800F0F6
:100B7000010018B32068806820F0010021688860B7
:100B800001F018F8054613E001F014F8401B0228A4
:100B90000ED92068806800F0010048B1A06A40F0DA
:100BA0001000A062E06A40F00100E062012070BD28
:100BB0002068806800F001000028E5D10020F6E7F9
:100BC00070B505466C6AA06A00F05000E0B9A06AF2
:100BD00040F40070A0622068806800F46020B0F5E6
:100BE000602F0DD1207B58B9A06A20F48070A062DC
:100BF000A06A00F4805018B9A06A40F00100A06219
:100C0000204600F093FA03E0206A016B28468847EB
:100C100070BD70B505466C6AA06A40F04000A062E5
:100C2000E06A40F00400E062204600F081FA70BD06
:100C300070B50446656A284600F079FA70BD000078
:100C400038B504460025002000902068806800F038
:100C5000010078BB2068806840F00100216888604E
:100C6000194800681949B0FBF1F0009002E00098C3
:100C7000401E009000980028F9D100F09BFF054627
:100C800019E000F097FF401B022814D92068806803
:100C900000F0010078B9A06A40F01000A062E06A9C
:100CA00040F00100E06200BF002084F8240000BF93
:100CB000012038BD05E02068806800F001000028B0
:100CC000DFD00020F5E700000C00002040420F00BC
:100CD00000BFFEE71FB50020009001900290039036
:100CE0004FF480700090002001900120029069462E
:100CF000014800F0C1FD1FBD000801401FB50020E4
:100D000000900190029003904FF4807000900120B9
:100D1000019000200290032003906946014800F0F2
:100D2000ABFD1FBD0008014038B500BF27488069F2
:100D300040F00400254988610846806900F00400FD
:100D4000009000BF00BFFFF7D9FF01221102204829
:100D500000F02AFF00224FF480711D4800F024FFAC
:100D6000142000F075FD01221102194800F01CFF4B
:100D70001E2000F001F9FFF7ADFF002404E0601C25
:100D8000C4B2012000F0F8F84FF48071104800F070
:100D900003FF08B1642CF2DB642C01DB012038BDB9
:100DA000002404E0601CC4B2012000F0E5F84FF418
:100DB0008071074800F0F0FE08B9642CF2DB642C67
:100DC00001DB0120EBE70020E9E700000010024012
:100DD000000801402DE9FC4106460F460020009026
:100DE0000190FFF78BFF00224FF480714D4800F017
:100DF000DBFE142000F02CFD01221102494800F016
:100E0000D3FE1E2000F0B8F8FFF764FF002504E0D1
:100E1000681CC5B2012000F0AFF84FF48071414862
:100E200000F0BAFE08B1642DF2DB642D02DB012074
:100E3000BDE8FC81002504E0681CC5B2012000F07B
:100E40009BF84FF48071374800F0A6FE08B9642D76
:100E5000F2DB642D01DB0120EAE7002446E00025F7
:100E600004E0681CC5B2012000F086F84FF48071E0
:100E70002C4800F091FE08B1642DF2DB002504E05F
:100E8000681CC5B2012000F077F84FF48071254846
:100E900000F082FE08B9642DF2DB282000F06CF827
:100EA000E11704EB5171C9101DF801104906090E34
:100EB0002046E21704EB5272D2100DF802104FF4E4
:100EC0008071184800F068FE70B1E11704EB5171B1
:100ED000C9101DF8011041F001012046E21704EB92
:100EE0005272D2100DF80210601CC4B2282CB6DB6E
:100EF0009DF800009DF8011008449DF80210084478
:100F00009DF8031008449DF80410884201D0012088
:100F10008EE79DF8000038709DF8020030700020C8
:100F200086E700000008014010B5024800F040FBD1
:100F300010BD00004C01002010B5024800F038FB45
:100F400010BD00005803002030B590F84050012437
:100F5000AC40C56B6C60046863604468102C04D1BD
:100F60000468A2600468E16003E00468A1600468AA
:100F7000E26030BD7047000070B504464FF6FF7068
:100F8000001B401F85B204EB84004FF47A7101EB23
:100F900080060B4800684562094801F049FF04E0FB
:100FA00007480068406A85B2761E4FF6FA7085429F
:100FB00001DA002EF4D1024801F070FF70BD00008C
:100FC0003802002072B600BFFEE7000038B50246C6
:100FD00000230020009000BF92F82400012801D1D6
:100FE000022038BD012082F8240000BF486807288D
:100FF00012D21068406B0C79641E04EB84051F2428
:10100000AC40A0430D796D1E05EB85050C68AC4026
:1010100020431468606327E048680D2812D21068E6
:10102000006B0C79E41F04EB84051F24AC40A04343
:101030000D79ED1F05EB85050C68AC402043146865
:10104000206311E01068C06A0C790D3C04EB840544
:101050001F24AC40A0430D790D3D05EB85050C68C0
:10106000AC4020431468E06208680A2812D3106874
:10107000C0680C780A3C04EB44050724AC40A0434C
:101080000D780A3D05EB45058C68AC40204314689B
:10109000E0600FE0106800690C7804EB4405072459
:1010A000AC40A0430D7805EB45058C68AC4020436F
:1010B000146820610868102802D00868112827D118
:1010C000174C1068A0421ED11068806800F4000020
:1010D000F0B91068806840F400001468A0600868E7
:1010E000102815D10F4800680F4CB0FBF4F000EB4E
:1010F00080004000009002E00098401E00900098A0
:101100000028F9D104E0906A40F0200090620123A9
:1011100000BF002082F8240000BF184661E70000ED
:10112000002401400C00002040420F00704770472F
:10113000704700002DE9F0410446002700250026F5
:10114000A84614B90120BDE8F081A06810B1207D47
:1011500000B100BFA06A30B90020E06284F824002A
:10116000204600F089F82046FFF7FCFC0746A06AFD
:1011700000F01000002873D1002F71D1A06A20F474
:10118000885040F00200A062E16960680843217B5A
:1011900040EA41000643A068B0F5807F02D0A06815
:1011A000012802D14FF4807000E000200543207D2B
:1011B000012811D1207B38B9A069401E4FF400618D
:1011C00041EA4030054307E0A06A40F02000A062F9
:1011D000E06A40F00100E0622068406820F4694065
:1011E00028432168486020688068214908403043CE
:1011F00021688860A068B0F5807F02D0A0680128CF
:1012000002D14FF4807000E00020B0F5807F03D160
:10121000208A401E4FEA00582068C06A20F47000FF
:1012200040EA08002168C8622068806811490840C7
:10123000B04208D10020E062A06A20F0020040F035
:101240000100A06211E0A06A20F0020040F010004E
:10125000A062E06A40F00100E062012705E0FFE7DC
:10126000A06A40F01000A062012738466BE700003A
:10127000FDF7E1FFFE0E1FFF10B586B0044600200B
:1012800002900390049005902249206888423ED144
:1012900000BF2148806940F400701F4988610846FA
:1012A000806900F40070019000BF00BF00BF0846D5
:1012B000806940F0040088610846806900F00400FD
:1012C000019000BF00BF012002900320039002A9FB
:1012D000124800F0D1FA1248124908600020486014
:1012E0000021104881608021C1608900016189006E
:1012F0004161202181610902C16100F027FA08B132
:10130000FFF760FE00BF07482062446200BF06B0DE
:1013100010BD000000240140001002400008014000
:10132000080002404C0100202DE9F04104460D4622
:101330001646002757492068884203D0564920683E
:10134000884205D15348001D006800F4702000E079
:10135000002000287ED100BF94F82400012802D18B
:101360000220BDE8F081012084F8240000BF20465F
:10137000FFF766FC0746002F6DD1A06A40F60161B9
:10138000884340F48070A06243492068884209D1B4
:101390004048001D006800F4702008B9012002E0F8
:1013A000002000E0012078B1A06A20F48010A06243
:1013B0002068406800F4806000B3A06A20F4005008
:1013C00040F48050A06219E0A06A40F48010A0624E
:1013D00030492068884203D02F492068884205D1CF
:1013E0002C48001D006800F4806000E0002028B157
:1013F000A06A20F4005040F48050A062A06A00F47B
:10140000805020B1E06A20F00600E06201E0002098
:10141000E06200BF002084F8240000BF1F48216A5A
:1014200088621F48216AC8621E48216A08636FF0FB
:101430000200216808602068806840F4807021689C
:101440008860226802F14C0133462A46206A00F087
:10145000B1F901E01AE014E02068806800F460202F
:10146000B0F5602F06D12068806840F4A0002168A4
:1014700088600CE02068806840F4801021688860F3
:1014800005E000BF002084F8240000E00127384672
:1014900067E700000024014000280140C10B00085C
:1014A000310C0008130C00080146002291F82100BD
:1014B000022808D00420886300BF002081F82000A3
:1014C00000BF012070470868006820F00E000B681C
:1014D00018600868006820F001000B68186091F837
:1014E000403001209840CB6B5860012081F82100EA
:1014F00000BF002081F8200000BF1046E2E7000096
:1015000070B50446002594F82100022803D0042079
:10151000A063012548E02068006820F00E002168E3
:1015200008602068006820F00100216808601F49F9
:101530002068884201D1012026E01C49143120682E
:10154000884201D110201FE01849283120688842C4
:1015500001D1801518E015493C312068884201D13D
:10156000801411E0114950312068884202D14FF4B3
:10157000803009E00D4964312068884202D14FF47F
:10158000801001E04FF08070084908394860012060
:1015900084F8210000BF002084F8200000BF606BA9
:1015A00010B12046616B8847284670BD0800024094
:1015B00070B50446E06B05682068066894F8401032
:1015C000042088402840002846D006F00400002867
:1015D00042D02068006800F0200028B92068006828
:1015E00020F004002168086057492068884201D132
:1015F000042027E0544914312068884201D140205A
:1016000020E0514928312068884201D1001519E0B5
:101610004D493C312068884202D14FF4804011E0AE
:10162000494950312068884202D14FF4802009E0B6
:10163000454964312068884202D14FF4800001E0BE
:101640004FF08060404908394860E06A00287AD04D
:101650002046E16A884776E094F8401002208840EE
:101660002840A0B306F0020088B32068006800F0AC
:10167000200040B92068006820F00A002168086056
:10168000012084F8210030492068884201D10220DD
:1016900028E02D4914312068884201D1202021E022
:1016A000294928312068884201D140151AE026498D
:1016B0003C312068884202D14FF4005012E02249A8
:1016C00050312068884203D14FF400300AE017E01F
:1016D0001D4964312068884202D14FF4001001E0B6
:1016E0004FF0007018490839486000BF002084F8A6
:1016F000200000BFA06A30B32046A16A884722E0DC
:1017000094F84010082088402840E0B106F0080016
:10171000C8B12068006820F00E002168086094F8C5
:10172000401001208840E16B48600120A06384F8EC
:10173000210000BF002084F8200000BF206B10B102
:101740002046216B884770BD0800024001460022F8
:1017500009B901207047164B0868C01A1423B0FB62
:10176000F3F08000086412480838C863022081F84A
:1017700021000868026843F6F0708243D1E9010352
:101780001843CB6818430B6918434B6918438B699E
:101790001843CB691843024308680260002088633D
:1017A000012081F82100002081F8200000BFD1E74E
:1017B000080002402DE9F04104460D4616461F463A
:1017C0004FF0000800BF94F82000012802D1022049
:1017D000BDE8F081012084F8200000BF94F82100CA
:1017E00001282CD1022084F821000020A063206869
:1017F000006820F00100216808603B463246294617
:101800002046FFF7A1FBE06A30B12068006840F095
:101810000E00216808600BE02068006820F00400DA
:10182000216808602068006840F00A0021680860AC
:101830002068006840F001002168086006E000BFF1
:10184000002084F8200000BF4FF002084046BFE7A8
:1018500070B5044600F0AEF906462546681C10B186
:1018600004480078054400BF00F0A4F9801BA8429A
:10187000FAD370BD080000202DE9F8470346002286
:1018800094466EE14FF0010808FA02F4D1F80080A6
:1018900008EA0400A0427DD1DFF8DCA2D1F8048080
:1018A000A8EB0A09D0453AD014DCB8F1030F50D0A8
:1018B00009DCB8F1000F31D0B8F1010F1CD0B8F13C
:1018C000020F49D120E0B8F1110F18D0B8F1120F72
:1018D00042D11EE0B9F5881F25D006DCB9F5803F5E
:1018E00020D0B9F5801F37D11AE0B9F5001F18D004
:1018F000B9F5041F30D117E0D1F80CC02DE0D1F8B4
:101900000C8008F1040C28E0D1F80C8008F1080CD8
:1019100023E0D1F80C8008F10C0C1EE000BF00BFE2
:1019200000BF00BF00BF00BFD1F80880B8F1000FB2
:1019300002D14FF0040C0BE0D1F80880B8F1010F90
:1019400003D14FF0080C1C6102E04FF0080C5C6101
:1019500003E04FF0000C00E000BF00BFFF2801D8FB
:10196000984601E003F104084646FF2802D84FEAF2
:10197000820803E0A2F108084FEA88084746D6F833
:1019800000804FF00F0909FA07F928EA09080CFA54
:1019900007F900E088E048EA0908C6F80080D1F8B5
:1019A000048008F08058B8F1805F7DD100BFDFF877
:1019B000CC81D8F8188048F00108DFF8C091C9F848
:1019C0001880C846D8F8188008F00108CDF80080C3
:1019D00000BF00BF4FEAB9384FEA920958F82950C2
:1019E0004FEA82784FEA18794FF00F0808FA09F8A1
:1019F00025EA0805DFF88881434502D14FF0000849
:101A000016E0DFF88081434502D14FF001080FE076
:101A1000DFF87481434502D14FF0020808E0DFF897
:101A20006C81434502D14FF0030801E04FF00408F8
:101A30004FEA82794FEA197908FA09F848EA050568
:101A4000DFF84C814FEA920948F82950D1F8048018
:101A500008F48018B8F5801F0AD1DFF83881D8F86B
:101A6000008048EA0008DFF82C91C9F8008009E0FE
:101A7000DFF82081D8F8008028EA0008DFF8149108
:101A8000C9F80080D1F8048008F40018B8F5001FE8
:101A900010D1DFF8008108F10408D8F8008048EA86
:101AA0000008DFF8F09000E05AE009F10409C9F8F5
:101AB00000800DE0DFF8DC8008F10408D8F8008031
:101AC00028EA0008DFF8CC9009F10409C9F8008081
:101AD000D1F8048008F40038B8F5003F0ED1DFF8E3
:101AE000B480A8F10408D8F8008048EA0008DFF8BC
:101AF000A490A9F10409C9F800800DE0DFF89480F2
:101B0000A8F10408D8F8008028EA0008DFF88490DB
:101B1000A9F10409C9F80080D1F8048008F48038DC
:101B2000B8F5803F0ED1DFF86C80A8F10808D8F82E
:101B3000008048EA0008DFF85C90A9F10809C9F8BC
:101B400000800DE0DFF84C80A8F10808D8F800808C
:101B500028EA0008DFF83C90A9F10809C9F80080DC
:101B6000521CD1F8008028FA02F8B8F1000F7FF477
:101B700089AEBDE8F8870000000011100010024097
:101B800000080140000C0140001001400014014019
:101B90000800014008040140024693680B400BB165
:101BA000012000E0002070470AB1016101E00B0450
:101BB0000361704701480068704700000000002082
:101BC00070B504460CB9012070BD94F83D0028B9E9
:101BD000002084F83C00204600F046FB242084F8D6
:101BE0003D002068006820F001002168086020683E
:101BF000006840F40040216808602068006820F414
:101C000000402168086000F0CDFD05465C49606831
:101C1000884206D85B48854201D2012007E00020B7
:101C200005E05948854201D2012000E0002001284A
:101C300000D1C9E75548B5FBF0F62068406820F0B0
:101C40003F003043216848604D496068884201D8B0
:101C5000701C07E04FF4967070434FF47A71B0FB3C
:101C6000F1F0401C2168096A21F03F010843216816
:101C7000086243496068884214D8681E6168490058
:101C8000B0FBF1F0401CC0F30B00042801D204208B
:101C90003DE0681E61684900B0FBF1F0401CC0F3F4
:101CA0000B0034E0A06838B9681E616801EB41019F
:101CB000B0FBF1F0401C0AE0681E616801EBC10254
:101CC00002EB0111B0FBF1F0401C40F48040C0F386
:101CD0000B0008B901201AE0A06848B9681E6168C5
:101CE00001EB4101B0FBF1F0401CC0F30B000CE034
:101CF000681E616801EBC10202EB0111B0FBF1F05B
:101D0000401CC0F30B0040F4804040F400402168C8
:101D1000C9694CF6FF72914308432168C861D4E950
:101D2000070108432168096821F0C00108432168C0
:101D30000860D4E9031008432168896848F2FF323B
:101D40009143084321688860D4E90501084321686C
:101D5000C96821F0FF0108432168C8602068006855
:101D600040F001002168086000202064202084F8F1
:101D70003D000020206384F83E0000BF24E70000FF
:101D8000A086010080841E0000093D0040420F0033
:101D90002DE9FE4F04460F4690469946DDE90CAB0F
:101DA0000E9E00200290FFF705FF054694F83D00C7
:101DB000202872D119230122CE492046009501F036
:101DC00010FF10B10220BDE8FE8F00BF94F83C0068
:101DD000012801D10220F6E7012084F83C0000BF71
:101DE0002068006800F0010028B92068006840F011
:101DF0000100216808602068006820F40060216804
:101E00000860222084F83D00402084F83E00002035
:101E10002064C4F824A0A4F82AB0608D2085B648B8
:101E2000E0624B46424639462046CDE9006501F066
:101E300085FD08B10120C6E7208D88B900BF0020CC
:101E4000019020684069019020688069019000BF7E
:101E500000BF2068006840F40070216808604BE013
:101E6000208D01281AD12068006820F48060216844
:101E7000086072B600BF00200190206840690190A0
:101E800020688069019000BF00BF2068006840F4AE
:101E900000702168086062B62EE029E1208D0228DA
:101EA00019D12068006840F400602168086072B6AB
:101EB00000BF00200190206840690190206880697F
:101EC000019000BF00BF2068006820F48060216896
:101ED000086062B610E02068006840F48060216805
:101EE000086000BF002001902068406901902068D0
:101EF0008069019000BF00BFEBE0208D03287DD8F2
:101F0000208D012815D12A463146204601F045FF93
:101F100008B1012057E720680069616A0870606AAB
:101F2000401C6062208D401E2085608D401E6085B3
:101F3000CFE0208D02282CD1334600226F49204665
:101F4000009501F04EFE08B101203CE772B6206812
:101F5000006840F400702168086020680069616AC8
:101F60000870606A401C6062208D401E2085608D74
:101F7000401E608562B620680069616A0870606A08
:101F8000401C6062208D401E2085608D401E608553
:101F90009FE03346002259492046009501F021FE7A
:101FA00008B101200FE72068006820F480602168F4
:101FB000086072B620680069616A0870606A401C37
:101FC0006062208D401E2085608D401E60854C48DB
:101FD00000681921B0FBF1F04FF47A71B0FBF1F019
:101FE000C0EBC00000EB8000029000BF0298401ED2
:101FF00002900298A8B90020206300E039E0202078
:1020000084F83D00002084F83E00206C40F0200061
:10201000206462B600BF002084F83C0000BF0120AD
:10202000D1E620684069C0F380000028DED0206837
:10203000006840F400702168086020680069616AE7
:102040000870606A401C6062208D401E2085608D93
:10205000401E608562B620680069616A0870606A27
:10206000401C6062208D401E2085608D401E608572
:102070002FE02A463146204601F08FFE08B10120AC
:10208000A1E620680069616A0870606A401C6062AD
:10209000208D401E2085608D401E6085206840692F
:1020A000C0F38000A8B1208D032805D12068006806
:1020B00020F480602168086020680069616A087007
:1020C000606A401C6062208D401E2085608D401E2D
:1020D0006085208D00287FF410AF202084F83D001B
:1020E000002084F83E0000BF84F83C0000BF6AE690
:1020F000022068E6020010000000FFFF040001005B
:102100000C0000202DE9FC5F04460F4690469946DE
:10211000DDE90CAB0E9EFFF74DFD054694F83D0042
:1021200020287DD1192301224D492046009501F038
:1021300058FD10B10220BDE8FC9F00BF94F83C00A0
:10214000012801D10220F6E7012084F83C0000BFFD
:102150002068006800F0010028B92068006840F09D
:102160000100216808602068006820F40060216890
:102170000860212084F83D00402084F83E000020C3
:102180002064C4F824A0A4F82AB0608D20853548C6
:10219000E0624B46424639462046CDE9006501F0F3
:1021A0007DFC08B10120C6E731E02A4631462046D1
:1021B00001F038FE50B1206C042805D12068006879
:1021C00040F40070216808600120B4E7606A00787C
:1021D00021680861606A401C6062208D401E208575
:1021E000608D401E608520684069C0F3800070B13A
:1021F000208D60B1606A007821680861606A401CC7
:102200006062208D401E2085608D401E6085208D7F
:102210000028CAD12A463146204601F0AFFC00E032
:102220001CE050B1206C042805D12068006840F4FF
:1022300000702168086001207DE72068006840F494
:10224000007021680860202084F83D00002084F898
:102250003E0000BF84F83C0000BF6CE702206AE744
:10226000020010000000FFFF10B586B004460020F9
:1022700002900390049005902B492068884225D154
:1022800000BF2A48806940F0080028498861084654
:10229000806900F00800019000BF00BFC0200290DC
:1022A000122003900320059002A92148FFF7E4FAC9
:1022B00000BF1E48C06940F400101C49C8610846B0
:1022C000C06900F40010019000BF2AE0194920689D
:1022D000884226D100BF1548806940F008001349A4
:1022E00088610846806900F00800019000BF00BFC7
:1022F0004FF440600290122003900320059002A941
:102300000B48FFF7B9FA00BF0848C06940F48000E5
:102310000649C8610846C06900F48000019000BF0A
:1023200000BF06B010BD0000005400400010024085
:10233000000C014000580040034800680349097838
:102340000844014908607047000000200800002090
:1023500010B50848006840F01000064908600320E6
:1023600000F0A8F8002000F007F800F02BF800209B
:1023700010BD00000020024070B504460E480078F1
:102380004FF47A71B1FBF0F00C490968B1FBF0F53C
:10239000284600F091FC08B1012070BD102C07D236
:1023A00000222146501E00F047F80548046001E075
:1023B0000120F2E70020F0E7080000200C000020D8
:1023C0000400002008B500BF1148806940F00100FA
:1023D0000F4988610846806900F00100009000BF45
:1023E00000BF00BF0846C06940F08050C861084681
:1023F000C06900F08050009000BF00BF00BF0549D9
:10240000486820F0E06040F00070486000BF08BD00
:10241000001002400000014001460846002809DB88
:1024200000F01F0301229A4043099B0003F1E023BF
:10243000C3F8002100BF70472DE9F05F80460D46CC
:102440001646002702F0BCFB074639462A463346AB
:1024500001F00700C0F1070ABAF1040F02D94FF0EA
:10246000040A01E0C0F1070AD14600F1040ABAF1FA
:10247000070F02D24FF0000A01E0A0F1030AD44690
:102480004FF0010A0AFA09FAAAF1010A0AEA020A55
:102490000AFA0CFA4FF0010B0BFA0CFBABF1010B33
:1024A0000BEA030B4AEA0B042146404602F090FB7C
:1024B000BDE8F09F00BF00F00702064B19684FF619
:1024C000FF031940044B0B4343EA0221014B1960FF
:1024D00000BF70470CED00E00000FA05F8B50446B7
:1024E00000260025207800F0010000286BD000278E
:1024F0004348C06900F0805070B900BF4048C069CF
:1025000040F080503E49C8610846C06900F08050E4
:10251000009000BF00BF01273A48006800F48070B7
:10252000B0B93848006840F4807036490860FFF759
:1025300041FB064606E0FFF73DFB801B642801D9FE
:102540000320F8BD2F48006800F480700028F2D006
:102550002B48006A00F440752DB3A08800F4407049
:10256000A84220D02648006A20F440750120264960
:102570000860002008602248056205F0010090B163
:10258000FFF718FB064608E0FFF714FB801B41F23B
:102590008831884201D90320D3E71948006A00F046
:1025A00002000028F0D01648006A20F440706168EC
:1025B000084313490862012F04D10846C06920F07E
:1025C0008050C86100BF207800F00200022807D1C7
:1025D0000B48406820F44040A1680843084948601F
:1025E000207800F01000102807D10548406820F43A
:1025F0008000E1680843024948600020A1E700002C
:1026000000100240007000404004424270B5044691
:102610000D460CB9012070BD5A48006800F0070053
:10262000A8420ED25748006820F0070028435549B9
:1026300008600846006800F00700A84201D00120A9
:10264000E9E7207800F0020002281DD1207800F090
:102650000400042805D14C48406840F4E0604A4931
:102660004860207800F00800082805D146484068F6
:1026700040F46050444948604348406820F0F0000E
:10268000A168084340494860207800F0010078B311
:102690006068012806D13C48006800F4003090B919
:1026A0000120B8E76068022806D13748006800F0CA
:1026B000007040B90120AEE73348006800F0020026
:1026C00008B90120A7E73048406820F0030061689E
:1026D00008432D494860FFF76DFA064609E0FFF709
:1026E00069FA801B41F28831884202D9032092E7BF
:1026F00007E02548406800F00C006168B0EB810FEE
:10270000EDD12048006800F00700A8420ED91D480E
:10271000006820F0070028431A490860084600684E
:1027200000F00700A84201D0012074E7207800F0F3
:102730000400042807D11448406820F4E060E168F0
:10274000084311494860207800F00800082808D1A3
:102750000D48406820F46050216940EAC1000A49F0
:10276000486000F03FF808494968C1F30311074A7F
:10277000515CC8400649086006480068FFF7FCFD48
:10278000002048E70020024000100240BAA80008DC
:102790000C00002004000020014800687047000081
:1027A0000C00002000B5FFF7F7FF04494968C1F3AA
:1027B0000221034A515CC84000BD000000100240E5
:1027C000CAA8000800B5FFF7E7FF04494968C1F34C
:1027D000C221034A515CC84000BD00000010024005
:1027E000CAA8000870B500210022002400230020A0
:1027F000134D696801F00C05F5B1042D02D0082DC8
:1028000019D101E00F4819E00F4DC1F38346AB5DCC
:1028100001F4803555B10A4D6D68C5F340450B4E46
:10282000725D084D5D43B5FBF2F402E0084D03FB19
:1028300005F4204602E000BF024800BF00BF70BDA3
:102840000010024000127A00A8A80008B8A80008EA
:1028500000093D00F8B504460CB90120F8BD207808
:1028600000F00100002878D0F848406800F00C0023
:1028700004280CD0F548406800F00C00082811D15D
:10288000F248406800F48030B0F5803F0AD1EF484C
:10289000006800F4003000285FD0606800285CD138
:1028A0000120DBE700BF6068B0F5803F06D1E74854
:1028B000006840F48030E549086028E0606858B955
:1028C000E248006820F48030E0490860084600686B
:1028D00020F4802008601AE06068B0F5A02F0BD1CA
:1028E000DA48006840F48020D8490860084600684B
:1028F00040F4803008600AE0D448006820F480305A
:10290000D24908600846006820F48020086000BFB3
:10291000606888B1FFF74EF9054606E0FFF74AF90F
:10292000401B642801D9032098E7C848006800F4D8
:1029300000300028F2D010E0FFF73CF9054606E031
:10294000FFF738F9401B642801D9032086E7BF4808
:10295000006800F400300028F2D1207800F0020076
:10296000022857D1B948406800F00C0050B1B74870
:10297000406800F00C00082818D1B448406800F402
:10298000803098B9B148006800F0020020B1206999
:10299000012801D0012061E7AC48006820F0F80070
:1029A000616940EAC100A949086033E02069E8B1E3
:1029B0000120A7490860FFF7FDF8054606E0FFF78C
:1029C000F9F8401B022801D9032047E79F48006817
:1029D00000F002000028F2D09C48006820F0F800C7
:1029E000616940EAC1009949086013E000209849F4
:1029F0000860FFF7DFF8054606E0FFF7DBF8401B4D
:102A0000022801D9032029E79048006800F002005D
:102A10000028F2D1207800F0080008282DD1A06904
:102A2000B8B101208B490860FFF7C4F8054606E0FD
:102A3000FFF7C0F8401B022801D903200EE78348A6
:102A4000406A00F002000028F2D0012001F0FCFBF7
:102A500013E000207F490860FFF7ACF8054606E068
:102A6000FFF7A8F8401B022801D90320F6E67748B3
:102A7000406A00F002000028F2D1207800F0040043
:102A8000042873D100277148C06900F0805070B9E4
:102A900000BF6E48C06940F080506C49C86108466C
:102AA000C06900F08050009000BF00BF01276A4855
:102AB000006800F48070B0B96748006840F4807026
:102AC00065490860FFF776F8054606E0FFF772F8FB
:102AD000401B642801D90320C0E65F48006800F469
:102AE00080700028F2D000BFE068012806D1574866
:102AF000006A40F001005549086227E0E06858B9D3
:102B00005248006A20F00100504908620846006AF5
:102B100020F00400086219E0E06805280BD14B485A
:102B2000006A40F00400494908620846006A40F023
:102B3000010008620AE04548006A20F001004349AC
:102B400008620846006A20F00400086200BFE068DE
:102B5000A0B1FFF72FF8054609E0FFF72BF8401B5F
:102B600041F28831884202D9032077E622E03748D3
:102B7000006A00F002000028EFD012E0FFF71AF818
:102B8000054608E0FFF716F8401B41F288318842FD
:102B900001D9032062E62D48006A00F002000028F7
:102BA000F0D1012F05D12948C06920F08050274974
:102BB000C86100BFE069C8B32448406800F00C0059
:102BC000082860D0E069022848D100202049086622
:102BD000FEF7F0FF054606E0FEF7ECFF401B02287B
:102BE00001D903203AE61948006800F00070002877
:102BF000F2D1206AB0F5803F07D11448406820F434
:102C00000030A168084311494860D4E9080108432D
:102C10000E49496821F4741108430C4948600120A9
:102C20000B490866FEF7C6FF054607E03DE0FEF7E4
:102C3000C1FF401B022801D903200FE603480068AA
:102C400000F000700028F2D02FE0000000100240D9
:102C500000004242800442420070004000201449BB
:102C60000866FEF7A7FF054606E0FEF7A3FF401B38
:102C7000022801D90320F1E50E48006800F0007039
:102C80000028F2D111E0E069012800D1E6E5094809
:102C9000466806F48031206A814204D106F470113E
:102CA000606A814201D00120D8E50020D6E500000D
:102CB000000042420010024070B504462546681EDE
:102CC000B0F1807F01D301200FE0681E4FF0E021BA
:102CD00048610F214FF0FF3001F07AFF00204FF0E4
:102CE000E021886107200861002070BD30B50246F0
:102CF0000B4600BF92F83C00012801D1022030BDF4
:102D0000012082F83C0000BF022082F83D001068DC
:102D100044681068816824F07004186804431068DF
:102D20004460104D1068A8420BD01068B0F1804F7D
:102D300007D00D4D1068A84203D00C4D1068A84272
:102D400005D121F08001586801431068816001209D
:102D500082F83D0000BF002082F83C0000BF00BFA9
:102D6000CDE70000002C01400004004000080040B6
:102D700010B504460CB9012010BD94F83D0028B9E7
:102D8000002084F83C00204600F026F8022084F859
:102D90003D00211D206801F0B3FA012084F84600AF
:102DA00000BF84F83E0001213F200155402001551D
:102DB0004120015500BF00BF012084F8420043209C
:102DC0000155442001554520015500BF012084F8DC
:102DD0003D000020D0E7000008B5124A016891428A
:102DE0000DD100BF1049896941F400610E4A91611B
:102DF0001146896901F40061009100BF11E00B4A9E
:102E0000016891420DD100BF0749C96941F0020133
:102E1000054AD1611146C96901F00201009100BF64
:102E200000BF08BD002C014000100240000400401B
:102E3000014691F83D00012801D001207047022091
:102E400081F83D00124B086898420BD00868B0F139
:102E5000804F07D00F4B0868984203D00E4B08688C
:102E600098420CD10868806800F00702062A0CD04E
:102E70000868006840F001000B68186005E0086809
:102E8000006840F001000B6818600020D6E70000E1
:102E9000002C01400004004000080040014600BF33
:102EA0000868006A41F21112104050B90868006ABF
:102EB0009210104028B90868006820F001000A68E4
:102EC000106000BF012081F83D00002070472DE90F
:102ED000F04104460D46002700BF94F83C0001284D
:102EE00002D10220BDE8F081012084F83C0000BF3F
:102EF000022084F83D002068866826F0770626F4D4
:102F00007F46206886602868502833D00CDC202853
:102F100050D004DC00284BD0102851D149E0302893
:102F200049D040284CD139E060282DD0702807D0F6
:102F3000B0F5805F03D0B0F5005F41D10DE041E016
:102F4000D5E902136A68206801F02DFA20688668C6
:102F500046F077062068866034E0D5E902136A6897
:102F6000206801F020FA2068806840F480402168E1
:102F7000886027E0EA686968206801F0E5FA502176
:102F8000206801F01BFA1DE0EA686968206801F01A
:102F9000EEFA6021206801F011FA13E0EA6869682E
:102FA000206801F0D1FA4021206801F007FA09E019
:102FB00000BF00BF00BF2968206801F0FFF901E0F1
:102FC000012700BF00BF012084F83D0000BF0020A2
:102FD00084F83C0000BF384684E7000010B586B096
:102FE0000446002002900390049005901349206845
:102FF000884221D100BF1248806940F00800104982
:1030000088610846806900F00800019000BF00BF99
:103010001020029002200390059002A90948FEF7B3
:103020002BFC00BF0849486820F4406040F0E06095
:1030300040F40060486000BF06B010BD00040040CE
:1030400000100240000C0140000001402DE9F04159
:1030500004460D461646002700BF94F83C000128A0
:1030600002D10220BDE8F081012084F83C0000BFBD
:1030700036B1042E1BD0082E31D00C2E5ED145E087
:103080002946206801F0A4F92068806940F0080012
:10309000216888612068806920F0040021688861C7
:1030A00020688069296908432168886148E02946C9
:1030B000206801F0BDF92068806940F40060216853
:1030C00088612068806920F48060216888612068B8
:1030D0008069296940EA01202168886130E0294639
:1030E000206801F0D9F92068C06940F00800216823
:1030F000C8612068C06920F004002168C8612068A8
:10310000C069296908432168C86119E02946206817
:1031100001F0F6F92068C06940F400602168C861D8
:103120002068C06920F480602168C8612068C06997
:10313000296940EA01202168C86101E0012700BF38
:1031400000BF00BF002084F83C0000BF384689E77C
:1031500010B504460CB9012010BD94F83D0028B903
:10316000002084F83C00204600F025F8022084F876
:103170003D00211D206801F0C3F8012084F84600BD
:1031800000BF84F83E0001213F2001554020015539
:103190004120015500BF00BF012084F842004320B8
:1031A0000155442001554520015500BF012084F8F8
:1031B0003D000020D0E7704770B504460D4615B9B4
:1031C00094F83E000BE0042D02D13F20005D06E0A4
:1031D000082D02D14020005D01E04120005D012862
:1031E00001D0012070BD1DB9022084F83E000EE020
:1031F000042D03D102213F20015508E0082D03D101
:1032000002214020015502E0022141200155012206
:103210002946206801F0B6F819492068884201D192
:10322000012000E0002028B12068406C40F40040FC
:10323000216848641249206888420BD02068B0F1A8
:10324000804F07D00F492068884203D00E4920687C
:1032500088420CD12068806800F00706062E0CD04A
:103260002068006840F001002168086005E02068DF
:10327000006840F00100216808600020B2E700000B
:10328000002C01400004004000080040F8B504464E
:103290000D46164694F8420020282DD105B10EB9EE
:1032A0000120F8BD012020630020606332462946DA
:1032B000204601F063FB0746206B012819D100BFAF
:1032C000002000902068006800902068406800900E
:1032D00000BF00BF00BF00BF21680C3151E8001FD4
:1032E00041F0100021680C3141E80002002AF3D1BE
:1032F00000E001273846D4E70220D2E770B5044643
:103300000D462946204604F0C1F970BD70B504464B
:10331000002520684069C0F3C01594F841002128B9
:1033200017D1B5B100BF00BF2168143151E8001FAB
:1033300021F080002168143141E80002002AF3D115
:1033400000BFA06B10B1A06BFEF7AEF8204601F0F5
:1033500006FA20684069C0F3801594F842002228DC
:1033600017D1B5B100BF00BF2168143151E8001F6B
:1033700021F040002168143141E80002002AF3D115
:1033800000BFE06B10B1E06BFEF78EF8204601F055
:10339000A0F9002070BD70472DE9F84F0446206861
:1033A00005682068C668206847694FF00009CA466A
:1033B00005F00F09B9F1000F0AD105F0200038B16E
:1033C00006F0200020B1204601F0DCF9BDE8F88FBE
:1033D000B9F1000F7BD007F0010018B906F4907026
:1033E000002874D005F0010030B106F4807018B1E7
:1033F000606C40F00100606405F0040030B107F03B
:10340000010018B1606C40F00200606405F0020039
:1034100030B107F0010018B1606C40F00400606446
:1034200005F0080048B106F0200010B907F00100CF
:1034300018B1606C40F008006064606C002845D0F2
:1034400005F0200028B106F0200010B1204601F060
:1034500099F920684069C0F3801A606C00F0080098
:1034600010B9BAF1000F2CD0204601F032F92068D3
:10347000406900F0400000B300BF00BF2168143174
:1034800051E8001F21F040002168143141E800029A
:10349000002AF3D100BFE06B50B17748E16B48637D
:1034A000E06BFEF72DF888B1E06B416B88470DE0CB
:1034B0002046FFF770FF09E009E02046FFF76BFFA9
:1034C00004E02046FFF767FF002060647EE7206B82
:1034D000012877D105F01000002873D006F0100005
:1034E0000028FAD000BF00200090206800680090FB
:1034F00020684068009000BF00BF2068406900F06D
:10350000400000285FD0E06B006840681FFA80F838
:10351000B8F1000F55D0A08D404552DDA4F82E80A3
:10352000E06B8069202843D000BF00BF21680C31C8
:1035300051E8001F21F4807021680C3141E800023D
:10354000002AF3D100BF00BF00BF2168143151E849
:10355000001F21F001002168143141E80002002A17
:10356000F3D100BF00BF00BF2168143151E8001F34
:1035700021F040002168143141E80002002AF3D113
:1035800000BF202084F842000020206300BF00BF5D
:1035900021680C3151E8001F21F0100021680C3126
:1035A00041E80002002AF3D100BFE06BFDF77CFF89
:1035B00002206063A08DE28D801A81B22046FFF761
:1035C0009DFE03E742E0A08DE18D401A1FFA80F8CE
:1035D000E08DD0B3B8F1000F37D000BF00BF216835
:1035E0000C3151E8001F21F4907021680C3141E842
:1035F0000002002AF3D100BF00BF00BF21681431D0
:1036000051E8001F21F001002168143141E8000257
:10361000002AF3D100BF202084F84200002020635C
:1036200000BF00BF21680C3151E8001F21F01000DD
:1036300021680C3141E80002002AF3D100BF0220CA
:10364000606341462046FFF759FEBFE605F0800063
:1036500030B106F0800018B1204601F0F3F9B5E66C
:1036600005F0400030B106F0400018B1204601F0EE
:1036700066F8ABE600BFA9E69745000810B504461A
:103680000CB9012010BDA06900B100E000BF94F8A2
:10369000410028B9002084F84000204600F02AF8B4
:1036A000242084F841002068C06820F4005021687C
:1036B000C860204601F0E4F82068006920F49040DA
:1036C000216808612068406920F02A00216848616B
:1036D0002068C06840F400502168C8600020606421
:1036E000202084F8410084F842000020606300BF7D
:1036F000C8E7000010B586B0044600200290039091
:10370000049005904549206888422FD100BF444865
:10371000806940F48040424988610846806900F42D
:103720008040019000BF00BF00BF0846806940F0A4
:10373000040088610846806900F00400019000BF21
:1037400000BF48150290022003900320059002A9B3
:103750003448FEF791F84FF4806002900020039007
:10376000049002A92F48FEF787F854E02E492068FC
:10377000884250D100BF2A48C06940F4003028492F
:10378000C8610846C06900F40030019000BF00BF66
:1037900000BF0846806940F00400886108468069DF
:1037A00000F00400019000BF00BF0420029002203E
:1037B00003900320059002A91A48FEF75DF808203F
:1037C000029000200390049002A91648FEF754F8D6
:1037D000164817490860002048600021144881609D
:1037E0008021C16000210161416181614FF48051FC
:1037F000C161FDF7ABFF08B1FDF7E4FB00BF0C486A
:10380000E063446200BF002211462620FEF714FE4A
:103810002620FEF701FE06B010BD00000038014072
:103820000010024000080140004400406C000240CB
:1038300058030020704770472DE9F84F04460E46A4
:10384000174699464FF0000A94F84100202850D1BD
:1038500006B117B90120BDE8F88F0020606421206F
:1038600084F84100FEF7A6F98246A784E784A068A1
:10387000B0F5805F04D1206910B90025B04602E0A0
:1038800035464FF000081EE05346002280212046B6
:10389000CDF8009001F006F920B1202084F8410015
:1038A0000320D8E745B9B8F80000C0F30800216844
:1038B000486008F1020803E02878216848606D1C20
:1038C000E08C401EE084E08C0028DDD153460022CD
:1038D00040212046CDF8009001F0E4F820B12020EE
:1038E00084F841000320B6E7202084F8410000203E
:1038F000B1E70220AFE7704700BFFEE70146086866
:103900004069C0F38020B0B16FF480600A685061F4
:1039100000200863202081F83D00002081F83E004F
:10392000086C40F00400086400BF002081F83C00EF
:1039300000BF012070470020FCE700002DE9F8439C
:1039400004460F4615469946DDE90886206800685A
:1039500040F48060216808602068006840F480704E
:1039600021680860434600224FF00111204600966E
:1039700000F037F960B12068006800F48070B0F59D
:10398000807F02D14FF4007020640320BDE8F883EB
:1039900007F0FE0021680861334642463E49204652
:1039A00000F07EF908B10120F0E700BF0020009090
:1039B00020684069009020688069009000BF00BFC7
:1039C00032464146204600F02DFA50B1206C0428C2
:1039D00005D12068006840F400702168086001206B
:1039E000D4E7B9F1010F03D1E8B22168086117E00B
:1039F000C5F307202168086132464146204600F0A1
:103A000011FA50B1206C042805D12068006840F4F8
:103A10000070216808600120B8E7E8B221680861F9
:103A200032464146204600F0FDF950B1206C042892
:103A300005D12068006840F400702168086001200A
:103A4000A4E72068006840F480702168086043465D
:103A500000224FF001112046009600F0C2F858B144
:103A60002068006800F48070B0F5807F02D14FF4C8
:103A700000702064032089E7F8B240F0010021685B
:103A80000861334642460449204600F009F908B16E
:103A900001207BE7002079E7020001002DE9F843CF
:103AA0000446884615469946DDE90867206800689F
:103AB00040F4807021680860334600224FF0011105
:103AC0002046009700F08DF860B12068006800F48F
:103AD0008070B0F5807F02D14FF400702064032025
:103AE000BDE8F88308F0FE00216808613B463246D5
:103AF0002149204600F0D4F808B10120F0E700BFCA
:103B00000020009020684069009020688069009043
:103B100000BF00BF3A463146204600F083F950B15D
:103B2000206C042805D12068006840F400702168EA
:103B300008600120D4E7B9F1010F03D1E8B2216890
:103B4000086117E0C5F30720216808613A4631464D
:103B5000204600F067F950B1206C042805D1206898
:103B6000006840F40070216808600120B8E7E8B2FE
:103B7000216808610020B3E70200010070B5044627
:103B80000D46164625E02046FFF7B8FE08B1012095
:103B900070BD681CE8B1FEF70DF8801BA84200D884
:103BA000BDB920684069C0F3800090B9002020634F
:103BB000202084F83D00002084F83E00206C40F076
:103BC0002000206400BF002084F83C0000BF0120DA
:103BD000DEE720684069C0F380000028D3D00020D1
:103BE000D6E72DE9F04104460D4617461E46DDF89E
:103BF000188038E0701CA8B3FDF7DCFFA0EB0800CC
:103C0000B04200D876BBC5F3074001280AD120682E
:103C10004069A9B20840A9B2884201D101200BE055
:103C2000002009E020688069A9B20840A9B2884252
:103C300001D1012000E00020B84214D1002020630F
:103C4000202084F83D00002084F83E00206C40F0E5
:103C50002000206400BF002084F83C0000BF012049
:103C6000BDE8F081FFE7C5F3074001280AD12068CD
:103C70004069A9B20840A9B2884201D101200BE0F5
:103C8000002009E020688069A9B20840A9B28842F2
:103C900001D1012000E00020B842ABD00020DFE7D6
:103CA0002DE9F04104460D4616461F4658E02068AF
:103CB0004069C0F38020E8B12068006840F40070DB
:103CC000216808606FF480602168486100202063EB
:103CD000202084F83D00002084F83E00206C40F055
:103CE0000400206400BF002084F83C0000BF0120D5
:103CF000BDE8F081701C90B3FDF75CFFC01BB042C3
:103D000000D866BBC5F3074001280AD12068406986
:103D1000A9B20840A9B2884201D101200BE00020DD
:103D200009E020688069A9B20840A9B2884201D19F
:103D3000012000E0002090B900202063202084F8BA
:103D40003D00002084F83E00206C40F020002064FC
:103D500000BF002084F83C0000BF0120C8E7FFE757
:103D6000C5F3074001280AD120684069A9B208407C
:103D7000A9B2884201D101200BE0002009E02068AF
:103D80008069A9B20840A9B2884201D1012000E0AF
:103D9000002000288BD00020AAE770B504460D460D
:103DA000164637E020684069C0F30010A0B16FF0FC
:103DB00010002168486100202063202084F83D0025
:103DC000002084F83E00206C206400BF002084F8AE
:103DD0003C0000BF012070BDFDF7ECFE801BA84237
:103DE00000D8BDB920684069C0F3801090B90020A8
:103DF0002063202084F83D00002084F83E00206CE1
:103E000040F02000206400BF002084F83C0000BF88
:103E10000120E0E720684069C0F380100028C1D08D
:103E20000020D8E770B504460D46164625E020462A
:103E3000FFF764FD08B1012070BD681CE8B1FDF713
:103E4000B9FE801BA84200D8BDB920684069C0F304
:103E5000C01090B900202063202084F83D0000208D
:103E600084F83E00206C40F02000206400BF002059
:103E700084F83C0000BF0120DEE720684069C0F301
:103E8000C0100028D3D00020D6E700000EB50020D7
:103E900000900190029013481349086000211248D5
:103EA000816001210173002101754FF46021C1611E
:103EB00000200D49486001210B480161FDF73AF9E6
:103EC00008B1FDF77FF8002000900120019000204C
:103ED000029069460448FDF779F808B1FDF772F8D9
:103EE0000EBD0000002401401C01002008B500BFE9
:103EF0000E48406940F001000C494861084640699D
:103F000000F00100009000BF00BF002211460B200E
:103F1000FEF792FA0B20FEF77FFA002211461020DE
:103F2000FEF78AFA1020FEF777FA08BD001002406B
:103F300000B585B00020019002900390049000BF6E
:103F40003C48806940F020003A4988610846806911
:103F500000F02000009000BF00BF00BF084680694D
:103F600040F0040088610846806900F00400009079
:103F700000BF00BF00BF0846806940F008008861AC
:103F80000846806900F00800009000BF00BF0022D2
:103F90004FF4C4512848FDF707FE00224FF20301F9
:103FA0002648FDF701FE012211022348FDF7FCFD22
:103FB00080200190012002900020039001200490B5
:103FC00001A91D48FDF758FC032001900120029033
:103FD000002003900120049001A91848FDF74CFC33
:103FE0004FF47040019001200290002003900220C5
:103FF000049001A91148FDF73FFC4FF48070019037
:1040000001200290002003900320049001A90A4897
:10401000FDF732FC4FF4C0500190012002900020C7
:1040200003900220049001A90348FDF725FC05B088
:1040300000BD00000010024000080140000C0140DB
:1040400010B50B480B4908600B484860002109482F
:104050008160C1604FF48041016100214161816153
:10406000C1610162FDF7ACFD08B1FCF7ABFF10BD0B
:104070000054004090010020801A060010B50B4843
:104080000B4908600B484860002109488160C16005
:104090004FF480410161002141618161C161016290
:1040A000FDF78EFD08B1FCF78DFF10BD00580040F4
:1040B000E4010020801A060000B587B000200390BC
:1040C00004900590069001900290154815490860EB
:1040D000472048600021134881604FF6FF71C1609E
:1040E0000021016141618161FEF742FE08B1FCF7E8
:1040F00069FF4FF48050039003A90A48FEF7E7FEDA
:1041000008B1FCF75FFF00200190029001A905486B
:10411000FEF7ECFD08B1FCF755FF07B000BD00004D
:10412000002C01403802002000B58DB0002009901D
:104130000A900B900C90079008901C216846FCF7A1
:104140006CF82048204908600020486000211E4883
:10415000816040F60F61C1600021016180218161B1
:10416000FEF706FE08B1FCF72DFF4FF480500990D2
:1041700009A91548FEF7ABFE08B1FCF723FF12486A
:10418000FEF7E6FF08B1FCF71DFF0020079008903E
:1041900007A90D48FEF7AAFD08B1FCF713FF602040
:1041A0000090002001900290049000226946064889
:1041B000FEF74CFF08B1FCF705FF0348FEF70EFFC2
:1041C0000DB000BD000400408002002010B50B4877
:1041D0000B4908604FF4E1304860002108488160D5
:1041E000C16001610C21416100218161C161FFF762
:1041F00045FA08B1FCF7E6FE10BD000000380140AA
:10420000C802002010B50B480B4908604FF4E1309C
:104210004860002108488160C16001610C21416152
:1042200000218161C161FFF729FA08B1FCF7CAFEDC
:1042300010BD0000004400401003002000BFFEE756
:1042400000BFFEE77047000008B508490968C908C3
:104250004FF47A72B1FBF2F14143009100BF00BF0D
:1042600000994A1E00920029F9D108BD0C000020D7
:10427000704710B5FEF760F810BD00B593B0282167
:1042800009A8FBF7CAFF142104A8FBF7C6FF00200A
:1042900000900190029003900120099000040A9080
:1042A00000200B9001200D9002201090C10311916D
:1042B0004FF4E011129109A8FEF7CCFA08B1FCF70F
:1042C00081FE0F20049002200590002006904FF4FC
:1042D0008060079000200890022104A8FEF796F95C
:1042E00008B1FCF76FFE0220009080030290684640
:1042F000FEF7F4F808B1FCF765FE13B000BD704797
:1043000010B502681C4B984208D0B0F1804F05D020
:104310001A4B984202D01A4B984203D122F07002F5
:104320004B681A43144B984208D0B0F1804F05D027
:10433000124B984202D0124B984203D122F44072A1
:10434000CB681A4322F080034C6943EA04020260FE
:104350008B68C3620B688362074B984201D10B697B
:10436000036301234361036903F001031BB1036984
:1043700023F00103036110BD002C01400004004044
:104380000008004030B501F01F05012404FA05F3D0
:10439000046A9C430462046A01F01F0502FA05F5F1
:1043A0002C43046230BD30B50C46816821F47F4156
:1043B00042EA032525432943816030BD0A468168CE
:1043C00021F0700142F0070319438160704700003B
:1043D00030B5026A056A25F0010505624368846903
:1043E00024F0700424F003040D682C4322F0020230
:1043F0008D682A430D4DA84206D100BF22F0080265
:10440000CD682A4322F00402084DA84207D123F4C4
:10441000807323F400734D692B438D692B434360F4
:1044200084614D684563026230BD0000002C01408C
:1044300030B5026A056A25F0100505624368846993
:1044400024F4E04424F440740D6844EA052422F086
:1044500020028D6842EA05120E4DA84207D100BF26
:1044600022F08002CD6842EA051222F04002094D96
:10447000A84209D123F4806323F400634D6943EA21
:1044800085038D6943EA8503436084614D688563D4
:10449000026230BD002C014030B5026A056A25F485
:1044A000807505624368C46924F0700424F0030435
:1044B0000D682C4322F400728D6842EA05220F4DEC
:1044C000A84207D100BF22F40062CD6842EA05226B
:1044D00022F48062094DA84209D123F4805323F4C9
:1044E00000534D6943EA05138D6943EA05134360A0
:1044F000C4614D68C563026230BD0000002C0140FC
:1045000030B5036A056A25F4805505624468C269BE
:1045100022F4E04222F440720D6842EA052223F4BC
:1045200000538D6843EA0533064DA84204D124F4B4
:1045300080444D6944EA85144460C2614D68056455
:10454000036230BD002C014030B50B461446026AB0
:10455000056A25F001050562816921F0F00141EA53
:10456000041122F00A021A438161026230BD30B5A3
:104570000B461446026A056A25F01005056281693A
:1045800021F4704141EA043122F0A00242EA031210
:104590008161026230BD70B505466C6A0020E0851D
:1045A000E0842046FEF7F7FE70BD70B50646002594
:1045B000746A20684069C0F3C01594F8410021284E
:1045C00005D125B10020E084204600F0C8F820681D
:1045D0004069C0F3801594F84200222805D125B126
:1045E0000020E085204600F074F8606C40F0100078
:1045F00060642046FEF7CFFE70BD70B505466C6A5C
:104600002868006800F02000002842D1E08500BF43
:1046100000BF21680C3151E8001F21F4807021682F
:104620000C3141E80002002AF3D100BF00BF00BFF7
:104630002168143151E8001F21F001002168143174
:1046400041E80002002AF3D100BF00BF00BF21688B
:10465000143151E8001F21F040002168143141E875
:104660000002002AF3D100BF202084F84200206B12
:1046700001280ED100BF00BF21680C3151E8001F96
:1046800021F0100021680C3141E80002002AF3D12A
:1046900000BF00206063206B012804D1A18D20465B
:1046A000FEF72CFE02E02046FFF7C4F870BD70B59F
:1046B00005466C6A01206063206B012805D1A08D3E
:1046C00041082046FEF71AFE02E02046FFF7B3F845
:1046D00070BD00BF00BF02680C3252E8002F22F408
:1046E000907102680C3242E80013002BF3D100BF36
:1046F00000BF00BF0268143252E8002F22F001010F
:104700000268143242E80013002BF3D100BF016BA2
:1047100001290ED100BF00BF02680C3252E8002F01
:1047200022F0100102680C3242E80013002BF3D192
:1047300000BF202180F8421000210163704710B5AE
:1047400004462068C06820F040002168C86020202E
:1047500084F841002046FFF7CEF8002010BD00BFCE
:1047600000BF02680C3252E8002F22F0C00102683C
:104770000C3242E80013002BF3D100BF202180F857
:1047800041107047F8B5044694F84200222875D1CC
:10479000A068B0F5805F0CD1206950B90025A66AE9
:1047A00020684068C0F308003080A06A801CA062C6
:1047B00015E0A56A0026A068B0F5805F03D0A06868
:1047C00028B9206918B920684068287004E020687A
:1047D000406800F07F002870A06A401CA062E08D55
:1047E000401E80B2E085002846D12068C06820F0D5
:1047F00020002168C8602068C06820F480702168AB
:10480000C8602068406920F00100216848612020CC
:1048100084F8420000206063206B012826D100202C
:10482000206300BF00BF21680C3151E8001F21F058
:10483000100021680C3141E80002002AF3D100BFCA
:104840002068006800F0100010280AD100BF002086
:10485000009020680068009020684068009000BFC9
:1048600000BFA18D2046FEF749FD02E02046FEF77D
:10487000E1FF0020F8BD01E00020FBE70220F9E79E
:1048800070B504462168096921F44051E26811437A
:10489000226811612269A1681143626941EA020537
:1048A0002168C96841F20C62914329432268D160B2
:1048B0002168496921F44071A2691143226851615C
:1048C0002D4A2168914202D1FDF77CFF01E0FDF7FE
:1048D00069FF00EBC00101EB001162689200B1FBBF
:1048E000F2F100EBC00202EB001263689B00B2FB26
:1048F000F3F26423B2FBF3F202EBC20303EB021206
:10490000A1EB8201322202EB01116422B1FBF2F130
:1049100001F0F00100EBC00202EB001263689B00A3
:10492000B2FBF3F26423B2FBF3F201EB021200EBF1
:10493000C00101EB001163689B00B1FBF3F100EBD8
:10494000C00303EB00136668B600B3FBF6F36426FE
:10495000B3FBF6F303EBC30606EB0313A1EB8301F2
:10496000322303EB01116423B1FBF3F101F00F01DA
:1049700011442268916070BD0038014077B581B064
:10498000044615460298A062A58500206064222096
:1049900084F842002848E16B88622848E16BC862CD
:1049A0002748E16B08630020E16B486302AE326880
:1049B0002368191D2B46E06BFCF7FCFE00BF0020AE
:1049C000009020680068009020684068009000BF58
:1049D00000BF206970B100BF00BF21680C3151E8F1
:1049E000001F41F4807021680C3141E80002002A68
:1049F000F3D100BF00BF00BF2168143151E8001F90
:104A000041F001002168143141E80002002AF3D18D
:104A100000BF00BF00BF2168143151E8001F41F002
:104A200040002168143141E80002002AF3D100BFA0
:104A3000002004B070BD0000FB450008AF46000830
:104A4000AB450008014691F84100212828D188682B
:104A5000B0F5805F0BD1086948B90A6A1088C0F3C5
:104A600008000B685860086A801C086205E00B6A41
:104A7000581C086218780B685860C88C401E80B2B9
:104A8000C88458B90868C06820F080000B68D860F6
:104A90000868C06840F040000B68D860002070478C
:104AA0000220FCE72DE9F84304460D4617469846D8
:104AB000089E31E0701C70B3FDF77CF8A0EB080095
:104AC000B04200D816B90320BDE8F8832068C0685A
:104AD00000F00400F8B1802D1ED0402D1CD02068BD
:104AE0000068C0F3C000B0B100BF00200090206893
:104AF0000068009020684068009000BF00BF20461A
:104B0000FFF7E7FD0820606400BF002084F8400044
:104B100000BF0120D8E7FFE7206800682840A842CE
:104B200001D1012000E00020B842C3D00020CBE733
:104B300010B50248FEF730FC10BD00001003002045
:104B400000BFFEE70FB4054B10B503A9044A029855
:104B500000F0A2F910BC5DF814FB0000B568000875
:104B6000140100200FB47CB50C0009AD01D0611E0A
:104B700000E00021CDE90001064B6A46294608986D
:104B800000F08AF9002C02D0009A002111707CBC40
:104B90005DF814FB9F550008490050EAC12018BF7A
:104BA00004204A0D18BF40F0010040F2FF72B2EB42
:104BB000515F08BF40F00200012808BF0520704780
:104BC00002480068C0F30220704700000CED00E0CE
:104BD00010B5002804DB0A07130E054A135406E03B
:104BE0000A07140E034A00F00F031B1FD45410BD14
:104BF00000E400E018ED00E02DE9F0414F1E00EB6D
:104C0000C7010446D1E9000115461E4637F00602E9
:104C10000DD02A463346FBF78EFC7F1E04EBC703FC
:104C2000D3E90023FBF7E0FB37F00602F1D1022FB6
:104C300025D0042F13D0062F18BFBDE8F0812A46D7
:104C40003346FBF778FCD4E90A23FBF7CDFB2A4671
:104C50003346FBF770FCD4E90823FBF7C5FB2A4673
:104C60003346FBF768FCD4E90623FBF7BDFB2A4675
:104C70003346FBF760FCD4E90423FBF7B5FB2A4677
:104C80003346FBF758FCD4E90223FBF7ADFB2A4679
:104C90003346FBF750FCD4E90023BDE8F041FBF7B5
:104CA000A3BB00000022134610460149FBF7B5BC28
:104CB0000000F03F0122FBF7AABEFBF795BB0022E4
:104CC000134610461146FBF7A8BC40F20132002003
:104CD0004FF0E041FBF79BBE024A00201107FBF7B3
:104CE00096BE000001FDFFFF02E008C8121F08C1C8
:104CF000002AFAD170477047002001E001C1121F5D
:104D0000002AFBD17047000001490860704700008D
:104D1000180100202DE9FF5F82B00021DDE9043099
:104D2000020DDDF840B0034318D044F61050A2F253
:104D3000FF3242431514119801281FD0A5EB0B0038
:104D4000401C5FEA000A4FF000064E4FDFF8389132
:104D5000B046504615D5CAF1000413E0119801245D
:104D60004AA3012801D16FEA0B010298119AC0E908
:104D70000031C0E9024206B0BDE8F09FCBF100006F
:104D8000DFE704460021404A491842EB0450CDE9D0
:104D9000001012E0E00707D032463B464046494645
:104DA000FBF7C9FB8046894632463B46104619460A
:104DB000FBF7C1FB06460F466410002CEAD1DDE983
:104DC0000401DDE90023BAF1000F06DAFBF7B3FBBB
:104DD00042464B46FBF7AFFB05E0FBF71EFC4246A5
:104DE0004B46FBF71AFC04460E460022284BFBF705
:104DF000FBFC03D84FF0FF30014607E00022254BB3
:104E000020463146FBF7F0FAFBF769FE102409E073
:104E1000002C0ADB0A220023FBF786F9039B3032C1
:104E20001A55641E50EA0102F2D1641C039AC4F1BF
:104E300011031444119A012A03D0012208430DD111
:104E40000AE0084304D000204FF0110B119072E7E4
:104E5000A3EB0B056D1E0DE05B4504DD4FF000027A
:104E600005F1010504E003DA4FF00002A5F10105A8
:104E7000002AECD002981199C0E90231C0E900453E
:104E800079E70000000014400000F03F300000000F
:104E90000000F0430000E03F2DE9FF4F95B09A4637
:104EA000884606460025EEE1252877D100242746CE
:104EB000F94A0121039400E0044316F8013F203B26
:104EC00001FA03F01042F7D130782A2811D06FF0A0
:104ED0002F033078A0F13002092A16D8039A44F043
:104EE000020402EB820203EB42021044761C0390A0
:104EF000EFE758F8042B0392002A03DA504244F4F7
:104F00000054039044F00204761C30782E2816D109
:104F100016F8010F44F004042A280DD06FF02F0278
:104F20003078A0F13003092B09D807EB870302EB97
:104F30004303C718761CF3E758F8047B761C3078D7
:104F40006C280FD006DC4C2817D068280DD06A28B2
:104F500014D104E0742810D07A280FD10DE044F465
:104F600000140AE044F4801401E044F44014727820
:104F7000824202D104F58014761C761C30786628B3
:104F80000BD013DC582877D009DC002875D04528D1
:104F9000F6D04628F4D047281AD193E118E06328C8
:104FA00035D0642879D0652812D18BE1702873D070
:104FB00008DC6728F1D069286FD06E280DD06F28E3
:104FC00006D1ACE073282CD0752874D0782853D043
:104FD0005246179990476D1C54E1C4F302500228C1
:104FE00009D003280DD0D8F8001004280DD00D608A
:104FF00008F1040846E1D8F80010EA17C1E90052A8
:10500000F6E7D8F800100D80F2E70D70F0E718F819
:10501000041B8DF8001000208DF80100EB460120E4
:1050200003E058F804BB4FF0FF3061074FF0000178
:1050300002D40DE009F101018946B9420FDA814538
:10504000F8DB1BF809100029F4D108E009F101018F
:1050500089468142FADB1BF809100029F6D1039832
:105060005346A0EB090721463846179A00F080FA0C
:10507000284400EB090507E044E008E10DE01BF8D7
:10508000010B524617999047B9F10109F7D25346DF
:1050900021463846179AF2E039E00A21C4F3025259
:1050A0004FF0000B0091022A06D058F8040BC117EC
:1050B000032A09D00AE023E008F1070020F00702E4
:1050C000F2E80201904605E000B2C117042A01D1BE
:1050D00040B2C117002906DA0A460021404261EBBE
:1050E00002012D2202E0220504D52B228DF8042096
:1050F000012203E0E20701D02022F7E7914657E0C2
:105100000A2100E010214FF0000B00910BE010216C
:105110004FF0000B44F004040827009103E008203E
:105120004FF0000B0090C4F30252022A05D058F849
:10513000040B0021032A08D008E008F1070020F042
:105140000702F2E80201904603E080B2042A00D18F
:10515000C0B24FF0000922072AD53278702A07D052
:10516000DDF800C08CF0100C5CEA0B0C05D00EE0F2
:1051700040228DF80420012208E050EA010306D005
:1051800030238DF804308DF8052002229146009BD3
:1051900083F0080353EA0B030AD150EA010201D15C
:1051A000620705D530228DF804204FF001097F1EDB
:1051B0003278582A04D039A20C920CAA02920BE041
:1051C0003BA2F9E75B46009AFAF7AEFF0C9B9B5CAB
:1051D000029A521E0292137050EA0102F2D1029812
:1051E00004A9081A00F1200B600702D524F48034CA
:1051F00000E001275F4502DDA7EB0B0000E0002087
:1052000000EB0B01009003984944401A0390E0031F
:1052100006D453462146179A039800F0A9F905448D
:10522000002706E001A85246C05D179990476D1C03
:105230007F1C4F45F6DBE0030CD553462146179AF9
:10524000039800F095F9054404E030205246179980
:1052500090476D1C0099481E00900029F5DC08E07D
:105260000298029952460078491C0291179990477A
:105270006D1CBBF10001ABF1010BF1DC5BE100F057
:1052800065F90544761C307800287FF40DAE19B01E
:105290002846BDE8F08F0000092801003031323384
:1052A0003435363738396162636465660000000062
:1052B000303132333435363738394142434445464C
:1052C00000000000600700D4062708F1070020F066
:1052D0000700F0E80223804603F0004C5FEA0C0070
:1052E00001D097A009E0200501D596A005E0E007D0
:1052F00001D095A001E0AFF24C001390307823F07C
:10530000004365280CD006DC452809D046281DD06E
:1053100047287FD13BE0662818D067287AD136E04D
:105320000021112F01DB112000E0781CCDE90001E4
:1053300004A90CA8FFF7EEFCDDE90D010C9A4FF073
:10534000000B07F10109109200914EE04FF0004070
:105350000097CDE9011004A90CA8FFF7DBFCDDE9FB
:105360000D020C9B0F994FF0000B91461093009289
:1053700011B9791C00EB0109B7EB090003D4C0F1A6
:10538000FF3B07F10109A9EB0700019042E0012F63
:1053900000DA01270021112F01DD112000E038463D
:1053A000CDE9000104A90CA8FFF7B4FCDDE90D016B
:1053B0000C9A00914FF0000BB946109221070FD4C0
:1053C000009A4A4503DA914601E0A9F10109B9F1D1
:1053D000010F05DD109AA9F10101515C3029F4D0CB
:1053E000B84202DA10F1040F03DA0121CDE901100D
:1053F00010E0002803DC8344A9EB000102E0411C1B
:10540000494500DD8946A0EB0B00401C01904FF0A0
:1054100000400290200705D40198484502DB4FF078
:10542000FF30019000208DF84B0002980DF14B07E2
:10543000B0F1004F25D002200C902B200D90029847
:1054400000280CDA404202902D200D9007E00A213E
:105450000298FBF711FA3031029007F8011D0C9900
:10546000481E0C900029F2DC02980028EFD1791E2A
:105470000D980870307800F0200040F0450007F8E3
:10548000020D11A8C01BC01D02901398007800B136
:10549000012000EB0901019801EBE0710298014441
:1054A0000398401A401E0390E00306D45346214659
:1054B000179A039800F05CF805441398007818B127
:1054C0005246179990476D1CE00323D55346214659
:1054D000179A039800F04CF805441BE0BBF1000F4D
:1054E00007DB0098584504DD1098179910F80B0059
:1054F00001E0179930205246904701980BF1010BBB
:10550000401E05F10105019004D12E205246179945
:1055100090476D1CB9F10001A9F10109DEDC05E03D
:1055200017F8010B5246179990476D1C0299481EB7
:1055300002900029F4DC53462146179A03989EE610
:105540002D0000002B000000200000002DE9F0419C
:10555000044600251E461746880404D405E0394653
:105560002020B0476D1C641EF9D52846BDE8F081A7
:105570002DE9F041044600251E469046C80301D59A
:10558000302700E02027880404D505E0414638464E
:10559000B0476D1C641EF9D52846BDE8F0814A6805
:1055A000002A06D00A68531C0B6010704868401E21
:1055B000486070472DE9FE4F06460F4600256846B5
:1055C00001F084F9002442E056F8240057F8241032
:1055D000A0EB010ABAF1000F01DB514601E0CAF16C
:1055E00000010846FBF788F883464FF08F41FAF731
:1055F000BDFE80465DF824000021FBF729F916D096
:105600005DF824104046FAF7B1FE82464FF07E5115
:10561000FAF774FE814629F0004A0F48416A504665
:10562000FBF720F912D20120A04005430EE00A4802
:10563000C1694046FBF70CF905D30748016A4046AB
:10564000FBF710F902D20120A0400543641C032C93
:10565000BADB2846BDE8FE8F00A900082DE9F04D11
:105660008D4F21F0004A86B005460C46BA452ADB2C
:10567000AAEB070028430AD08848824501DC1AD1EA
:10568000CDB106B02846BDE8F04DFFF713BB844A04
:10569000844B2846FAF74FFF07460E46824A834B53
:1056A00028462146FAF747FF06B03A463346BDE89A
:1056B000F04DFAF799BE0120FFF726FB06B0BDE8D2
:1056C000F04DFFF7FCBA7A48824542DABAF1795FC9
:1056D0000BDA2846FFF760FA042808BFFFF7FCFA48
:1056E000284606B02146BDE8F08D2A460B461046F6
:1056F000FAF721FF834602466E480E460B46062106
:105700007844FFF779FA5A463346FAF714FF804691
:1057100069488A465A46334604217844FFF76CFAB2
:105720005A463346FAF707FF00223B46FAF75CFE7B
:1057300002460B4640465146FAF76FFF2A4623467B
:10574000FAF7F9FE06B02A462346BDE8F04DFAF70F
:105750004BBE284624F0004100223D463B46FAF766
:10576000E7FE4FF0FF32FBF752F906460246534878
:105770000F460B4606217844FFF73EFA32463B4679
:10578000FAF7D9FECDE900014D4832463B460421E7
:105790007844FFF731FA32463B46FAF7CCFE002256
:1057A0002B46FAF721FE834602913046394605F032
:1057B00039F8804643480D46504517DCDDE90001C5
:1057C0005A46029BFAF729FF42462B46FAF7B3FEE8
:1057D00042462B46FAF708FE0122FBF718F9304A39
:1057E000304BFAF7A2FE304A304B4CE04FF0000A43
:1057F00052460B464046FAF7F7FDCDE903105246F4
:105800002B4610461946FAF796FE32463B46FAF703
:105810008FFEDDE90332FAF700FF06460F46DDE9A9
:1058200000015A46029BFAF7F8FE834600910122D6
:1058300030463946FBF7EBF8194A1A4BFAF778FE6F
:1058400006460F46012240462946FBF7E0F85A4635
:10585000009BFAF770FE32463B46FAF766FE0646B4
:105860000F46012250462946FBF7D1F80E4DDFF8CE
:1058700058802A464346FAF75BFE32463B46FAF723
:1058800057FE2A464346FAF753FE002CD8BF81F054
:10589000004106B0BDE8F08D0000F03F0000F07F51
:1058A000075C143326A6913C182D4454FB21F93F84
:1058B0000000E03FEC5E0000025F0000765E00004A
:1058C0008C5E00003333EF3FFB21E93F2DE9F84FB9
:1058D00004460D4621F0004000917349814211DCDD
:1058E0007249884201DC06D12CB120462946BDE828
:1058F000F84FFFF7DFB96E48002DCCBF6D496E49F8
:10590000BDE8F88F6D49814211DD6D498142D8BFF4
:105910004FF0FF366DDD20462946FFF73DF904289C
:1059200008BFFFF7D9F920462946BDE8F88F654939
:10593000654F25F00045814233DD6449814219DD20
:10594000002632464FF0804320462946FAF74CFDA8
:1059500080468A46012220462946FBF758F8002255
:105960003B46FAF7E2FD42465346FAF756FE044636
:105970000D463EE001260022BA463B462046294617
:10598000FAF732FD80460F4600225346204629464C
:10599000FAF7CBFD42463B46FAF73FFE04460D467A
:1059A00027E04B4981421BDDDFF828A102260022B7
:1059B000534620462946FAF7BEFD00223B46FAF739
:1059C00013FD80460F460022534620462946FAF72B
:1059D000ACFD42463B46FAF720FE04460D4608E081
:1059E000032622462B4600203B49FAF716FE0446C2
:1059F0000D4622462B4610461946FAF79CFD8B466B
:105A0000824602460B46FAF796FD074602463348A1
:105A100088460B4606217844FFF7EEF852465B466F
:105A2000FAF789FD82462E488B463A4643460521C1
:105A30007844FFF7E1F83A464346FAF77CFD024620
:105A40000B46002E504659460CDAFAF7CDFC22469A
:105A50002B46FAF770FD01B022462B46BDE8F04F09
:105A6000FAF766BDFAF7C0FC22462B46FAF763FD4B
:105A70001C4A7A4402EBC603D3E90023FAF755FD2A
:105A800022462B46FAF751FD174A7A4402EBC60329
:105A9000D3E90023FAF74CFD009A002AB8BF81F041
:105AA0000041BDE8F88F0000000010440000F07FC6
:105AB000182D4454FB21F93FFB21F9BF0000DC3FC6
:105AC0000000203E0000F33F0000F03F0000E63FF2
:105AD000008003400000F83F0000F0BF165D0000AA
