:020000040800F2
:10000000A805002005010008112500085723000855
:100010000D250008F5070008C128000800000000B1
:100020000000000000000000000000004125000862
:10003000010A0008000000001525000843250008FB
:100040001F0100081F0100081F0100081F01000810
:100050001F0100081F0100081F0100081F01000800
:100060001F0100081F0100081F010008C509000842
:100070001F0100081F0100081F0100081F010008E0
:100080001F0100081F0100081F0100081F010008D0
:100090001F0100081F0100081F0100081F010008C0
:1000A0001F0100081F0100081F0100081F010008B0
:1000B0001F0100081F0100081F0100081F010008A0
:1000C0001F0100081F0100081F0100081F01000890
:1000D0001F0100081F0100081F0100081F01000880
:1000E0001F0100081F0100081F010008DFF810D0E1
:1000F00000F098FA0048004719320008AFF300807A
:10010000A80500200648804706480047FEE7FEE7AE
:10011000FEE7FEE7FEE7FEE7FEE7FEE7FEE7FEE7B7
:10012000CF250008ED000008202A04DB203A21FA40
:1001300002F00021704721FA02F3D040C2F1200200
:100140009140084319467047D2B201E000F8012BF4
:10015000491EFBD270470022F6E710B513460A4647
:1001600004461946FFF7F0FF204610BD2DE9FE4F6B
:1001700081EA030404F0004421F0004100944FF0B0
:10018000000B23F0004350EA01045ED052EA03045E
:100190005BD0C3F30A54C1F30A552C44A4F2F334E0
:1001A0000194A0FB0254C1F3130141F48011C3F385
:1001B000130343F4801301FB024400FB034E840A43
:1001C000970A44EA815447EA8357A4FB07680295DB
:1001D0008D0A05FB07854FEA932C04FB0C54270579
:1001E000029D4FEA065847EA1637B5EB08056EEB55
:1001F000070C870E920E47EA811742EA8312A7FB8B
:100200000201B6EB0B0164EB00042B0D43EA0C3347
:100210005E1844EB1C50DA465146E7FB0201C5F379
:1002200013044FEA0B3343EA14534FEA0432019CA0
:1002300043EA0603A4F10C040294009CCDE900B447
:1002400000F0CBF803B0BDE8F08F00200146F9E7DD
:100250002DE9F04D81EA030404F0004B21F0004544
:1002600014464FF0000A23F0004150EA050220D066
:1002700054EA01021DD0C5F30A570246C5F3130321
:10028000C1F31300C1F30A5640F4801543F4801300
:10029000A7EB0608101BD64608F2FD3873EB0500E5
:1002A00002D308F1010801E092185B41B8F1000F98
:1002B00003DA00200146BDE8F08D00204FF48011E4
:1002C000064684460EE0171B73EB050705D3121B89
:1002D00063EB050306434CEA010C49084FEA300082
:1002E00092185B4150EA0107EDD152EA030012D0A7
:1002F00082EA040083EA0501084305D0101BAB41E4
:1003000006D20122002306E000224FF0004302E063
:100310006FF0010253101AEB06004CEB085110EB82
:100320000A0041EB0B01BDE8F04D00F047B830B5D5
:100330000B46014600202022012409E021FA02F5A3
:100340009D4205D303FA02F5491B04FA02F528443D
:10035000151EA2F10102F1DC30BD2DE9F05F05466A
:10036000002092469B4688460646814640241BE074
:100370002846414647462246FFF7D6FE53465A4690
:10038000C01A914110D311461846224600F05CF97C
:100390002D1A67EB01084F4622460120002100F08C
:1003A00053F917EB00094E41201EA4F10104DFDCD4
:1003B000484631462A464346BDE8F09F10B5141E14
:1003C00073F1000408DA401C41F1000192185B410E
:1003D0001A4301D120F0010010BD2DE9F04D9246E5
:1003E0009B4611B1B1FA81F202E0B0FA80F22032FC
:1003F000904600F029F904460F4640EA0A0041EA17
:100400000B0153465A46084313D0114653EA0100E4
:1004100019D0C8F140025046FFF786FE05460E4649
:1004200050465946424600F00FF9084305D00120D6
:1004300004E020463946BDE8F08D0020054346EA39
:10044000E0762C4337430A986305E40AA0EB0800E2
:100450000022FD0A44EA47540A3002D50020014632
:10046000E9E7010510196941DDE90845001969410D
:10047000BDE8F04DA2E72DE9FE4F804681EA03007A
:10048000C00F0C46009021F0004123F00045B8EB6E
:100490000200A94105D24046214690461C460B4623
:1004A000024623F00040104347D0270DC7F30A004F
:1004B000C3F30A510290401A019040286BDAC3F34B
:1004C000130040F4801B0098924620B10023D2EB29
:1004D000030A63EB0B0B01985946C0F140025046EA
:1004E00000F0B2F806460D4650465946019A00F013
:1004F000BAF810EB08006141002487EA115284EA3F
:10050000E7731A4340D0009A62B3019A012A4FEA76
:10051000075215DC001B61EB02014FF0004202EABA
:100520000752CDE90042001C41F5801132462B46AE
:10053000FFF753FF03B0BDE8F08F40462146F9E7CF
:10054000001B61EB0201001C41F5801300185B41A8
:100550002018A2F5001747EB030140EAD570B61941
:100560006D4111E06D084FEA360645EAC0754FEA65
:100570000752001B61EB0201001C41F58011490884
:100580004FEA30000019514132462B4603B0BDE816
:10059000F04FFFF713BF0098012240000023D0EB7B
:1005A000020263EBE073009821464FEAE074B8EB77
:1005B000000061EB0401E9E783F000435BE781F0B1
:1005C000004158E7C1F30A52C1F3130140F2FF336F
:1005D00041F480119A4202DA00200146704740F24D
:1005E00033439A42A2F2334202DC5242FFF79CBDEF
:1005F00000F02AB830B5041E71F1000404DB4FF09E
:100600000044404264EB0101141E73F1000405DB59
:100610001C464FF00043524263EB0403994208BF6B
:10062000904230BD064C074D06E0E06840F0010303
:1006300094E8070098471034AC42F6D3FFF75AFD10
:10064000E832000808330008202A04DB203A00FAC8
:1006500002F1002070479140C2F1200320FA03F319
:10066000194390407047202A06DBCB17203A41FA05
:1006700002F043EAE07306E041FA02F3D040C2F12F
:100680002002914008431946704770B50446002582
:100690002068806800F0010018B32068806820F0AE
:1006A00001002168886000F035FF054613E000F086
:1006B00031FF401B02280ED92068806800F001003D
:1006C00048B1A06A40F01000A062E06A40F001006A
:1006D000E062012070BD2068806800F00100002801
:1006E000E5D10020F6E770B505466C6AA06A00F017
:1006F0005000E0B9A06A40F40070A06220688068F1
:1007000000F46020B0F5602F0DD1207B58B9A06AAD
:1007100020F48070A062A06A00F4805018B9A06A2A
:1007200040F00100A062204600F03CFA03E0206A9D
:10073000016B2846884770BD70B505466C6AA06A93
:1007400040F04000A062E06A40F00400E062204611
:1007500000F02AFA70BD70B50446656A284600F0BC
:1007600022FA70BD38B504460025002000902068AC
:10077000806800F0010078BB2068806840F00100CC
:1007800021688860194800681949B0FBF1F00090B1
:1007900002E00098401E009000980028F9D100F077
:1007A000B9FE054619E000F0B5FE401B022814D939
:1007B0002068806800F0010078B9A06A40F010005D
:1007C000A062E06A40F00100E06200BF002084F80F
:1007D000240000BF012038BD05E02068806800F0DB
:1007E00001000028DFD00020F5E700000C00002009
:1007F00040420F0000BFFEE710B500241548006816
:1008000020F00F00134908600846006840F0080017
:10081000086004E0601CC4B2012000F0F3F80E4848
:10082000006808B1642CF5DB642C01DB012010BDED
:10083000002404E0601CC4B2012000F0E3F8064884
:10084000006808B9642CF5DB642C01DB0120EEE7BD
:100850000020ECE7040801402001214200B585B0EA
:100860000020019002900390049000BF114880691D
:1008700040F004000F4988610846806900F00400D8
:10088000009000BF00BF8815019001200290002059
:1008900003900320049001A9074800F0A5FC012261
:1008A0001102054800F030FE00F06CF8FFF7A4FFDD
:1008B00005B000BD001002400008014010B5002442
:1008C00004E0601CC4B2012000F09CF80D480068F0
:1008D00008B1642CF5DB002404E0601CC4B20120E4
:1008E00000F090F80748006808B9642CF5DB282070
:1008F00000F088F80348006808B1012010BD00200E
:10090000FCE700002001214270B50024002506E02C
:100910006006040EFFF7D2FF0443681CC5B2082D21
:10092000F6DB204670BD7CB505460E4600F02AF881
:10093000FFF762FF08BB002405E0FFF7E5FF0DF8B5
:100940000400601CC4B2052CF7DB9DF800009DF884
:10095000011008449DF8021008449DF80310084453
:100960009DF80410884206D19DF8000030709DF873
:100970000200287003E001207CBD0120FCE700207C
:10098000FAE7000010B50C48006820F00F000A4993
:1009900008600846006840F003000860002007492E
:1009A0000860142000F00CFC01200549C1F8A001EA
:1009B0001E2000F027F810BD04080140A0012142CC
:1009C0000000214210B5024800F0AAFA10BD000054
:1009D0005800002030B590F840500124AC40C56B61
:1009E0006C60046863604468102C04D10468A260E1
:1009F0000468E16003E00468A1600468E26030BD5F
:100A00007047000070B504464FF6FF70001B401F92
:100A100085B2094800684562074801F0E9FA03E039
:100A200005480068406A85B24FF6FA708542F7DBE8
:100A3000014801F013FB70BD9C00002072B600BF9E
:100A4000FEE7000038B5024600230020009000BFFA
:100A500092F82400012801D1022038BD012082F83B
:100A6000240000BF4868072812D21068406B0C7938
:100A7000641E04EB84051F24AC40A0430D796D1E59
:100A800005EB85050C68AC4020431468606327E0E3
:100A900048680D2812D21068006B0C79E41F04EB33
:100AA00084051F24AC40A0430D79ED1F05EB85059F
:100AB0000C68AC4020431468206311E01068C06AE1
:100AC0000C790D3C04EB84051F24AC40A0430D7948
:100AD0000D3D05EB85050C68AC4020431468E062D1
:100AE00008680A2812D31068C0680C780A3C04EB26
:100AF00044050724AC40A0430D780A3D05EB4505AD
:100B00008C68AC4020431468E0600FE01068006916
:100B10000C7804EB44050724AC40A0430D7805EBAA
:100B200045058C68AC402043146820610868102893
:100B300002D00868112827D1174C1068A0421ED196
:100B40001068806800F40000F0B91068806840F414
:100B500000001468A0600868102815D10F480068CC
:100B60000F4CB0FBF4F000EB80004000009002E07E
:100B70000098401E009000980028F9D104E0906A87
:100B800040F020009062012300BF002082F8240082
:100B900000BF184661E70000002401400C0000205F
:100BA00040420F0070477047704700002DE9F04148
:100BB0000446002700250026A84614B90120BDE8F8
:100BC000F081A06810B1207D00B100BFA06A30B9EB
:100BD0000020E06284F82400204600F089F82046D6
:100BE000FFF753FD0746A06A00F01000002873D1FC
:100BF000002F71D1A06A20F4885040F00200A0625A
:100C0000E16960680843217B40EA41000643A0682F
:100C1000B0F5807F02D0A068012802D14FF4807027
:100C200000E000200543207D012811D1207B38B948
:100C3000A069401E4FF4006141EA4030054307E0DF
:100C4000A06A40F02000A062E06A40F00100E0628B
:100C50002068406820F46940284321684860206883
:100C6000806821490840304321688860A068B0F559
:100C7000807F02D0A068012802D14FF4807000E08C
:100C80000020B0F5807F03D1208A401E4FEA005833
:100C90002068C06A20F4700040EA08002168C86239
:100CA0002068806811490840B04208D10020E06205
:100CB000A06A20F0020040F00100A06211E0A06AEA
:100CC00020F0020040F01000A062E06A40F0010055
:100CD000E062012705E0FFE7A06A40F01000A06293
:100CE000012738466BE70000FDF7E1FFFE0E1FFF0E
:100CF00010B586B004460020029003900490059041
:100D00002249206888423ED100BF2148806940F4D2
:100D100000701F4988610846806900F400700190E6
:100D200000BF00BF00BF0846806940F00400886132
:100D30000846806900F00400019000BF00BF012058
:100D400002900320039002A9124800F04DFA1248C5
:100D5000124908600020486000211048816080210D
:100D6000C16089000161890041612021816109021E
:100D7000C16100F0A3F908B1FFF760FE00BF0748AA
:100D80002062446200BF06B010BD00000024014094
:100D900000100240000801400800024058000020F6
:100DA0002DE9F04104460D461646002757492068B4
:100DB000884203D056492068884205D15348001D17
:100DC000006800F4702000E0002000287ED100BF01
:100DD00094F82400012802D10220BDE8F08101200E
:100DE00084F8240000BF2046FFF7BCFC0746002F14
:100DF0006DD1A06A40F60161884340F48070A06222
:100E000043492068884209D14048001D006800F429
:100E1000702008B9012002E0002000E0012078B134
:100E2000A06A20F48010A0622068406800F480600E
:100E300000B3A06A20F4005040F48050A06219E092
:100E4000A06A40F48010A06230492068884203D034
:100E50002F492068884205D12C48001D006800F405
:100E6000806000E0002028B1A06A20F4005040F427
:100E70008050A062A06A00F4805020B1E06A20F0A7
:100E80000600E06201E00020E06200BF002084F87C
:100E9000240000BF1F48216A88621F48216AC86277
:100EA0001E48216A08636FF002002168086020680C
:100EB000806840F4807021688860226802F14C01EB
:100EC00033462A46206A00F02DF901E01AE014E0CA
:100ED0002068806800F46020B0F5602F06D120689B
:100EE000806840F4A000216888600CE02068806879
:100EF00040F480102168886005E000BF002084F87D
:100F0000240000E00127384667E700000024014084
:100F100000280140E70600085707000839070008C5
:100F200070B50446E06B05682068066894F84010C8
:100F3000042088402840002846D006F004000028FD
:100F400042D02068006800F0200028B920680068BE
:100F500020F004002168086057492068884201D1C8
:100F6000042027E0544914312068884201D14020F0
:100F700020E0514928312068884201D1001519E04C
:100F80004D493C312068884202D14FF4804011E045
:100F9000494950312068884202D14FF4802009E04D
:100FA000454964312068884202D14FF4800001E055
:100FB0004FF08060404908394860E06A00287AD0E4
:100FC0002046E16A884776E094F840100220884085
:100FD0002840A0B306F0020088B32068006800F043
:100FE000200040B92068006820F00A0021680860ED
:100FF000012084F8210030492068884201D1022074
:1010000028E02D4914312068884201D1202021E0B8
:10101000294928312068884201D140151AE0264923
:101020003C312068884202D14FF4005012E022493E
:1010300050312068884203D14FF400300AE017E0B5
:101040001D4964312068884202D14FF4001001E04C
:101050004FF0007018490839486000BF002084F83C
:10106000200000BFA06A30B32046A16A884722E072
:1010700094F84010082088402840E0B106F00800AD
:10108000C8B12068006820F00E002168086094F85C
:10109000401001208840E16B48600120A06384F883
:1010A000210000BF002084F8200000BF206B10B199
:1010B0002046216B884770BD08000240014600228F
:1010C00009B901207047164B0868C01A1423B0FBF9
:1010D000F3F08000086412480838C863022081F8E1
:1010E00021000868026843F6F0708243D1E90103E9
:1010F0001843CB6818430B6918434B6918438B6935
:101100001843CB69184302430868026000208863D3
:10111000012081F82100002081F8200000BFD1E7E4
:10112000080002402DE9F04104460D4616461F46D0
:101130004FF0000800BF94F82000012802D10220DF
:10114000BDE8F081012084F8200000BF94F8210060
:1011500001282CD1022084F821000020A0632068FF
:10116000006820F00100216808603B4632462946AD
:101170002046FFF72FFCE06A30B12068006840F09D
:101180000E00216808600BE02068006820F0040071
:10119000216808602068006840F00A002168086043
:1011A0002068006840F001002168086006E000BF88
:1011B000002084F8200000BF4FF002084046BFE73F
:1011C00070B5044600F0A6F906462546681C10B125
:1011D00004480078054400BF00F09CF9801BA84239
:1011E000FAD370BD080000202DE9F847034600221D
:1011F00094466EE14FF0010808FA02F4D1F800803D
:1012000008EA0400A0427DD1DFF8DCA2D1F8048016
:10121000A8EB0A09D0453AD014DCB8F1030F50D03E
:1012200009DCB8F1000F31D0B8F1010F1CD0B8F1D2
:10123000020F49D120E0B8F1110F18D0B8F1120F08
:1012400042D11EE0B9F5881F25D006DCB9F5803FF4
:1012500020D0B9F5801F37D11AE0B9F5001F18D09A
:10126000B9F5041F30D117E0D1F80CC02DE0D1F84A
:101270000C8008F1040C28E0D1F80C8008F1080C6F
:1012800023E0D1F80C8008F10C0C1EE000BF00BF79
:1012900000BF00BF00BF00BFD1F80880B8F1000F49
:1012A00002D14FF0040C0BE0D1F80880B8F1010F27
:1012B00003D14FF0080C1C6102E04FF0080C5C6198
:1012C00003E04FF0000C00E000BF00BFFF2801D892
:1012D000984601E003F104084646FF2802D84FEA89
:1012E000820803E0A2F108084FEA88084746D6F8CA
:1012F00000804FF00F0909FA07F928EA09080CFAEB
:1013000007F900E088E048EA0908C6F80080D1F84B
:10131000048008F08058B8F1805F7DD100BFDFF80D
:10132000CC81D8F8188048F00108DFF8C091C9F8DE
:101330001880C846D8F8188008F00108CDF8008059
:1013400000BF00BF4FEAB9384FEA920958F8295058
:101350004FEA82784FEA18794FF00F0808FA09F837
:1013600025EA0805DFF88881434502D14FF00008DF
:1013700016E0DFF88081434502D14FF001080FE00D
:10138000DFF87481434502D14FF0020808E0DFF82E
:101390006C81434502D14FF0030801E04FF004088F
:1013A0004FEA82794FEA197908FA09F848EA0505FF
:1013B000DFF84C814FEA920948F82950D1F80480AF
:1013C00008F48018B8F5801F0AD1DFF83881D8F802
:1013D000008048EA0008DFF82C91C9F8008009E095
:1013E000DFF82081D8F8008028EA0008DFF814919F
:1013F000C9F80080D1F8048008F40018B8F5001F7F
:1014000010D1DFF8008108F10408D8F8008048EA1C
:101410000008DFF8F09000E05AE009F10409C9F88B
:1014200000800DE0DFF8DC8008F10408D8F80080C7
:1014300028EA0008DFF8CC9009F10409C9F8008017
:10144000D1F8048008F40038B8F5003F0ED1DFF879
:10145000B480A8F10408D8F8008048EA0008DFF852
:10146000A490A9F10409C9F800800DE0DFF8948088
:10147000A8F10408D8F8008028EA0008DFF8849072
:10148000A9F10409C9F80080D1F8048008F4803873
:10149000B8F5803F0ED1DFF86C80A8F10808D8F8C5
:1014A000008048EA0008DFF85C90A9F10809C9F853
:1014B00000800DE0DFF84C80A8F10808D8F8008023
:1014C00028EA0008DFF83C90A9F10809C9F8008073
:1014D000521CD1F8008028FA02F8B8F1000F7FF40E
:1014E00089AEBDE8F887000000001110001002402E
:1014F00000080140000C01400010014000140140B0
:1015000008000140080401400AB1016101E00B0438
:101510000361704701480068704700000000002028
:101520000348006803490978084401490860704786
:10153000000000200800002010B50848006840F0B6
:10154000100006490860032000F0A8F8002000F011
:1015500007F800F02BF8002010BD0000002002402A
:1015600070B504460E4800784FF47A71B1FBF0F084
:101570000C490968B1FBF0F5284600F091FC08B170
:10158000012070BD102C07D200222146501E00F011
:1015900047F80548046001E00120F2E70020F0E789
:1015A000080000200C0000200400002008B500BF47
:1015B0001148806940F001000F4988610846806940
:1015C00000F00100009000BF00BF00BF0846C069E6
:1015D00040F08050C8610846C06900F0805000901B
:1015E00000BF00BF00BF0549486820F0E06040F040
:1015F0000070486000BF08BD0010024000000140BC
:1016000001460846002809DB00F01F0301229A402A
:1016100043099B0003F1E023C3F8002100BF70479A
:101620002DE9F05F80460D461646002701F05AF975
:10163000074639462A46334601F00700C0F1070A3B
:10164000BAF1040F02D94FF0040A01E0C0F1070A11
:10165000D14600F1040ABAF1070F02D24FF0000A96
:1016600001E0A0F1030AD4464FF0010A0AFA09FA90
:10167000AAF1010A0AEA020A0AFA0CFA4FF0010B6F
:101680000BFA0CFBABF1010B0BEA030B4AEA0B0460
:101690002146404601F02EF9BDE8F09F00BF00F062
:1016A0000702064B19684FF6FF031940044B0B4322
:1016B00043EA0221014B196000BF70470CED00E0C6
:1016C0000000FA05F8B5044600260025207800F051
:1016D000010000286BD000274348C06900F080500B
:1016E00070B900BF4048C06940F080503E49C861B1
:1016F0000846C06900F08050009000BF00BF01277D
:101700003A48006800F48070B0B93848006840F486
:10171000807036490860FFF7FDFE064606E0FFF7D9
:10172000F9FE801B642801D90320F8BD2F4800680A
:1017300000F480700028F2D02B48006A00F4407555
:101740002DB3A08800F44070A84220D02648006A3B
:1017500020F44075012026490860002008602248D6
:10176000056205F0010090B1FFF7D4FE064608E0DF
:10177000FFF7D0FE801B41F28831884201D9032057
:10178000D3E71948006A00F002000028F0D016489C
:10179000006A20F440706168084313490862012F11
:1017A00004D10846C06920F08050C86100BF20788D
:1017B00000F00200022807D10B48406820F44040A6
:1017C000A168084308494860207800F010001028FC
:1017D00007D10548406820F48000E16808430249C9
:1017E00048600020A1E700000010024000700040A7
:1017F0004004424270B504460D460CB9012070BD4C
:101800005A48006800F00700A8420ED25748006806
:1018100020F007002843554908600846006800F09A
:101820000700A84201D00120E9E7207800F002007B
:1018300002281DD1207800F00400042805D14C486E
:10184000406840F4E0604A494860207800F00800B1
:10185000082805D14648406840F460504449486033
:101860004348406820F0F000A168084340494860C0
:10187000207800F0010078B36068012806D13C4868
:10188000006800F4003090B90120B8E760680228D1
:1018900006D13748006800F0007040B90120AEE77B
:1018A0003348006800F0020008B90120A7E730487B
:1018B000406820F00300616808432D494860FFF745
:1018C00029FE064609E0FFF725FE801B41F288311C
:1018D000884202D9032092E707E02548406800F0DB
:1018E0000C006168B0EB810FEDD12048006800F07A
:1018F0000700A8420ED91D48006820F007002843C1
:101900001A4908600846006800F00700A84201D0A4
:10191000012074E7207800F00400042807D114485F
:10192000406820F4E060E16808431149486020788D
:1019300000F00800082808D10D48406820F46050E5
:10194000216940EAC1000A49486000F03FF80849AF
:101950004968C1F30311074A515CC8400649086051
:1019600006480068FFF7FCFD002048E70020024021
:1019700000100240CE3200080C00002004000020BD
:1019800001480068704700000C00002000B5FFF718
:10199000F7FF04494968C1F30221034A515CC8407A
:1019A00000BD000000100240DE32000800B5FFF765
:1019B000E7FF04494968C1F3C221034A515CC840AA
:1019C00000BD000000100240DE32000870B50021AA
:1019D0000022002400230020134D696801F00C054B
:1019E000F5B1042D02D0082D19D101E00F4819E0FE
:1019F0000F4DC1F38346AB5D01F4803555B10A4DFF
:101A00006D68C5F340450B4E725D084D5D43B5FBF7
:101A1000F2F402E0084D03FB05F4204602E000BFAB
:101A2000024800BF00BF70BD0010024000127A00E3
:101A3000BC320008CC32000800093D00F8B504466D
:101A40000CB90120F8BD207800F00100002878D002
:101A5000F848406800F00C0004280CD0F5484068B5
:101A600000F00C00082811D1F248406800F48030E2
:101A7000B0F5803F0AD1EF48006800F4003000283C
:101A80005FD0606800285CD10120DBE700BF6068A0
:101A9000B0F5803F06D1E748006840F48030E54962
:101AA000086028E0606858B9E248006820F4803097
:101AB000E04908600846006820F4802008601AE0C9
:101AC0006068B0F5A02F0BD1DA48006840F48020A0
:101AD000D84908600846006840F4803008600AE091
:101AE000D448006820F48030D24908600846006875
:101AF00020F48020086000BF606888B1FFF70AFD0D
:101B0000054606E0FFF706FD401B642801D90320C7
:101B100098E7C848006800F400300028F2D010E0D0
:101B2000FFF7F8FC054606E0FFF7F4FC401B6428CD
:101B300001D9032086E7BF48006800F40030002880
:101B4000F2D1207800F00200022857D1B94840684D
:101B500000F00C0050B1B748406800F00C000828B5
:101B600018D1B448406800F4803098B9B148006892
:101B700000F0020020B12069012801D0012061E7B6
:101B8000AC48006820F0F800616940EAC100A9494A
:101B9000086033E02069E8B10120A7490860FFF739
:101BA000B9FC054606E0FFF7B5FC401B022801D949
:101BB000032047E79F48006800F002000028F2D0A9
:101BC0009C48006820F0F800616940EAC10099492A
:101BD000086013E0002098490860FFF79BFC054669
:101BE00006E0FFF797FC401B022801D9032029E7F4
:101BF0009048006800F002000028F2D1207800F040
:101C0000080008282DD1A069B8B101208B490860CF
:101C1000FFF780FC054606E0FFF77CFC401B02282E
:101C200001D903200EE78348406A00F00200002833
:101C3000F2D0012000F070FC13E000207F49086022
:101C4000FFF768FC054606E0FFF764FC401B02282E
:101C500001D90320F6E67748406A00F00200002828
:101C6000F2D1207800F00400042873D100277148D5
:101C7000C06900F0805070B900BF6E48C06940F084
:101C800080506C49C8610846C06900F080500090DF
:101C900000BF00BF01276A48006800F48070B0B937
:101CA0006748006840F4807065490860FFF732FCBF
:101CB000054606E0FFF72EFC401B642801D90320EF
:101CC000C0E65F48006800F480700028F2D000BFD2
:101CD000E068012806D15748006A40F001005549E4
:101CE000086227E0E06858B95248006A20F0010015
:101CF000504908620846006A20F00400086219E0B2
:101D0000E06805280BD14B48006A40F004004949BF
:101D100008620846006A40F0010008620AE045488F
:101D2000006A20F00100434908620846006A20F07A
:101D30000400086200BFE068A0B1FFF7EBFB0546B6
:101D400009E0FFF7E7FB401B41F28831884202D9E6
:101D5000032077E622E03748006A00F002000028FE
:101D6000EFD012E0FFF7D6FB054608E0FFF7D2FB05
:101D7000401B41F28831884201D9032062E62D4898
:101D8000006A00F002000028F0D1012F05D1294897
:101D9000C06920F080502749C86100BFE069C8B31E
:101DA0002448406800F00C00082860D0E069022850
:101DB00048D1002020490866FFF7ACFB054606E045
:101DC000FFF7A8FB401B022801D903203AE6194877
:101DD000006800F000700028F2D1206AB0F5803F62
:101DE00007D11448406820F40030A1680843114925
:101DF0004860D4E9080108430E49496821F4741188
:101E000008430C49486001200B490866FFF782FB34
:101E1000054607E03DE0FFF77DFB401B022801D9A6
:101E200003200FE60348006800F000700028F2D09D
:101E30002FE00000001002400000424280044242B5
:101E400000700040002014490866FFF763FB054658
:101E500006E0FFF75FFB401B022801D90320F1E5F4
:101E60000E48006800F000700028F2D111E0E0692F
:101E7000012800D1E6E50948466806F48031206A69
:101E8000814204D106F47011606A814201D00120C0
:101E9000D8E50020D6E500000000424200100240D4
:101EA00070B504462546681EB0F1807F01D301203D
:101EB0000FE0681E4FF0E02148610F214FF0FF3026
:101EC00000F018FD00204FF0E02188610720086134
:101ED000002070BD30B502460B4600BF92F83C00B2
:101EE000012801D1022030BD012082F83C0000BF52
:101EF000022082F83D00106844681068816824F070
:101F000070041868044310684460104D1068A842BB
:101F10000BD01068B0F1804F07D00D4D1068A8426B
:101F200003D00C4D1068A84205D121F080015868FB
:101F3000014310688160012082F83D0000BF00204D
:101F400082F83C0000BF00BFCDE70000002C01403C
:101F5000000400400008004010B504460CB9012000
:101F600010BD94F83D0028B9002084F83C002046BC
:101F700000F026F8022084F83D00211D206800F0C2
:101F800027FB012084F8460000BF84F83E000121B1
:101F90003F200155402001554120015500BF00BFA1
:101FA000012084F84200432001554420015545207A
:101FB000015500BF012084F83D000020D0E700005B
:101FC00008B5094A016891420DD100BF07498969E6
:101FD00041F40061054A91611146896901F400618B
:101FE000009100BF00BF08BD002C0140001002405E
:101FF000014691F83D00012801D0012070470220E0
:1020000081F83D00124B086898420BD00868B0F187
:10201000804F07D00F4B0868984203D00E4B0868DA
:1020200098420CD10868806800F00702062A0CD09C
:102030000868006840F001000B68186005E0086857
:10204000006840F001000B6818600020D6E700002F
:10205000002C01400004004000080040014600BF81
:102060000868006A41F21112104050B90868006A0D
:102070009210104028B90868006820F001000A6832
:10208000106000BF012081F83D00002070472DE95D
:10209000F04104460D46002700BF94F83C0001289B
:1020A00002D10220BDE8F081012084F83C0000BF8D
:1020B000022084F83D002068866826F0770626F422
:1020C0007F46206886602868502833D00CDC2028A2
:1020D00050D004DC00284BD0102851D149E03028E2
:1020E00049D040284CD139E060282DD0702807D045
:1020F000B0F5805F03D0B0F5005F41D10DE041E065
:10210000D5E902136A68206800F0A4FA206886689E
:1021100046F077062068866034E0D5E902136A68E5
:10212000206800F097FA2068806840F480402168B9
:10213000886027E0EA686968206800F09FFA50210B
:10214000206800F092FA1DE0EA686968206800F0F3
:10215000A8FA6021206800F088FA13E0EA6869684C
:10216000206800F08BFA4021206800F07EFA09E038
:1021700000BF00BF00BF2968206800F076FA01E0C8
:10218000012700BF00BF012084F83D0000BF0020F0
:1021900084F83C0000BF384684E710B504460CB90B
:1021A000012010BDA06900B100E000BF94F841001B
:1021B00028B9002084F84000204600F029F82420A7
:1021C00084F841002068C06820F400502168C8608D
:1021D000204600F0B1FA2068006920F490402168A0
:1021E00008612068406920F02A0021684861206861
:1021F000C06840F400502168C8600020606420205E
:1022000084F8410084F842000020606300BFC8E702
:1022100010B586B00446002002900390049005900B
:102220001A49206888422ED100BF1948806940F4BD
:102230008040174988610846806900F48040019019
:1022400000BF00BF00BF0846806940F004008861FD
:102250000846806900F00400019000BF00BF4815E7
:102260000290022003900320059002A90948FEF77E
:10227000BBFF4FF48060029000200390049002A9FD
:102280000448FEF7B1FF06B010BD00000038014061
:1022900000100240000801402DE9F84F04460E46A8
:1022A000174699464FF0000A94F84100202850D173
:1022B00006B117B90120BDE8F88F00206064212025
:1022C00084F84100FFF726F98246A784E784A068D6
:1022D000B0F5805F04D1206910B90025B04602E056
:1022E00035464FF000081EE053460022802120466C
:1022F000CDF8009000F09EFA20B1202084F8410033
:102300000320D8E745B9B8F80000C0F308002168F9
:10231000486008F1020803E02878216848606D1CD5
:10232000E08C401EE084E08C0028DDD15346002282
:1023300040212046CDF8009000F07CFA20B120200A
:1023400084F841000320B6E7202084F841000020F3
:10235000B1E70220AFE700BFFEE700000EB50020A6
:102360000090019002901348134908600021124820
:10237000816001210173002101754FF46021C16169
:1023800000200D49486001210B480161FEF70EFC59
:1023900008B1FEF753FB00200090012001900020BF
:1023A000029069460448FEF74DFB08B1FEF746FB74
:1023B0000EBD0000002401402800002008B500BF29
:1023C0000A48406940F001000849486108464069F0
:1023D00000F00100009000BF00BF002211460B205A
:1023E000FFF71EF90B20FFF70BF908BD00100240A4
:1023F00000B585B00020019002900390049000BFCA
:102400001648806940F020001449886108468069B8
:1024100000F02000009000BF00BF00BF08468069A8
:1024200040F0040088610846806900F004000090D4
:1024300000BF00BF012289150948FFF765F84FF476
:1024400080700190012002900020039003200490EE
:1024500001A90348FEF7C8FE05B000BD0010024008
:102460000008014000B587B000200390049005905B
:102470000690019002901548154908604720486071
:102480000021134881604FF6FF71C1600021016196
:1024900041618161FFF760FD08B1FEF7CFFA4FF4AB
:1024A0008050039003A90A48FFF7F1FD08B1FEF739
:1024B000C5FA00200190029001A90548FFF70AFD26
:1024C00008B1FEF7BBFA07B000BD0000002C0140C8
:1024D0009C00002010B50B480B4908604FF4E13018
:1024E0004860002108488160C16001610C214161A0
:1024F00000218161C161FFF750FE08B1FEF79EFA2D
:1025000010BD000000380140E400002000BFFEE7DD
:1025100000BFFEE77047000008B508490968C90810
:102520004FF47A72B1FBF2F14143009100BF00BF5A
:1025300000994A1E00920029F9D108BD0C00002024
:10254000704710B5FEF7ECFF10BD00B593B0282121
:1025500009A8FDF700FE142104A8FDF7FCFD0020EA
:1025600000900190029003900120099000040A90CD
:1025700000200B9001200D9002201090C1031191BA
:102580004FF4E011129109A8FFF758FA08B1FEF7CD
:1025900055FA0F20049002200590002006904FF479
:1025A0008060079000200890022104A8FFF722F91C
:1025B00008B1FEF743FA02200090800302906846BB
:1025C000FFF780F808B1FEF739FA13B000BD704785
:1025D00010B502681C4B984208D0B0F1804F05D06E
:1025E0001A4B984202D01A4B984203D122F0700243
:1025F0004B681A43144B984208D0B0F1804F05D075
:10260000124B984202D0124B984203D122F44072EE
:10261000CB681A4322F080034C6943EA040202604B
:102620008B68C3620B688362074B984201D10B69C8
:10263000036301234361036903F001031BB10369D1
:1026400023F00103036110BD002C01400004004091
:102650000008004030B50C46816821F47F4142EA11
:10266000032525432943816030BD0A46816821F056
:10267000700142F0070319438160704730B50B4683
:102680001446026A056A25F001050562816921F098
:10269000F00141EA041122F00A021A438161026248
:1026A00030BD30B50B461446026A056A25F01005A8
:1026B0000562816921F4704141EA043122F0A002EF
:1026C00042EA03128161026230BD00BF00BF0268AE
:1026D0000C3252E8002F22F4907102680C3242E86A
:1026E0000013002BF3D100BF00BF00BF02681432FB
:1026F00052E8002F22F001010268143242E8001370
:10270000002BF3D100BF016B01290ED100BF00BF28
:1027100002680C3252E8002F22F0100102680C32DD
:1027200042E80013002BF3D100BF202180F84210B3
:10273000002101637047000070B5044621680969F3
:1027400021F44051E2681143226811612269A168B5
:102750001143626941EA02052168C96841F20C62CD
:10276000914329432268D1602168496921F440716D
:10277000A2691143226851612D4A2168914202D118
:10278000FFF714F901E0FFF701F900EBC00101EBDD
:10279000001162689200B1FBF2F100EBC00202EBA3
:1027A000001263689B00B2FBF3F26423B2FBF3F206
:1027B00002EBC20303EB0212A1EB8201322202EB15
:1027C00001116422B1FBF2F101F0F00100EBC00253
:1027D00002EB001263689B00B2FBF3F26423B2FBCE
:1027E000F3F201EB021200EBC00101EB0011636890
:1027F0009B00B1FBF3F100EBC00303EB0013666831
:10280000B600B3FBF6F36426B3FBF6F303EBC306A3
:1028100006EB0313A1EB8301322303EB01116423C5
:10282000B1FBF3F101F00F0111442268916070BD1A
:10283000003801402DE9F84304460D4617469846F6
:10284000089E31E0701C70B3FEF764FEA0EB080038
:10285000B04200D816B90320BDE8F8832068C068EC
:1028600000F00400F8B1802D1ED0402D1CD020684F
:102870000068C0F3C000B0B100BF00200090206825
:102880000068009020684068009000BF00BF2046AC
:10289000FFF71BFF0820606400BF002084F84000A1
:1028A00000BF0120D8E7FFE7206800682840A84261
:1028B00001D1012000E00020B842C3D00020CBE7C6
:1028C00000BFFEE70FB4054B10B503A9044A0298F8
:1028D00000F0F6F810BC5DF814FB000001320008AF
:1028E0002400002002480068C0F302207047000066
:1028F0000CED00E010B5002804DB0A07130E054AB2
:10290000135406E00A07140E034A00F00F031B1FBE
:10291000D45410BD00E400E018ED00E002E008C867
:10292000121F08C1002AFAD170477047002001E049
:1029300001C1121F002AFBD1704700002DE9FF5F83
:1029400082B00021DDE90430020DDDF840B0034320
:1029500018D044F61050A2F2FF32424315141198D9
:1029600001281FD0A5EB0B00401C5FEA000A4FF0C6
:1029700000064E4FDFF83891B046504615D5CAF1E3
:10298000000413E0119801244AA3012801D16FEA41
:102990000B010298119AC0E90031C0E9024206B069
:1029A000BDE8F09FCBF10000DFE704460021404A7C
:1029B000491842EB0450CDE9001012E0E00707D0BF
:1029C00032463B4640464946FDF7D0FB80468946A5
:1029D00032463B4610461946FDF7C8FB06460F46F1
:1029E0006410002CEAD1DDE90401DDE90023BAF12D
:1029F000000F06DAFDF7BAFB42464B46FDF7B6FB81
:102A000005E0FDF725FC42464B46FDF721FC044658
:102A10000E460022284BFDF7EDFD03D84FF0FF30A6
:102A2000014607E00022254B20463146FDF723FDF5
:102A3000FDF7C8FD102409E0002C0ADB0A22002360
:102A4000FDF78BFC039B30321A55641E50EA0102DD
:102A5000F2D1641C039AC4F111031444119A012A9F
:102A600003D0012208430DD10AE0084304D000201E
:102A70004FF0110B119072E7A3EB0B056D1E0DE0EB
:102A80005B4504DD4FF0000205F1010504E003DAC7
:102A90004FF00002A5F10105002AECD0029811992F
:102AA000C0E90231C0E9004579E7000000001440A8
:102AB0000000F03F300000000000F0430000E03F65
:102AC0002DE9FF4F95B09A46884606460025EEE16F
:102AD000252877D100242746F94A0121039400E0F4
:102AE000044316F8013F203B01FA03F01042F7D1EE
:102AF00030782A2811D06FF02F033078A0F13002FF
:102B0000092A16D8039A44F0020402EB820203EB6E
:102B100042021044761C0390EFE758F8042B03920E
:102B2000002A03DA504244F40054039044F00204B3
:102B3000761C30782E2816D116F8010F44F00404C4
:102B40002A280DD06FF02F023078A0F13003092B26
:102B500009D807EB870302EB4303C718761CF3E79A
:102B600058F8047B761C30786C280FD006DC4C2893
:102B700017D068280DD06A2814D104E0742810D02A
:102B80007A280FD10DE044F400140AE044F48014D4
:102B900001E044F440147278824202D104F58014BA
:102BA000761C761C307866280BD013DC582877D03A
:102BB00009DC002875D04528F6D04628F4D04728EF
:102BC0001AD193E118E0632835D0642879D06528BC
:102BD00012D18BE1702873D008DC6728F1D0692806
:102BE0006FD06E280DD06F2806D1ACE073282CD0A2
:102BF000752874D0782853D05246179990476D1C89
:102C000054E1C4F30250022809D003280DD0D8F8AB
:102C1000001004280DD00D6008F1040846E1D8F832
:102C20000010EA17C1E90052F6E7D8F800100D804D
:102C3000F2E70D70F0E718F8041B8DF80010002083
:102C40008DF80100EB46012003E058F804BB4FF07B
:102C5000FF3061074FF0000102D40DE009F10101DE
:102C60008946B9420FDA8145F8DB1BF809100029C3
:102C7000F4D108E009F1010189468142FADB1BF831
:102C800009100029F6D103985346A0EB0907214605
:102C90003846179A00F080FA284400EB090507E04F
:102CA00044E008E10DE01BF8010B524617999047EC
:102CB000B9F10109F7D2534621463846179AF2E096
:102CC00039E00A21C4F302524FF0000B0091022AAE
:102CD00006D058F8040BC117032A09D00AE023E0F4
:102CE00008F1070020F00702F2E80201904605E033
:102CF00000B2C117042A01D140B2C117002906DA77
:102D00000A460021404261EB02012D2202E0220529
:102D100004D52B228DF80420012203E0E20701D024
:102D20002022F7E7914657E00A2100E010214FF0FA
:102D3000000B00910BE010214FF0000B44F0040455
:102D40000827009103E008204FF0000B0090C4F327
:102D50000252022A05D058F8040B0021032A08D099
:102D600008E008F1070020F00702F2E802019046AF
:102D700003E080B2042A00D1C0B24FF0000922075C
:102D80002AD53278702A07D0DDF800C08CF0100CFC
:102D90005CEA0B0C05D00EE040228DF804200122E5
:102DA00008E050EA010306D030238DF804308DF896
:102DB000052002229146009B83F0080353EA0B038F
:102DC0000AD150EA010201D1620705D530228DF8FF
:102DD00004204FF001097F1E3278582A04D039A20E
:102DE0000C920CAA02920BE03BA2F9E75B46009A18
:102DF000FDF7B3FA0C9B9B5C029A521E0292137071
:102E000050EA0102F2D1029804A9081A00F1200B3D
:102E1000600702D524F4803400E001275F4502DD1D
:102E2000A7EB0B0000E0002000EB0B0100900398E3
:102E30004944401A0390E00306D453462146179AAA
:102E4000039800F0A9F90544002706E001A85246BE
:102E5000C05D179990476D1C7F1C4F45F6DBE00362
:102E60000CD553462146179A039800F095F905446E
:102E700004E030205246179990476D1C0099481E77
:102E800000900029F5DC08E002980299524600788B
:102E9000491C0291179990476D1CBBF10001ABF1E1
:102EA000010BF1DC5BE100F065F90544761C30783C
:102EB00000287FF40DAE19B02846BDE8F08F000061
:102EC0000928010030313233343536373839616200
:102ED00063646566000000003031323334353637C4
:102EE000383941424344454600000000600700D4A1
:102EF000062708F1070020F00700F0E802238046CB
:102F000003F0004C5FEA0C0001D097A009E0200517
:102F100001D596A005E0E00701D095A001E0AFF251
:102F20004C001390307823F0004365280CD006DC69
:102F3000452809D046281DD047287FD13BE0662888
:102F400018D067287AD136E00021112F01DB11203B
:102F500000E0781CCDE9000104A90CA8FFF7EEFC05
:102F6000DDE90D010C9A4FF0000B07F101091092F9
:102F700000914EE04FF000400097CDE9011004A908
:102F80000CA8FFF7DBFCDDE90D020C9B0F994FF05D
:102F9000000B91461093009211B9791C00EB0109C6
:102FA000B7EB090003D4C0F1FF3B07F10109A9EB1E
:102FB0000700019042E0012F00DA01270021112FC4
:102FC00001DD112000E03846CDE9000104A90CA87C
:102FD000FFF7B4FCDDE90D010C9A00914FF0000BF6
:102FE000B946109221070FD4009A4A4503DA914658
:102FF00001E0A9F10109B9F1010F05DD109AA9F16C
:103000000101515C3029F4D0B84202DA10F1040F0A
:1030100003DA0121CDE9011010E0002803DC83442C
:10302000A9EB000102E0411C494500DD8946A0EB07
:103030000B00401C01904FF000400290200705D487
:103040000198484502DB4FF0FF30019000208DF8D9
:103050004B0002980DF14B07B0F1004F25D0022034
:103060000C902B200D90029800280CDA4042029020
:103070002D200D9007E00A210298FDF758F9303114
:10308000029007F8011D0C99481E0C900029F2DCF3
:1030900002980028EFD1791E0D980870307800F062
:1030A000200040F0450007F8020D11A8C01BC01D0C
:1030B00002901398007800B1012000EB09010198FB
:1030C00001EBE071029801440398401A401E0390FE
:1030D000E00306D453462146179A039800F05CF8A3
:1030E00005441398007818B15246179990476D1C03
:1030F000E00323D553462146179A039800F04CF875
:1031000005441BE0BBF1000F07DB0098584504DDC8
:103110001098179910F80B0001E0179930205246CB
:10312000904701980BF1010B401E05F1010501903C
:1031300004D12E205246179990476D1CB9F1000119
:10314000A9F10109DEDC05E017F8010B52461799D9
:1031500090476D1C0299481E02900029F4DC5346EA
:103160002146179A03989EE62D0000002B000000D0
:10317000200000002DE9F041044600251E461746B8
:10318000880404D405E039462020B0476D1C641E35
:10319000F9D52846BDE8F0812DE9F0410446002527
:1031A0001E469046C80301D5302700E0202788043A
:1031B00004D505E041463846B0476D1C641EF9D57C
:1031C0002846BDE8F081000010B506490648FDF725
:1031D000AAFB044802780448017804A0FFF772FBB8
:1031E00010BD0000200000202100002074656D70DB
:1031F0003A25642C68756D693A25640D0A00000053
:1032000013B50C460A23012269460248FFF744F829
:1032100000981CBDE4000020FEF78EF9FFF795F939
:10322000FFF7E6F8FFF7CAF8FFF754F9FFF796F84B
:10323000FFF718F91E2206490648FDF7B1FDFDF714
:103240000DFB00F009F801E000F00CF8FCE70000CD
:103250002C0100202800002001200149087070473F
:103260001000002070B500241EE0FEF753F905465B
:1032700004EB44000F4901EB8000806804EB44013B
:103280000C4A02EB810149680844A8420AD804EBC1
:103290004400114601EB8000856004EB440152F8C4
:1032A00021008047601CC4B2034800788442DCDB04
:1032B00070BD00001400002010000020020304056F
:1032C000060708090A0B0C0D0E0F10100102000072
:1032D00000000000000001020304060708090000C6
:1032E0000000010203040000083300080000002071
:1032F000280000001C2900083033000828000020A6
:10330000800500002C2900080000000010000000CB
:103310000100000000127A0000000000C93100081E
:10332000E8030000000000000000000000000000B2
:04000005080000ED02
:00000001FF
