:020000040800F2
:10000000D005002005010008052900084B2700083D
:1000100001290008510B0008B52C00080000000061
:10002000000000000000000000000000352900086A
:10003000E50D000800000000092900083729000824
:100040001F0100081F0100081F0100081F01000810
:100050001F0100081F0100081F0100081F01000800
:100060001F0100081F0100081F010008A90D00085A
:100070001F0100081F0100081F0100081F010008E0
:100080001F0100081F0100081F0100081F010008D0
:100090001F0100081F0100081F0100081F010008C0
:1000A0001F0100081F0100081F0100081F010008B0
:1000B0001F0100081F0100081F0100081F010008A0
:1000C0001F0100081F0100081F0100081F01000890
:1000D0001F0100081F0100081F0100081F01000880
:1000E0001F0100081F0100081F010008DFF810D0E1
:1000F00000F0F4FB004800472D370008AFF3008004
:10010000D00500200648804706480047FEE7FEE786
:10011000FEE7FEE7FEE7FEE7FEE7FEE7FEE7FEE7B7
:10012000C3290008ED000008202A04DB203A21FA48
:1001300002F00021704721FA02F3D040C2F1200200
:100140009140084319467047D2B201E000F8012BF4
:10015000491EFBD270470022F6E710B513460A4647
:1001600004461946FFF7F0FF204610BDF0B480EAC0
:100170000102D40F4200B2EB410F02D20246084600
:1001800011464A0042D0C30DDDB2C1F3C752AD1AC9
:10019000202D35DAC1F3160141F4000204B15242B8
:1001A000C5F1200602FA06F12A411044B3EBD05FF4
:1001B00023D0C4B1012DA0EBC35009DCF0BC4FF03B
:1001C000004202EAC352DBB200F5000000F0FBB9C6
:1001D000400000F1807000EBC350A0F1807040EA55
:1001E000D170490009E0490841EAC071A0EBC35051
:1001F00000F50000400800EBC350F0BC00F0DAB995
:100200006142012202EB4101001BF6E7F0BC70479E
:1002100081F00041AAE780F00040A7E780EA0102F0
:1002200010B502F00043400022D04A001FD0010E5A
:1002300001EB1261C0F35600C2F3560240F4000015
:1002400042F40002A0FB022000047F39140400D015
:10025000401C50EA124001D44000491EC2B20C06B4
:1002600004EBD010401C4008802A02D003E000209C
:1002700010BD20F00100002900DA0020184310BD55
:1002800030B480EA010202F0004530F0004221F073
:10029000004013D090B1C30DD40DC2F31601C0F3CA
:1002A0001600E41A41F4000140F400027D3491424A
:1002B00001D3641C00E04900002C02DA30BC0020AD
:1002C00070474FF400000023914201D3891A034381
:1002D00040084FEA4101F7D151B1914202D14FF0AC
:1002E000004105E002D24FF0010101E06FF0010191
:1002F00003EBC450284430BC00F05CB92DE9FE4F3C
:1003000081EA030404F0004421F0004100944FF01E
:10031000000B23F0004350EA01045ED052EA0304CC
:100320005BD0C3F30A54C1F30A552C44A4F2F3344E
:100330000194A0FB0254C1F3130141F48011C3F3F3
:10034000130343F4801301FB024400FB034E840AB1
:10035000970A44EA815447EA8357A4FB0768029549
:100360008D0A05FB07854FEA932C04FB0C542705E7
:10037000029D4FEA065847EA1637B5EB08056EEBC3
:10038000070C870E920E47EA811742EA8312A7FBF9
:100390000201B6EB0B0164EB00042B0D43EA0C33B6
:1003A0005E1844EB1C50DA465146E7FB0201C5F3E8
:1003B00013044FEA0B3343EA14534FEA0432019C0F
:1003C00043EA0603A4F10C040294009CCDE900B4B6
:1003D00000F036F903B0BDE8F08F00200146F9E7E0
:1003E0002DE9F04D81EA030404F0004B21F00045B3
:1003F00014464FF0000A23F0004150EA050220D0D5
:1004000054EA01021DD0C5F30A570246C5F313038F
:10041000C1F31300C1F30A5640F4801543F480136E
:10042000A7EB0608101BD64608F2FD3873EB050053
:1004300002D308F1010801E092185B41B8F1000F06
:1004400003DA00200146BDE8F08D00204FF4801152
:10045000064684460EE0171B73EB050705D3121BF7
:1004600063EB050306434CEA010C49084FEA3000F0
:1004700092185B4150EA0107EDD152EA030012D015
:1004800082EA040083EA0501084305D0101BAB4152
:1004900006D20122002306E000224FF0004302E0D2
:1004A0006FF0010253101AEB06004CEB085110EBF1
:1004B0000A0041EB0B01BDE8F04D00F0B2B8962305
:1004C0000022114600F07FB800F0004230F00040FA
:1004D0000AD0C10D01F56071C0F3160042EA015166
:1004E000C20840071143704700200146704701F0E1
:1004F000004330B421F0004150EA010206D00A0D59
:10050000A2F56072C1F31301002A02DC30BC0020A6
:100510007047440F44EAC104C100E01830BC00EB4E
:10052000C25000F047B830B50B46014600202022EB
:10053000012409E021FA02F59D4205D303FA02F5F0
:10054000491B04FA02F52844151EA2F10102F1DC50
:1005500030BD2DE9F05F0546002092469B46884657
:100560000646814640241BE028464146474622462F
:10057000FFF7DAFD53465A46C01A914110D311468F
:100580001846224600F0BCF92D1A67EB01084F46C9
:1005900022460120002100F0B3F917EB00094E417B
:1005A000201EA4F10104DFDC484631462A464346BA
:1005B000BDE8F09F0029A8BF7047401C490008BF54
:1005C00020F00100704710B4B0FA80FC00FA0CF083
:1005D00050EA010404BF10BC704749B1CCF12004BB
:1005E00021FA04F411FA0CF118BF01212143084348
:1005F000A3EB0C01CB1D4FEA00614FEA102042BF74
:10060000002010BC704700EBC35010440029A4BF69
:1006100010BC7047401C490008BF20F0010010BC0E
:10062000704710B5141E73F1000408DA401C41F144
:10063000000192185B411A4301D120F0010010BD66
:100640002DE9F04D92469B4611B1B1FA81F202E0DC
:10065000B0FA80F22032904600F052F904460F467C
:1006600040EA0A0041EA0B0153465A46084313D0B8
:10067000114653EA010019D0C8F140025046FFF775
:1006800053FD05460E4650465946424600F038F99D
:10069000084305D0012004E020463946BDE8F08D2E
:1006A0000020054346EAE0762C4337430A98630569
:1006B000E40AA0EB08000022FD0A44EA47540A308D
:1006C00002D500200146E9E7010510196941DDE97D
:1006D000084500196941BDE8F04DA2E72DE9FE4F3C
:1006E000804681EA0300C00F0C46009021F00041D3
:1006F00023F00045B8EB0200A94105D2404621464F
:1007000090461C460B46024623F00040104347D05B
:10071000270DC7F30A00C3F30A510290401A019053
:1007200040286BDAC3F3130040F4801B0098924614
:1007300020B10023D2EB030A63EB0B0B019859465F
:10074000C0F14002504600F0DBF806460D46504628
:100750005946019A00F0E3F810EB080061410024CB
:1007600087EA115284EAE7731A4340D0009A62B3D1
:10077000019A012A4FEA075215DC001B61EB0201C6
:100780004FF0004202EA0752CDE90042001C41F559
:10079000801132462B46FFF753FF03B0BDE8F08FC0
:1007A00040462146F9E7001B61EB0201001C41F5C0
:1007B000801300185B412018A2F5001747EB0301D6
:1007C00040EAD570B6196D4111E06D084FEA360662
:1007D00045EAC0754FEA0752001B61EB0201001C9D
:1007E00041F5801149084FEA300000195141324665
:1007F0002B4603B0BDE8F04FFFF713BF009801226E
:1008000040000023D0EB020263EBE0730098214626
:100810004FEAE074B8EB000061EB0401E9E783F014
:1008200000435BE781F0004158E770B521F00043D9
:1008300003430CD0C1F30A550024D5EB040564EB47
:100840000403D617AD1AB34102DB0020014670BD88
:10085000201841EB025170BD0EB5C10F80EAE07067
:100860000844CA07002140F233438DE80E000A46CF
:100870000B46FFF7E5FE03B000BDC1F30A52C1F31A
:10088000130140F2FF3341F480119A4202DA002052
:100890000146704740F233439A42A2F2334202DCEF
:1008A0005242FFF741BC00F02BB8000030B5041EE7
:1008B00071F1000404DB4FF00044404264EB01019D
:1008C000141E73F1000405DB1C464FF00043524236
:1008D00063EB0403994208BF904230BD064C074DBC
:1008E00006E0E06840F0010394E807009847103400
:1008F000AC42F6D3FFF7FEFBF843000818440008AB
:10090000202A04DB203A00FA02F1002070479140CF
:10091000C2F1200320FA03F3194390407047202AC4
:1009200006DBCB17203A41FA02F043EAE07306E017
:1009300041FA02F3D040C2F1200291400843194627
:1009400070472DE9F04D00231A461B1A8A4103DB3C
:1009500000200146BDE8F08DC1F30A52C1F3130136
:1009600041F480154FF0000BD10702D100186D4102
:10097000521E0027044640F2FF11384601EB620A7E
:100980003E468046024600204FF48011FFF7CCFB24
:10099000C2197141BB1846EB0100B4EB030C75EBB7
:1009A000000C04D3E41A65EB000517460E46241923
:1009B00008F101006D4180463428E3DDF91946EB6A
:1009C0000600091BA84103D24FF0FF32134601E095
:1009D000002213461BEB070046EB0A51BDE8F04D21
:1009E000FFF71FBE70B5044600252068806800F040
:1009F000010018B32068806820F001002168886039
:100A000000F082FF054613E000F07EFF401B022845
:100A10000ED92068806800F0010048B1A06A40F05B
:100A20001000A062E06A40F00100E062012070BDA9
:100A30002068806800F001000028E5D10020F6E77A
:100A400070B505466C6AA06A00F05000E0B9A06A73
:100A500040F40070A0622068806800F46020B0F567
:100A6000602F0DD1207B58B9A06A20F48070A0625D
:100A7000A06A00F4805018B9A06A40F00100A0629A
:100A8000204600F081FA03E0206A016B284688477F
:100A900070BD70B505466C6AA06A40F04000A06267
:100AA000E06A40F00400E062204600F06FFA70BD9A
:100AB00070B50446656A284600F067FA70BD00000C
:100AC00038B504460025002000902068806800F0BA
:100AD000010078BB2068806840F0010021688860D0
:100AE000194800681949B0FBF1F0009002E0009845
:100AF000401E009000980028F9D100F005FF05463F
:100B000019E000F001FF401B022814D9206880681A
:100B100000F0010078B9A06A40F01000A062E06A1D
:100B200040F00100E06200BF002084F8240000BF14
:100B3000012038BD05E02068806800F00100002831
:100B4000DFD00020F5E700000C00002040420F003D
:100B500000BFFEE71FB500200090019002900390B7
:100B60004FF48070009000200190012002906946AF
:100B7000014800F02BFD1FBD000801401FB50020FB
:100B800000900190029003904FF48070009001203B
:100B9000019000200290032003906946014800F074
:100BA00015FD1FBD0008014038B500BF274880690A
:100BB00040F00400254988610846806900F004007F
:100BC000009000BF00BFFFF7D9FF012211022048AB
:100BD00000F094FE00224FF480711D4800F08EFE5C
:100BE000142000F0DFFC01221102194800F086FEFB
:100BF0001E2000F0F9F8FFF7ADFF002404E0601CB0
:100C0000C4B2012000F0F0F84FF48071104800F0F9
:100C10006DFE08B1642CF2DB642C01DB012038BDD1
:100C2000002404E0601CC4B2012000F0DDF84FF4A1
:100C30008071074800F05AFE08B9642CF2DB642C7E
:100C400001DB0120EBE70020E9E700000010024093
:100C5000000801402DE9FC4106460F4600200090A7
:100C60000190FFF78BFF00224FF480714D4800F098
:100C700045FE142000F096FC01221102494800F0C4
:100C80003DFE1E2000F0B0F8FFF764FF002504E0F1
:100C9000681CC5B2012000F0A7F84FF480714148EC
:100CA00000F024FE08B1642DF2DB642D02DB01208C
:100CB000BDE8FC81002504E0681CC5B2012000F0FD
:100CC00093F84FF48071374800F010FE08B9642D96
:100CD000F2DB642D01DB0120EAE7002446E0002579
:100CE00004E0681CC5B2012000F07EF84FF480716A
:100CF0002C4800F0FBFD08B1642DF2DB002504E078
:100D0000681CC5B2012000F06FF84FF480712548CF
:100D100000F0ECFD08B9642DF2DB282000F064F847
:100D2000E11704EB5171C9101DF801104906090EB5
:100D30002046E21704EB5272D2100DF802104FF465
:100D40008071184800F0D2FD70B1E11704EB5171C9
:100D5000C9101DF8011041F001012046E21704EB13
:100D60005272D2100DF80210601CC4B2282CB6DBEF
:100D70009DF800009DF8011008449DF802100844F9
:100D80009DF8031008449DF80410884201D001200A
:100D90008EE79DF8000038709DF80200307000204A
:100DA00086E700000008014010B5024800F0AAFAEA
:100DB00010BD00008000002030B590F840500124A4
:100DC000AC40C56B6C60046863604468102C04D14F
:100DD0000468A2600468E16003E00468A16004683C
:100DE000E26030BD7047000070B504464FF6FF70FA
:100DF000001B401F85B2094800684562074801F0A2
:100E0000F1FA03E005480068406A85B24FF6FA70CF
:100E10008542F7DB014801F01BFB70BDC4000020D8
:100E200072B600BFFEE7000038B50246002300207E
:100E3000009000BF92F82400012801D1022038BDA3
:100E4000012082F8240000BF4868072812D21068E9
:100E5000406B0C79641E04EB84051F24AC40A04356
:100E60000D796D1E05EB85050C68AC4020431468B8
:100E7000606327E048680D2812D21068006B0C7977
:100E8000E41F04EB84051F24AC40A0430D79ED1F43
:100E900005EB85050C68AC4020431468206311E025
:100EA0001068C06A0C790D3C04EB84051F24AC402B
:100EB000A0430D790D3D05EB85050C68AC40204342
:100EC0001468E06208680A2812D31068C0680C78B9
:100ED0000A3C04EB44050724AC40A0430D780A3DCE
:100EE00005EB45058C68AC4020431468E0600FE0DA
:100EF000106800690C7804EB44050724AC40A0435B
:100F00000D7805EB45058C68AC40204314682061E2
:100F10000868102802D00868112827D1174C1068DB
:100F2000A0421ED11068806800F40000F0B910687B
:100F3000806840F400001468A0600868102815D18B
:100F40000F4800680F4CB0FBF4F000EB800040004D
:100F5000009002E00098401E009000980028F9D10F
:100F600004E0906A40F020009062012300BF00205E
:100F700082F8240000BF184661E700000024014009
:100F80000C00002040420F0070477047704700007F
:100F90002DE9F0410446002700250026A84614B993
:100FA0000120BDE8F081A06810B1207D00B100BF34
:100FB000A06A30B90020E06284F82400204600F0E6
:100FC00089F82046FFF70EFD0746A06A00F01000E2
:100FD000002873D1002F71D1A06A20F4885040F00E
:100FE0000200A062E16960680843217B40EA410099
:100FF0000643A068B0F5807F02D0A068012802D126
:101000004FF4807000E000200543207D012811D1BD
:10101000207B38B9A069401E4FF4006141EA40309E
:10102000054307E0A06A40F02000A062E06A40F0BB
:101030000100E0622068406820F46940284321688C
:1010400048602068806821490840304321688860F2
:10105000A068B0F5807F02D0A068012802D14FF4CB
:10106000807000E00020B0F5807F03D1208A401E10
:101070004FEA00582068C06A20F4700040EA080077
:101080002168C8622068806811490840B04208D1D0
:101090000020E062A06A20F0020040F00100A0629F
:1010A00011E0A06A20F0020040F01000A062E06AA7
:1010B00040F00100E062012705E0FFE7A06A40F090
:1010C0001000A062012738466BE70000FDF7E1FF42
:1010D000FE0E1FFF10B586B004460020029003905C
:1010E000049005902249206888423ED100BF2148E3
:1010F000806940F400701F4988610846806900F4E7
:101100000070019000BF00BF00BF0846806940F03A
:10111000040088610846806900F00400019000BF67
:1011200000BF012002900320039002A9124800F0A2
:101130004DFA12481249086000204860002110480A
:1011400081608021C16089000161890041612021A5
:1011500081610902C16100F0A3F908B1FFF760FEE7
:1011600000BF07482062446200BF06B010BD000007
:101170000024014000100240000801400800024025
:10118000800000202DE9F04104460D461646002758
:1011900057492068884203D056492068884205D1C3
:1011A0005348001D006800F4702000E00020002873
:1011B0007ED100BF94F82400012802D10220BDE8AE
:1011C000F081012084F8240000BF2046FFF778FC5E
:1011D0000746002F6DD1A06A40F60161884340F4B4
:1011E0008070A06243492068884209D14048001DB0
:1011F000006800F4702008B9012002E0002000E03F
:10120000012078B1A06A20F48010A06220684068B4
:1012100000F4806000B3A06A20F4005040F48050D5
:10122000A06219E0A06A40F48010A06230492068F2
:10123000884203D02F492068884205D12C48001DE0
:10124000006800F4806000E0002028B1A06A20F46B
:10125000005040F48050A062A06A00F4805020B199
:10126000E06A20F00600E06201E00020E06200BFDA
:10127000002084F8240000BF1F48216A88621F48AC
:10128000216AC8621E48216A08636FF00200216863
:1012900008602068806840F4807021688860226857
:1012A00002F14C0133462A46206A00F02DF901E094
:1012B0001AE014E02068806800F46020B0F5602F28
:1012C00006D12068806840F4A000216888600CE0A6
:1012D0002068806840F480102168886005E000BFC5
:1012E000002084F8240000E00127384667E700006A
:1012F0000024014000280140410A0008B10A00080A
:10130000930A000870B50446E06B0568206806681B
:1013100094F84010042088402840002846D006F069
:101320000400002842D02068006800F0200028B99E
:101330002068006820F00400216808605749206890
:10134000884201D1042027E05449143120688842A2
:1013500001D1402020E0514928312068884201D144
:10136000001519E04D493C312068884202D14FF404
:10137000804011E0494950312068884202D14FF441
:10138000802009E0454964312068884202D14FF449
:10139000800001E04FF08060404908394860E06A11
:1013A00000287AD02046E16A884776E094F8401019
:1013B000022088402840A0B306F0020088B32068CD
:1013C000006800F0200040B92068006820F00A00A2
:1013D00021680860012084F8210030492068884293
:1013E00001D1022028E02D4914312068884201D122
:1013F000202021E0294928312068884201D1401568
:101400001AE026493C312068884202D14FF400504E
:1014100012E0224950312068884203D14FF4003055
:101420000AE017E01D4964312068884202D14FF478
:10143000001001E04FF0007018490839486000BF03
:10144000002084F8200000BFA06A30B32046A16AC3
:10145000884722E094F84010082088402840E0B1F6
:1014600006F00800C8B12068006820F00E0021686E
:10147000086094F8401001208840E16B486001202A
:10148000A06384F8210000BF002084F8200000BF82
:10149000206B10B12046216B884770BD08000240C8
:1014A0000146002209B901207047164B0868C01A8E
:1014B0001423B0FBF3F08000086412480838C863B6
:1014C000022081F821000868026843F6F070824328
:1014D000D1E901031843CB6818430B6918434B69E2
:1014E00018438B691843CB691843024308680260AC
:1014F00000208863012081F82100002081F820006D
:1015000000BFD1E7080002402DE9F04104460D4636
:1015100016461F464FF0000800BF94F8200001282F
:1015200002D10220BDE8F081012084F8200000BF34
:1015300094F8210001282CD1022084F821000020F9
:10154000A0632068006820F00100216808603B4625
:10155000324629462046FFF72FFCE06A30B120686A
:10156000006840F00E00216808600BE02068006809
:1015700020F00400216808602068006840F00A003C
:10158000216808602068006840F001002168086058
:1015900006E000BF002084F8200000BF4FF00208E2
:1015A0004046BFE770B5044600F0AEF90646254652
:1015B000681C10B104480078054400BF00F0A4F98D
:1015C000801BA842FAD370BD080000202DE9F8471F
:1015D0000346002294466EE14FF0010808FA02F437
:1015E000D1F8008008EA0400A0427DD1DFF8DCA237
:1015F000D1F80480A8EB0A09D0453AD014DCB8F140
:10160000030F50D009DCB8F1000F31D0B8F1010F51
:101610001CD0B8F1020F49D120E0B8F1110F18D059
:10162000B8F1120F42D11EE0B9F5881F25D006DCB3
:10163000B9F5803F20D0B9F5801F37D11AE0B9F550
:10164000001F18D0B9F5041F30D117E0D1F80CC035
:101650002DE0D1F80C8008F1040C28E0D1F80C80C2
:1016600008F1080C23E0D1F80C8008F10C0C1EE006
:1016700000BF00BF00BF00BF00BF00BFD1F808809F
:10168000B8F1000F02D14FF0040C0BE0D1F8088044
:10169000B8F1010F03D14FF0080C1C6102E04FF0CC
:1016A000080C5C6103E04FF0000C00E000BF00BFDD
:1016B000FF2801D8984601E003F104084646FF28B8
:1016C00002D84FEA820803E0A2F108084FEA88082E
:1016D0004746D6F800804FF00F0909FA07F928EAC3
:1016E00009080CFA07F900E088E048EA0908C6F89A
:1016F0000080D1F8048008F08058B8F1805F7DD177
:1017000000BFDFF8CC81D8F8188048F00108DFF876
:10171000C091C9F81880C846D8F8188008F00108A8
:10172000CDF8008000BF00BF4FEAB9384FEA9209F8
:1017300058F829504FEA82784FEA18794FF00F088D
:1017400008FA09F825EA0805DFF88881434502D13F
:101750004FF0000816E0DFF88081434502D14FF0DA
:1017600001080FE0DFF87481434502D14FF0020811
:1017700008E0DFF86C81434502D14FF0030801E037
:101780004FF004084FEA82794FEA197908FA09F80C
:1017900048EA0505DFF84C814FEA920948F82950DC
:1017A000D1F8048008F48018B8F5801F0AD1DFF85A
:1017B0003881D8F8008048EA0008DFF82C91C9F891
:1017C000008009E0DFF82081D8F8008028EA0008CE
:1017D000DFF81491C9F80080D1F8048008F40018EB
:1017E000B8F5001F10D1DFF8008108F10408D8F81F
:1017F000008048EA0008DFF8F09000E05AE009F1C4
:101800000409C9F800800DE0DFF8DC8008F1040865
:10181000D8F8008028EA0008DFF8CC9009F1040924
:10182000C9F80080D1F8048008F40038B8F5003F0A
:101830000ED1DFF8B480A8F10408D8F8008048EA97
:101840000008DFF8A490A9F10409C9F800800DE0B0
:10185000DFF89480A8F10408D8F8008028EA00088E
:10186000DFF88490A9F10409C9F80080D1F8048058
:1018700008F48038B8F5803F0ED1DFF86C80A8F10D
:101880000808D8F8008048EA0008DFF85C90A9F161
:101890000809C9F800800DE0DFF84C80A8F10808BD
:1018A000D8F8008028EA0008DFF83C90A9F1080980
:1018B000C9F80080521CD1F8008028FA02F8B8F16B
:1018C000000F7FF489AEBDE8F8870000000011101A
:1018D0000010024000080140000C014000100140CF
:1018E00000140140080001400804014002469368CA
:1018F0000B400BB1012000E0002070470AB10161EC
:1019000001E00B0403617047014800687047000064
:101910000000002003480068034909780844014991
:1019200008607047000000200800002010B508483B
:10193000006840F0100006490860032000F0A8F895
:10194000002000F007F800F02BF8002010BD000088
:101950000020024070B504460E4800784FF47A71BA
:10196000B1FBF0F00C490968B1FBF0F5284600F036
:1019700091FC08B1012070BD102C07D20022214635
:10198000501E00F047F80548046001E00120F2E72E
:101990000020F0E7080000200C00002004000020D8
:1019A00008B500BF1148806940F001000F49886107
:1019B0000846806900F00100009000BF00BF00BF32
:1019C0000846C06940F08050C8610846C06900F010
:1019D0008050009000BF00BF00BF0549486820F05C
:1019E000E06040F00070486000BF08BD0010024099
:1019F0000000014001460846002809DB00F01F03F3
:101A000001229A4043099B0003F1E023C3F800211F
:101A100000BF70472DE9F05F80460D46164600274F
:101A200001F06EF9074639462A46334601F00700B1
:101A3000C0F1070ABAF1040F02D94FF0040A01E01D
:101A4000C0F1070AD14600F1040ABAF1070F02D229
:101A50004FF0000A01E0A0F1030AD4464FF0010A5A
:101A60000AFA09FAAAF1010A0AEA020A0AFA0CFABF
:101A70004FF0010B0BFA0CFBABF1010B0BEA030B64
:101A80004AEA0B042146404601F042F9BDE8F09FC6
:101A900000BF00F00702064B19684FF6FF0319401C
:101AA000044B0B4343EA0221014B196000BF70470E
:101AB0000CED00E00000FA05F8B50446002600250C
:101AC000207800F0010000286BD000274348C0694F
:101AD00000F0805070B900BF4048C06940F08050AD
:101AE0003E49C8610846C06900F08050009000BFC0
:101AF00000BF01273A48006800F48070B0B9384848
:101B0000006840F4807036490860FFF7FDFE064625
:101B100006E0FFF7F9FE801B642801D90320F8BD19
:101B20002F48006800F480700028F2D02B48006A2B
:101B300000F440752DB3A08800F44070A84220D076
:101B40002648006A20F440750120264908600020DC
:101B500008602248056205F0010090B1FFF7D4FE4D
:101B6000064608E0FFF7D0FE801B41F2883188422C
:101B700001D90320D3E71948006A00F002000028C9
:101B8000F0D01648006A20F4407061680843134999
:101B90000862012F04D10846C06920F08050C86156
:101BA00000BF207800F00200022807D10B484068EF
:101BB00020F44040A168084308494860207800F0BC
:101BC0001000102807D10548406820F48000E16823
:101BD0000843024948600020A1E7000000100240CD
:101BE000007000404004424270B504460D460CB9F6
:101BF000012070BD5A48006800F00700A8420ED2CC
:101C00005748006820F007002843554908600846F7
:101C1000006800F00700A84201D00120E9E7207821
:101C200000F0020002281DD1207800F004000428F2
:101C300005D14C48406840F4E0604A49486020784B
:101C400000F00800082805D14648406840F460507C
:101C5000444948604348406820F0F000A1680843C8
:101C600040494860207800F0010078B3606801289E
:101C700006D13C48006800F4003090B90120B8E774
:101C80006068022806D13748006800F0007040B94B
:101C90000120AEE73348006800F0020008B90120D7
:101CA000A7E73048406820F00300616808432D49E9
:101CB0004860FFF729FE064609E0FFF725FE801B76
:101CC00041F28831884202D9032092E707E0254893
:101CD000406800F00C006168B0EB810FEDD1204846
:101CE000006800F00700A8420ED91D48006820F0E7
:101CF000070028431A4908600846006800F00700FA
:101D0000A84201D0012074E7207800F004000428E4
:101D100007D11448406820F4E060E16808431149A5
:101D20004860207800F00800082808D10D48406875
:101D300020F46050216940EAC1000A49486000F07F
:101D40003FF808494968C1F30311074A515CC8408C
:101D50000649086006480068FFF7FCFD002048E7D8
:101D600000200240001002404A4300080C000020FE
:101D70000400002001480068704700000C000020AB
:101D800000B5FFF7F7FF04494968C1F30221034A90
:101D9000515CC84000BD0000001002405A430008DA
:101DA00000B5FFF7E7FF04494968C1F3C221034AC0
:101DB000515CC84000BD0000001002405A430008BA
:101DC00070B500210022002400230020134D696813
:101DD00001F00C05F5B1042D02D0082D19D101E058
:101DE0000F4819E00F4DC1F38346AB5D01F4803518
:101DF00055B10A4D6D68C5F340450B4E725D084DF7
:101E00005D43B5FBF2F402E0084D03FB05F4204608
:101E100002E000BF024800BF00BF70BD00100240DA
:101E200000127A00384300084843000800093D00CA
:101E3000F8B504460CB90120F8BD207800F0010087
:101E4000002878D0F848406800F00C0004280CD036
:101E5000F548406800F00C00082811D1F2484068AD
:101E600000F48030B0F5803F0AD1EF48006800F4FC
:101E7000003000285FD0606800285CD10120DBE7DB
:101E800000BF6068B0F5803F06D1E748006840F4C5
:101E90008030E549086028E0606858B9E248006889
:101EA00020F48030E04908600846006820F4802073
:101EB00008601AE06068B0F5A02F0BD1DA4800681E
:101EC00040F48020D84908600846006840F480301B
:101ED00008600AE0D448006820F48030D2490860E5
:101EE0000846006820F48020086000BF606888B160
:101EF000FFF70AFD054606E0FFF706FD401B6428D4
:101F000001D9032098E7C848006800F40030002891
:101F1000F2D010E0FFF7F8FC054606E0FFF7F4FC0E
:101F2000401B642801D9032086E7BF48006800F4FD
:101F300000300028F2D1207800F00200022857D1AA
:101F4000B948406800F00C0050B1B748406800F054
:101F50000C00082818D1B448406800F4803098B9C3
:101F6000B148006800F0020020B12069012801D0CA
:101F7000012061E7AC48006820F0F800616940EAA0
:101F8000C100A949086033E02069E8B10120A749F0
:101F90000860FFF7B9FC054606E0FFF7B5FC401BFB
:101FA000022801D9032047E79F48006800F002009B
:101FB0000028F2D09C48006820F0F800616940EAEF
:101FC000C1009949086013E0002098490860FFF7B4
:101FD0009BFC054606E0FFF797FC401B022801D951
:101FE000032029E79048006800F002000028F2D1A1
:101FF000207800F0080008282DD1A069B8B1012090
:102000008B490860FFF780FC054606E0FFF77CFC83
:10201000401B022801D903200EE78348406A00F0E4
:1020200002000028F2D0012000F070FC13E0002034
:102030007F490860FFF768FC054606E0FFF764FC8F
:10204000401B022801D90320F6E67748406A00F0D9
:1020500002000028F2D1207800F00400042873D197
:1020600000277148C06900F0805070B900BF6E4809
:10207000C06940F080506C49C8610846C06900F0F2
:102080008050009000BF00BF01276A48006800F43C
:102090008070B0B96748006840F480706549086096
:1020A000FFF732FC054606E0FFF72EFC401B6428D4
:1020B00001D90320C0E65F48006800F48070002862
:1020C000F2D000BFE068012806D15748006A40F00E
:1020D00001005549086227E0E06858B95248006A93
:1020E00020F00100504908620846006A20F0040010
:1020F000086219E0E06805280BD14B48006A40F0FF
:102100000400494908620846006A40F0010008627C
:102110000AE04548006A20F0010043490862084689
:10212000006A20F00400086200BFE068A0B1FFF779
:10213000EBFB054609E0FFF7E7FB401B41F2883166
:10214000884202D9032077E622E03748006A00F08F
:1021500002000028EFD012E0FFF7D6FB054608E0AA
:10216000FFF7D2FB401B41F28831884201D903209E
:1021700062E62D48006A00F002000028F0D1012F2D
:1021800005D12948C06920F080502749C86100BFA7
:10219000E069C8B32448406800F00C00082860D00B
:1021A000E069022848D1002020490866FFF7ACFB0F
:1021B000054606E0FFF7A8FB401B022801D90320D3
:1021C0003AE61948006800F000700028F2D1206A51
:1021D000B0F5803F07D11448406820F40030A16872
:1021E000084311494860D4E9080108430E49496889
:1021F00021F4741108430C49486001200B4908661A
:10220000FFF782FB054607E03DE0FFF77DFB401B43
:10221000022801D903200FE60348006800F000708F
:102220000028F2D02FE000000010024000004242DF
:102230008004424200700040002014490866FFF705
:1022400063FB054606E0FFF75FFB401B022801D950
:102250000320F1E50E48006800F000700028F2D17C
:1022600011E0E069012800D1E6E50948466806F476
:102270008031206A814204D106F47011606A814283
:1022800001D00120D8E50020D6E500000000424240
:102290000010024070B504462546681EB0F1807FEC
:1022A00001D301200FE0681E4FF0E02148610F21AB
:1022B0004FF0FF3000F02CFD00204FF0E02188614E
:1022C00007200861002070BD30B502460B4600BFF4
:1022D00092F83C00012801D1022030BD012082F893
:1022E0003C0000BF022082F83D001068446810687E
:1022F000816824F070041868044310684460104D2D
:102300001068A8420BD01068B0F1804F07D00D4D77
:102310001068A84203D00C4D1068A84205D121F0E6
:1023200080015868014310688160012082F83D00F7
:1023300000BF002082F83C0000BF00BFCDE70000D6
:10234000002C0140000400400008004010B5044685
:102350000CB9012010BD94F83D0028B9002084F884
:102360003C00204600F026F8022084F83D00211DA4
:10237000206800F027FB012084F8460000BF84F8A5
:102380003E0001213F2001554020015541200155CB
:1023900000BF00BF012084F84200432001554420C3
:1023A00001554520015500BF012084F83D00002063
:1023B000D0E7000008B5094A016891420DD100BF7D
:1023C0000749896941F40061054A916111468969AB
:1023D00001F40061009100BF00BF08BD002C014066
:1023E00000100240014691F83D00012801D0012073
:1023F0007047022081F83D00124B086898420BD0CC
:102400000868B0F1804F07D00F4B0868984203D09E
:102410000E4B086898420CD10868806800F00702EB
:10242000062A0CD00868006840F001000B681860AC
:1024300005E00868006840F001000B6818600020A3
:10244000D6E70000002C01400004004000080040D6
:10245000014600BF0868006A41F21112104050B9ED
:102460000868006A9210104028B90868006820F0D7
:1024700001000A68106000BF012081F83D000020C3
:1024800070472DE9F04104460D46002700BF94F83F
:102490003C00012802D10220BDE8F081012084F82F
:1024A0003C0000BF022084F83D002068866826F0CA
:1024B000770626F47F46206886602868502833D047
:1024C0000CDC202850D004DC00284BD0102851D13F
:1024D00049E0302849D040284CD139E060282DD03F
:1024E000702807D0B0F5805F03D0B0F5005F41D110
:1024F0000DE041E0D5E902136A68206800F0A4FA13
:102500002068866846F077062068866034E0D5E962
:1025100002136A68206800F097FA2068806840F427
:1025200080402168886027E0EA686968206800F0D8
:102530009FFA5021206800F092FA1DE0EA6869686D
:10254000206800F0A8FA6021206800F088FA13E003
:10255000EA686968206800F08BFA4021206800F082
:102560007EFA09E000BF00BF00BF2968206800F0C4
:1025700076FA01E0012700BF00BF012084F83D008A
:1025800000BF002084F83C0000BF384684E710B547
:1025900004460CB9012010BDA06900B100E000BFE5
:1025A00094F8410028B9002084F84000204600F04B
:1025B00029F8242084F841002068C06820F40050E5
:1025C0002168C860204600F0B1FA2068006920F454
:1025D0009040216808612068406920F02A00216845
:1025E00048612068C06840F400502168C86000203D
:1025F0006064202084F8410084F842000020606379
:1026000000BFC8E710B586B00446002002900390D2
:10261000049005901A49206888422ED100BF1948BD
:10262000806940F48040174988610846806900F459
:102630008040019000BF00BF00BF0846806940F0A5
:10264000040088610846806900F00400019000BF22
:1026500000BF48150290022003900320059002A9B4
:102660000948FEF7B3FF4FF480600290002003900A
:10267000049002A90448FEF7A9FF06B010BD0000AF
:102680000038014000100240000801402DE9F84FD9
:1026900004460E46174699464FF0000A94F841004A
:1026A000202850D106B117B90120BDE8F88F0020CD
:1026B0006064212084F84100FFF726F98246A78450
:1026C000E784A068B0F5805F04D1206910B90025C7
:1026D000B04602E035464FF000081EE053460022A7
:1026E00080212046CDF8009000F09EFA20B12020F5
:1026F00084F841000320D8E745B9B8F80000C0F3DA
:1027000008002168486008F1020803E02878216881
:1027100048606D1CE08C401EE084E08C0028DDD118
:102720005346002240212046CDF8009000F07CFA6C
:1027300020B1202084F841000320B6E7202084F84F
:1027400041000020B1E70220AFE700BFFEE7000034
:102750000EB50020009001900290134813490860C4
:1027600000211248816001210173002101754FF49D
:102770006021C16100200D49486001210B480161C1
:10278000FEF706FC08B1FEF74BFB0020009001208D
:1027900001900020029069460448FEF745FB08B10D
:1027A000FEF73EFB0EBD000000240140500000205B
:1027B00008B500BF0A48406940F001000849486177
:1027C0000846406900F00100009000BF00BF0022F1
:1027D00011460B20FFF71EF90B20FFF70BF908BD80
:1027E0000010024000B585B00020019002900390D7
:1027F000049000BF1648806940F0200014498861A9
:102800000846806900F02000009000BF00BF00BFB4
:102810000846806940F0040088610846806900F03D
:102820000400009000BF00BF012289150948FFF78E
:1028300065F84FF480700190012002900020039011
:102840000320049001A90348FEF7C0FE05B000BDB7
:10285000001002400008014000B587B0002003903E
:102860000490059006900190029015481549086063
:10287000472048600021134881604FF6FF71C16016
:102880000021016141618161FFF760FD08B1FEF740
:10289000C7FA4FF48050039003A90A48FFF7F1FDEF
:1028A00008B1FEF7BDFA00200190029001A9054889
:1028B000FFF70AFD08B1FEF7B3FA07B000BD00004C
:1028C000002C0140C400002010B50B480B490860E3
:1028D0004FF4E1304860002108488160C160016127
:1028E0000C21416100218161C161FFF750FE08B1F7
:1028F000FEF796FA10BD0000003801400C010020E0
:1029000000BFFEE700BFFEE77047000008B50849BA
:102910000968C9084FF47A72B1FBF2F141430091A2
:1029200000BF00BF00994A1E00920029F9D108BDDE
:102930000C000020704710B5FEF7ECFF10BD00B58D
:1029400093B0282109A8FDF706FC142104A8FDF77F
:1029500002FC002000900190029003900120099059
:1029600000040A9000200B9001200D90022010908E
:10297000C10311914FF4E011129109A8FFF758FA21
:1029800008B1FEF74DFA0F200490022005900020B8
:1029900006904FF48060079000200890022104A860
:1029A000FFF722F908B1FEF73BFA022000908003FE
:1029B00002906846FFF780F808B1FEF731FA13B0CD
:1029C00000BD704710B502681C4B984208D0B0F1AA
:1029D000804F05D01A4B984202D01A4B984203D12F
:1029E00022F070024B681A43144B984208D0B0F1A1
:1029F000804F05D0124B984202D0124B984203D11F
:102A000022F44072CB681A4322F080034C6943EAF7
:102A1000040202608B68C3620B688362074B9842B2
:102A200001D10B69036301234361036903F00103CF
:102A30001BB1036923F00103036110BD002C0140A9
:102A4000000400400008004030B50C46816821F4C5
:102A50007F4142EA032525432943816030BD0A4670
:102A6000816821F0700142F00703194381607047CB
:102A700030B50B461446026A056A25F00105056269
:102A8000816921F0F00141EA041122F00A021A439F
:102A90008161026230BD30B50B461446026A056A98
:102AA00025F010050562816921F4704141EA043185
:102AB00022F0A00242EA03128161026230BD00BF2F
:102AC00000BF02680C3252E8002F22F490710268B5
:102AD0000C3242E80013002BF3D100BF00BF00BF4F
:102AE0000268143252E8002F22F001010268143209
:102AF00042E80013002BF3D100BF016B01290ED176
:102B000000BF00BF02680C3252E8002F22F0100113
:102B100002680C3242E80013002BF3D100BF2021E1
:102B200080F84210002101637047000070B5044630
:102B30002168096921F44051E2681143226811615A
:102B40002269A1681143626941EA02052168C968E6
:102B500041F20C62914329432268D160216849699E
:102B600021F44071A2691143226851612D4A216804
:102B7000914202D1FFF714F901E0FFF701F900EBF0
:102B8000C00101EB001162689200B1FBF2F100EBB1
:102B9000C00202EB001263689B00B2FBF3F26423F5
:102BA000B2FBF3F202EBC20303EB0212A1EB8201D0
:102BB000322202EB01116422B1FBF2F101F0F001CB
:102BC00000EBC00202EB001263689B00B2FBF3F261
:102BD0006423B2FBF3F201EB021200EBC00101EB44
:102BE000001163689B00B1FBF3F100EBC00303EB42
:102BF00000136668B600B3FBF6F36426B3FBF6F386
:102C000003EBC30606EB0313A1EB8301322303EBB3
:102C100001116423B1FBF3F101F00F0111442268AB
:102C2000916070BD003801402DE9F84304460D461F
:102C300017469846089E31E0701C70B3FEF764FE9C
:102C4000A0EB0800B04200D816B90320BDE8F88315
:102C50002068C06800F00400F8B1802D1ED0402D1F
:102C60001CD020680068C0F3C000B0B100BF0020D5
:102C7000009020680068009020684068009000BFC5
:102C800000BF2046FFF71BFF0820606400BF002044
:102C900084F8400000BF0120D8E7FFE72068006803
:102CA0002840A84201D1012000E00020B842C3D052
:102CB0000020CBE700BFFEE70FB4054B10B503A91A
:102CC000044A029800F086F910BC5DF814FB00007D
:102CD0001537000848000020490050EAC12018BFFD
:102CE00004204A0D18BF40F0010040F2FF72B2EB21
:102CF000515F08BF40F00200012808BF052070475F
:102D000002480068C0F30220704700000CED00E0AC
:102D100010B5002804DB0A07130E054A135406E019
:102D20000A07140E034A00F00F031B1FD45410BDF2
:102D300000E400E018ED00E02DE9F0414F1E00EB4B
:102D4000C7010446D1E9000115461E4637F00602C8
:102D50000DD02A463346FDF7D1FA7F1E04EBC70398
:102D6000D3E90023FDF7BAFC37F00602F1D1022FB8
:102D700025D0042F13D0062F18BFBDE8F0812A46B6
:102D80003346FDF7BBFAD4E90A23FDF7A7FC2A4630
:102D90003346FDF7B3FAD4E90823FDF79FFC2A4632
:102DA0003346FDF7ABFAD4E90623FDF797FC2A4634
:102DB0003346FDF7A3FAD4E90423FDF78FFC2A4636
:102DC0003346FDF79BFAD4E90223FDF787FC2A4638
:102DD0003346FDF793FAD4E90023BDE8F041FDF74F
:102DE0007DBC00000022134610460149FDF7F8BAE9
:102DF0000000F03FFDF772BC00221346104611465A
:102E0000FDF7EEBA40F2013200204FF0E041FDF74D
:102E10000CBD0000024A00201107FDF706BD0000AE
:102E200001FDFFFF02E008C8121F08C1002AFAD105
:102E300070477047002001E001C1121F002AFBD13A
:102E40007047000001490860704700004C000020F6
:102E50002DE9FF5F82B00021DDE90430020DDDF8CD
:102E600040B0034318D044F61050A2F2FF32424360
:102E70001514119801281FD0A5EB0B00401C5FEA28
:102E8000000A4FF000064E4FDFF83891B04650462A
:102E900015D5CAF1000413E0119801244AA30128B2
:102EA00001D16FEA0B010298119AC0E90031C0E923
:102EB000024206B0BDE8F09FCBF10000DFE7044618
:102EC0000021404A491842EB0450CDE9001012E0BD
:102ED000E00707D032463B4640464946FDF70EFA2A
:102EE0008046894632463B4610461946FDF706FAAB
:102EF00006460F466410002CEAD1DDE90401DDE945
:102F00000023BAF1000F06DAFDF7F8F942464B4606
:102F1000FDF7F4F905E0FDF763FA42464B46FDF78D
:102F20005FFA04460E460022284BFDF7BFFC03D88B
:102F30004FF0FF30014607E00022254B2046314686
:102F4000FDF7CCFBFDF799FC102409E0002C0ADB0F
:102F50000A220023FDF7FDFA039B30321A55641E46
:102F600050EA0102F2D1641C039AC4F11103144423
:102F7000119A012A03D0012208430DD10AE0084327
:102F800004D000204FF0110B119072E7A3EB0B055A
:102F90006D1E0DE05B4504DD4FF0000205F10105FB
:102FA00004E003DA4FF00002A5F10105002AECD09D
:102FB00002981199C0E90231C0E9004579E70000A3
:102FC000000014400000F03F300000000000F0431B
:102FD0000000E03F2DE9FF4F95B09A46884606462F
:102FE0000025EEE1252877D100242746F94A012162
:102FF000039400E0044316F8013F203B01FA03F07C
:103000001042F7D130782A2811D06FF02F03307892
:10301000A0F13002092A16D8039A44F0020402EB08
:10302000820203EB42021044761C0390EFE758F84B
:10303000042B0392002A03DA504244F40054039014
:1030400044F00204761C30782E2816D116F8010FB1
:1030500044F004042A280DD06FF02F023078A0F13C
:103060003003092B09D807EB870302EB4303C7188A
:10307000761CF3E758F8047B761C30786C280FD068
:1030800006DC4C2817D068280DD06A2814D104E03B
:10309000742810D07A280FD10DE044F400140AE00F
:1030A00044F4801401E044F440147278824202D166
:1030B00004F58014761C761C307866280BD013DC5F
:1030C000582877D009DC002875D04528F6D0462846
:1030D000F4D047281AD193E118E0632835D064284A
:1030E00079D0652812D18BE1702873D008DC67286D
:1030F000F1D069286FD06E280DD06F2806D1ACE0D2
:1031000073282CD0752874D0782853D0524617993C
:1031100090476D1C54E1C4F30250022809D00328E3
:103120000DD0D8F8001004280DD00D6008F1040867
:1031300046E1D8F80010EA17C1E90052F6E7D8F8DE
:1031400000100D80F2E70D70F0E718F8041B8DF801
:10315000001000208DF80100EB46012003E058F834
:1031600004BB4FF0FF3061074FF0000102D40DE0C7
:1031700009F101018946B9420FDA8145F8DB1BF8F4
:1031800009100029F4D108E009F1010189468142C2
:10319000FADB1BF809100029F6D103985346A0EB7F
:1031A000090721463846179A00F080FA284400EBB8
:1031B000090507E044E008E10DE01BF8010B524669
:1031C00017999047B9F10109F7D25346214638467D
:1031D000179AF2E039E00A21C4F302524FF0000BD3
:1031E0000091022A06D058F8040BC117032A09D00F
:1031F0000AE023E008F1070020F00702F2E80201EC
:10320000904605E000B2C117042A01D140B2C117AF
:10321000002906DA0A460021404261EB02012D2214
:1032200002E0220504D52B228DF80420012203E0C0
:10323000E20701D02022F7E7914657E00A2100E09B
:1032400010214FF0000B00910BE010214FF0000B0C
:1032500044F004040827009103E008204FF0000B1D
:103260000090C4F30252022A05D058F8040B002142
:10327000032A08D008E008F1070020F00702F2E86E
:103280000201904603E080B2042A00D1C0B24FF0A0
:10329000000922072AD53278702A07D0DDF800C04D
:1032A0008CF0100C5CEA0B0C05D00EE040228DF87F
:1032B0000420012208E050EA010306D030238DF8F3
:1032C00004308DF8052002229146009B83F008030C
:1032D00053EA0B030AD150EA010201D1620705D576
:1032E00030228DF804204FF001097F1E3278582AD1
:1032F00004D039A20C920CAA02920BE03BA2F9E78F
:103300005B46009AFDF725F90C9B9B5C029A521EC6
:103310000292137050EA0102F2D1029804A9081A2D
:1033200000F1200B600702D524F4803400E001276F
:103330005F4502DDA7EB0B0000E0002000EB0B0176
:10334000009003984944401A0390E00306D4534682
:103350002146179A039800F0A9F90544002706E0D2
:1033600001A85246C05D179990476D1C7F1C4F45C0
:10337000F6DBE0030CD553462146179A039800F07C
:1033800095F9054404E030205246179990476D1C8A
:103390000099481E00900029F5DC08E00298029987
:1033A00052460078491C0291179990476D1CBBF159
:1033B0000001ABF1010BF1DC5BE100F065F90544C4
:1033C000761C307800287FF40DAE19B02846BDE891
:1033D000F08F0000092801003031323334353637A0
:1033E0003839616263646566000000003031323351
:1033F00034353637383941424344454600000000F1
:10340000600700D4062708F1070020F00700F0E865
:103410000223804603F0004C5FEA0C0001D097A025
:1034200009E0200501D596A005E0E00701D095A0B0
:1034300001E0AFF24C001390307823F00043652890
:103440000CD006DC452809D046281DD047287FD15E
:103450003BE0662818D067287AD136E00021112F8A
:1034600001DB112000E0781CCDE9000104A90CA8C3
:10347000FFF7EEFCDDE90D010C9A4FF0000B07F1B0
:103480000109109200914EE04FF000400097CDE905
:10349000011004A90CA8FFF7DBFCDDE90D020C9B71
:1034A0000F994FF0000B91461093009211B9791CBF
:1034B00000EB0109B7EB090003D4C0F1FF3B07F1B2
:1034C0000109A9EB0700019042E0012F00DA012772
:1034D0000021112F01DD112000E03846CDE9000167
:1034E00004A90CA8FFF7B4FCDDE90D010C9A0091CA
:1034F0004FF0000BB946109221070FD4009A4A45AD
:1035000003DA914601E0A9F10109B9F1010F05DDE6
:10351000109AA9F10101515C3029F4D0B84202DAC5
:1035200010F1040F03DA0121CDE9011010E00028A9
:1035300003DC8344A9EB000102E0411C494500DDA6
:103540008946A0EB0B00401C01904FF00040029018
:10355000200705D40198484502DB4FF0FF30019069
:1035600000208DF84B0002980DF14B07B0F1004F91
:1035700025D002200C902B200D90029800280CDA08
:10358000404202902D200D9007E00A210298FCF79E
:10359000CAFF3031029007F8011D0C99481E0C90AB
:1035A0000029F2DC02980028EFD1791E0D980870EE
:1035B000307800F0200040F0450007F8020D11A817
:1035C000C01BC01D02901398007800B1012000EBD1
:1035D0000901019801EBE071029801440398401A37
:1035E000401E0390E00306D453462146179A0398E1
:1035F00000F05CF805441398007818B1524617990A
:1036000090476D1CE00323D553462146179A039833
:1036100000F04CF805441BE0BBF1000F07DB0098FD
:10362000584504DD1098179910F80B0001E0179920
:1036300030205246904701980BF1010B401E05F1D6
:103640000105019004D12E205246179990476D1C18
:10365000B9F10001A9F10109DEDC05E017F8010B61
:103660005246179990476D1C0299481E02900029F6
:10367000F4DC53462146179A03989EE62D0000007D
:103680002B000000200000002DE9F0410446002539
:103690001E461746880404D405E039462020B0476A
:1036A0006D1C641EF9D52846BDE8F0812DE9F04176
:1036B000044600251E469046C80301D5302700E089
:1036C0002027880404D505E041463846B0476D1CE4
:1036D000641EF9D52846BDE8F081000010B5064902
:1036E0000648FDF7B7FA044802780448017804A0B8
:1036F000FFF7E2FA10BD0000440000204500002062
:1037000074656D703A25642C68756D693A25640D91
:103710000A00000013B50C460A230122694602483C
:10372000FEF7B4FF00981CBD0C010020FEF7FEF868
:10373000FFF705F9FFF756F8FFF73AF8FFF7C4F877
:10374000FFF706F8FFF788F81E2206490648FDF73E
:1037500019FDFDF729FA00F097FD01E000F09AFD50
:10376000FCE7000054010020500000202DE9FF5F1D
:1037700000203949086000240EE0384951F824003F
:10378000FCF79DFE0546344801682846FCF7EEFC30
:1037900031490860601CC4B21E2CEEDB30492E4853
:1037A0000068FCF76DFD05462E49FCF769FD0446EF
:1037B0002D49FCF733FD2D490860084601682C4867
:1037C000FCF726FD0546294801682846FCF758FD08
:1037D0000446284801682046FCF720FD2649086079
:1037E00026480068FCF770FE8046254A254BFCF70A
:1037F00085FD04460D4620480068FCF765FE064638
:1038000022462B46FCF7ECFD82461F4A1F4B00F078
:103810004FF8CDE90201FCF76AFE1D490860084631
:103820000068FCF751FE04460D4613480068FCF79B
:103830004BFE06460F460D480068FCF745FE8046E5
:1038400042460B4613A0CDE90067CDE90245FFF7DC
:1038500033FABDE8FF9F00002C0000205401002037
:103860000000F04100F07F4533335340300000202A
:103870000000A04038000020340000203C00002060
:10388000A089B0E1E9152740C442AD69DE71F8BFF7
:1038900040000020563A252E32662052533A252EFB
:1038A00032662070706D3A252E32660D0A000000D7
:1038B0002DE9F04D1D460C4698B0174621F0004109
:1038C00023F00043002814BF4FF0010C4FF0000C10
:1038D0000CEB440CFE4A0CEB02064FEA620C664508
:1038E0002BD33E0018BF012606EB45061644F94AC5
:1038F000964222D3F84A53EA070C02D0944205D1EB
:1039000048B918B000201146BDE8F08D002808BF66
:103910004FF0000C01D04FF0010C0CEB440212F5FB
:10392000001F0AD8002F14BF4FF0010C4FF0000CFD
:103930000CEB450212F5001F07D918B03A462B468A
:103940002146BDE8F04DFFF755BA0022DFF88CA301
:10395000002CB8BF534526DADFF884C36345A8BFFF
:10396000022220DADFF870C39C451CDCDFF874C348
:103970000CEB235CBCF1140F08DDCCF1340627FA04
:1039800006FC0CFA06F6BE420DD108E05FB9CCF198
:10399000140623FA06FC0CFA06F69E4203D10CF03C
:1039A0000102C2F1020251EA000C19D1002D17DA0E
:1039B000002C18BF022A01D0012A07D00220FFF7ED
:1039C00041FA18B0BDE8F04DFFF70CBA0220FFF73E
:1039D00039FAFFF707FA18B081F00041BDE8F08D21
:1039E000B7F1000C6CD1534525D104F1804212F59A
:1039F000801201BF00280020B74918B008BFBDE8F9
:103A0000F08DB548884207DC002DA1BF60462946ED
:103A100018B0BDE8F08D07E0281E05DA80F00041FF
:103A200018B06046BDE8F08DAF497944D1E9000196
:103A300018B0BDE8F08DDFF8A0C2634525D1002D98
:103A40001FDA19B1514512D1D8B909E0002840F068
:103A5000EC82A24A214618B062F31E01BDE8F08D47
:103A60000020214618B060F31E01BDE8F08D08DA91
:103A700018B02346BDE8F04D024600206146FCF731
:103A8000AFBC18B02146BDE8F08D514518DAB5F14C
:103A9000804F0DD0A5F1005CBCF1FF5C10D1B4F1FA
:103AA000000C0DDB18B06146BDE8F04D00F01EBC07
:103AB000234618B00246BDE8F04D1946FCF71EBC7F
:103AC000060024F0004C3BD1D9B1514533D1002C34
:103AD00006DD002DA1BF0020514618B0BDE8F08DD5
:103AE000002C01DD002D1BDB002C13DA002D11DB77
:103AF000012A4FF0000014BF78497C4918B0BDE896
:103B0000F08D022A18BF002C0AD0012A08D1002CFF
:103B100006DA0AE0002CB8BF002D11DA012A04D021
:103B2000002018B00146BDE8F08D18B000204FF01D
:103B30000041BDE8F08DA1F14050B0F17F601AD096
:103B4000012000EBE47050EA020421D0624C521EC6
:103B50004FF0000B104304BF4FF0000B644C65485E
:103B600083427CDD644A654893421FDD884217DB4F
:103B7000002D25DB37E0002C00DA4AB1022A0CBF09
:103B800001204FF0FF3018B0BDE8F04DFCF764BEE7
:103B90000120FFF757F918B0BDE8F04DFFF72CB939
:103BA0004D4A8A4202DC002D0ADC1CE0814202DA26
:103BB000002D18DA04E0484B994220DD002D12DD7B
:103BC0000220FFF73FF9FFF71DF905460E460022D8
:103BD000534658462146FCF791FB18B066F31E0188
:103BE0002846BDE8F08D0220FFF72CF9FFF712F907
:103BF0000A46214618B062F31E01BDE8F08D00228E
:103C000030466146FCF70BFE80460E466FF001021F
:103C1000FCF70BFE4FF05532394BFCF703FE4246E2
:103C20003346FCF76BFB0022364BFCF7FBFD82466C
:103C300042463346049110461946FCF75FFB524654
:103C4000049BFCF75BFB8A4600904FF0C0422E4B72
:103C500040463146FCF752FB2C4A2B4B00E027E054
:103C6000CDE9060151460098FCF748FB82460191D8
:103C7000274A284B40463146FCF740FB5246019B01
:103C8000FCF7CDFD82460B4602460591DDE90601B3
:103C9000FCF724FDDDE90623002688463046FCF7C4
:103CA000BEFD5246059BFCF7BDFD024600F07EB905
:103CB0000020B1F5801F07DA352230466146FCF757
:103CC000B4FD06466FF0340000EB215024E0000004
:103CD000FFFF1F00FFFF0F000000F03F0000F07F1C
:103CE0000000404301FCFFFFC20900000000F0FF9C
:103CF0000000F0BF0000E0410000F043FFFFEF3F95
:103D00005555D53F0000E03F4715F73FFE822B6534
:103D100044DF5DF80BAE543EA0F2FF300190C1F3DA
:103D2000130040F07F6141F040510291FE4988420A
:103D3000D8BF002004DDFD498142C8BF012001DD5C
:103D40000D9008E000200D900198401C0190029811
:103D5000A0F5801002900299F54878440B910D99D6
:103D600000EBC100D0E900230F9330460A920B9973
:103D7000FCF755FDCDE90601DDE90A2130460F9B30
:103D8000FCF7ACFC02460B460020EA49FCF728FB96
:103D9000059102460B460090DDE90601FCF7AEFAFC
:103DA0001490E5488A464FF000087844029900686C
:103DB00012904FF0005040EA61010D980F9B01EB0B
:103DC000804000F5002109910A9A1298FCF727FD1E
:103DD00032460B9BFCF726FD42465346FCF78EFA13
:103DE0000646029140465146099B129AFCF786FA14
:103DF000DDE90623FCF716FD3246029BFCF70FFDBA
:103E0000059B009AFCF77AFA0091149A04905346A5
:103E100010461946FCF772FA06460246C7480B469A
:103E2000029106217844FEF787FFCDE90510029B39
:103E3000324610461946FCF761FADDE90532FCF717
:103E40005DFA05910646534640461946149AFCF71A
:103E500045FC009B049AFCF751FA3246059BFCF79F
:103E60003DFCCDE905104246534610461946FCF785
:103E700045FA0022B24B02910A90FCF72FFCDDE9D3
:103E80000532FCF72BFC0E464246AD4B4046FCF794
:103E9000C6FC029B0A9AFCF7C2FCDDE90532FCF77E
:103EA000C1FC424602910A90334610465146FCF747
:103EB00025FACDE906015346149A02990A98FCF7AF
:103EC0001DFA8A4602903346424600990498FCF750
:103ED00015FA5346029AFCF701FC82460B4602464D
:103EE0000591DDE90601FCF7F9FBDDE90623002079
:103EF00088460646FCF793FC5246059BFCF792FC6D
:103F0000824609914FF060428E4B30464146FCF7A5
:103F1000F5F9049006918C4A8A4B50460999FCF7B2
:103F2000EDF982460291894A894B30464146FCF7B9
:103F3000E5F95246029BFCF7D1FB864B7B440D9A78
:103F400003EBC203D3E90023FCF7C8FB0E900791F3
:103F50000198FCF781FC0591DDE9061382460E9A73
:103F60000498FCF7BBFB7C4A7A440D9B02EBC3032D
:103F7000D3E9002300930292FCF7B0FB5246059B65
:103F8000FCF7ACFB0026884652463046059BFCF702
:103F900046FC009B029AFCF742FC069B049AFCF745
:103FA0003EFC079B0E9AFCF73DFC024600200B46A8
:103FB000029038462946FCF7A1F9824601912B462A
:103FC00038461946029AFCF72AFC32464346FCF76B
:103FD00095F95246019BFCF781FB07468A4632461B
:103FE000434629460298FCF789F905460E463A46AB
:103FF0005346FCF773FB594A8846914221DBA8EBF4
:10400000020353EA000210D12A463346FCF707FCAC
:10401000CDE90401524A534B38465146FCF75EFB4A
:10402000DDE90423FCF742FC21D20220FEF70AFF5F
:10403000FEF7E8FE0A46214618B062F31E01BDE80D
:10404000F08D494B28F000429A4210D3474A08EBC2
:10405000020353EA00027FF4C6AD2A463346FCF75A
:10406000DEFB3A465346FCF721FC7FF6BCAD00224E
:10407000019228F000403E493E4A01EB2051824225
:1040800023DA481C4FF4801121FA00F040443A4AE8
:10409000C0F30A517A44394BA1F2FF31CB4020EAF8
:1040A0000303C0F3130040F48010C1F11401C840B1
:1040B00012680190B8F1000FBCBF40420190284641
:1040C0003146FCF7ACFB05460E462A4633463846D9
:1040D0005146FCF703FB4FF000084246284B404690
:1040E0000591FCF70BF9CDE90601264A264B40461F
:1040F0000599FCF703F9009102902A4633464046A1
:104100000599FCF78CFB3A465346FCF78BFB1F4A9C
:104110001F4BFCF7F3F8009B029AFCF7DFFA074607
:10412000884602460B4635E08E9803007AB60B00AF
:104130000A0600000000F03F420600007005000083
:104140000000084009C7EE3FFD033ADCF5015B14AF
:10415000E02F3EBE480400000C0400000000904028
:10416000FE822B654715973C00CC904000346F3F92
:1041700001FCFFFF0000E03F58030000FFFF0F00BD
:10418000432EE63F396CA80C615C20BEEF39FAFE85
:10419000422EE63FDDE90601FCF7A0FADDE9062341
:1041A00005460E46FCF73BFB3A464346FCF73AFB16
:1041B0000F462A463346009010461946FCF79EF8F3
:1041C000824602462E4888460B4605217844FEF773
:1041D000B3FD52464346FCF791F82A463346FCF7B6
:1041E00021FB80468A463B4628463146009AFCF72A
:1041F00085F83B46009AFCF771FA06910090002280
:104200004FF0804340465146FCF709FB0F460C90A7
:104210004246534628463146FCF770F83B460C9A16
:10422000FCF7DEF8069B009AFCF7F9FA2A463346BB
:10423000FCF7F5FA0022134BFCF7F4FA0546019857
:104240000E4601EB00510815002810DC28463146C7
:10425000019AFCF7EAFAFEF73FFD042808BFFEF7D3
:10426000D9FD28463146019AFCF7DFFA05460B4690
:1042700018B02A4658462146BDE8F04DFCF73EB836
:10428000F80100000000F03F02200149087070476B
:104290001000002070B500241EE0FDF735FB054638
:1042A00004EB44000F4901EB8000806804EB4401FB
:1042B0000C4A02EB810149680844A8420AD804EB81
:1042C0004400114601EB8000856004EB440152F884
:1042D00021008047601CC4B2034800788442DCDBC4
:1042E00070BD000014000020100000202DE9F041F6
:1042F00006460F46FCF725FB041E0D4618BF01209D
:10430000284320F00040C0F17F6000F1E040C00F82
:104310000ED0301C18BF0120384320F00040C0F1FF
:104320007F6000F1E040C00F04BF0120FEF78AFD6E
:1043300020462946BDE8F081020304050607080966
:104340000A0B0C0D0E0F10100102000000000000FF
:104350000000010203040607080900000000010232
:104360000304000000000000000000000000F03F17
:10437000000000000000F83F000000000000000006
:104380000000004003B8E23F000000000000000011
:1043900006D0CF43EBFD4C3E033333333333E33F9F
:1043A000FFAB6FDBB66DDB3F4D268F515555D53FCB
:1043B00001411DA96074D13F65DBC9934A86CD3F99
:1043C000EF4E454A287ECA3F3E5555555555C53F87
:1043D00093BDBE166CC166BF2CDE25AF6A56113F79
:1043E000F16BD2C541BDBBBED0A4BE726937663E7B
:1043F0000000000000000000184400080000002039
:1044000050000000242E00086844000850000020DE
:1044100080050000342E000800000000100000009D
:104420000100000000127A00000000006D37000853
:104430006400000000000000DD360008E803000012
:10444000000000000000000000000000000000006C
:1044500066669640B29D0F4200000000000000001A
:08446000000000000000000054
:04000005080000ED02
:00000001FF
